:1000000000000320D9040000E9040000E904000016
:10001000E9040000E9040000E90400000000000019
:10002000000000000000000000000000E9040000E3
:10003000E904000000000000E9040000E9040000F9
:10004000E9040000E9040000E9040000E9040000FC
:10005000E9040000E9040000E9040000E9040000EC
:10006000E9040000E9040000E9040000E9040000DC
:10007000E9040000E9040000E9040000E9040000CC
:10008000E9040000E9040000E9040000E9040000BC
:10009000E9040000E9040000E9040000E9040000AC
:1000A000B5240000E9040000B5300000C1300000B4
:1000B000E9040000E9040000E90400006D300000DC
:1000C000E904000079300000E904000085300000F8
:1000D000E904000091300000E9040000E904000098
:1000E000E9040000E9040000E9040000E90400005C
:1000F000E9040000E9040000E9040000E90400004C
:10010000692F000011300000E9040000E90400003C
:10011000E9040000E9040000E9040000E90400002B
:10012000E9040000E9040000313000002D33000034
:10013000E904000015330000E9040000E9040000B0
:10014000E9040000CD3000009D300000E90400000B
:10015000A9300000E9040000E9040000E9040000FF
:10016000E9040000E9040000E90400003D3000005B
:100170004930000055300000E9040000E9040000A7
:1001800061300000E9040000E9040000E904000017
:10019000E9040000E9040000E9040000E9040000AB
:1001A000E9040000E9040000E9040000E90400009B
:1001B000E9040000E9040000E9040000E90400008B
:1001C000E9040000E9040000E9040000E90400007B
:1003F000E9040000E9040000E9040000FFFFFFFF3A
:10040000FFFFFFFFFFFFFFFFFFFFFFFFFEFFFFFFFD
:1004100010B5054C237833B9044B13B10448AFF33E
:1004200000800123237010BDC800FF1F00000000E2
:1004300054A6000008B5064B1BB106480649AFF3A9
:1004400000800648036813B1054B03B1984708BD07
:100450000000000054A60000CC00FF1FC000FF1FDA
:1004600000000000154B002B08BF134B9D46A3F561
:10047000803A00218B460F461348144A121A07F09F
:1004800014FC0F4B002B00D098470E4B002B00D0D4
:1004900098470020002104000D000D48002802D0DC
:1004A0000C48AFF3008007F0D1FB2000290002F0D8
:1004B00073FE07F0A5FB00BF00000800000003204A
:1004C0000000000000000000C800FF1F6804FF1FBC
:1004D000000000000000000072B604F0C7F904F04C
:1004E0005FF962B6FFF7BEFFFFF7FEBF81F0004184
:1004F00002E000BF83F0004330B54FEA41044FEA09
:10050000430594EA050F08BF90EA020F1FBF54EAA3
:10051000000C55EA020C7FEA645C7FEA655C00F03F
:10052000E2804FEA5454D4EB5555B8BF6D420CDD10
:100530002C4480EA020281EA030382EA000083EA93
:10054000010180EA020281EA0303362D88BF30BD33
:1005500011F0004F4FEA01314FF4801C4CEA113189
:1005600002D0404261EB410113F0004F4FEA0333E8
:100570004CEA133302D0524263EB430394EA050F73
:1005800000F0A780A4F10104D5F1200E0DDB02FAE2
:100590000EFC22FA05F2801841F1000103FA0EF276
:1005A000801843FA05F359410EE0A5F120050EF13C
:1005B000200E012A03FA0EFC28BF4CF0020C43FA6D
:1005C00005F3C01851EBE37101F0004507D54FF07A
:1005D000000EDCF1000C7EEB00006EEB0101B1F5CA
:1005E000801F1BD3B1F5001F0CD349085FEA300010
:1005F0004FEA3C0C04F101044FEA445212F5800F1B
:1006000080F09A80BCF1004F08BF5FEA500C50F1B7
:10061000000041EB045141EA050130BD5FEA4C0C9A
:10062000404141EB010111F4801FA4F10104E9D123
:1006300091F0000F04BF01460020B1FA81F308BF1A
:100640002033A3F10B03B3F120020CDA0C3208DDE6
:1006500002F1140CC2F10C0201FA0CF021FA02F1C1
:100660000CE002F11402D8BFC2F1200C01FA02F131
:1006700020FA0CFCDCBF41EA0C019040E41AA2BF56
:1006800001EB0451294330BD6FEA04041F3C1CDA1E
:100690000C340EDC04F11404C4F1200220FA04F03E
:1006A00001FA02F340EA030021FA04F345EA0301E8
:1006B00030BDC4F10C04C4F1200220FA02F001FAAA
:1006C00004F340EA0300294630BD21FA04F029462C
:1006D00030BD94F0000F83F4801306BF81F48011C5
:1006E0000134013D4EE77FEA645C18BF7FEA655C38
:1006F00029D094EA050F08BF90EA020F05D054EA0A
:10070000000C04BF1946104630BD91EA030F1EBF0E
:100710000021002030BD5FEA545C05D14000494112
:1007200028BF41F0004130BD14F580043CBF01F505
:10073000801130BD01F0004545F0FE4141F47001EB
:100740004FF0000030BD7FEA645C1ABF19461046C6
:100750007FEA655C1CBF0B46024650EA013406BFC7
:1007600052EA033591EA030F41F4002130BD00BF86
:1007700090F0000F04BF0021704730B54FF4806443
:1007800004F132044FF000054FF0000150E700BFC4
:1007900090F0000F04BF0021704730B54FF4806423
:1007A00004F1320410F0004548BF40424FF0000110
:1007B0003EE700BF42004FEAE2014FEA31014FEA53
:1007C00002701FBF12F07F4393F07F4F81F06051A2
:1007D000704792F0000F14BF93F07F4F704730B511
:1007E0004FF4607401F0004521F0004120E700BFA4
:1007F00050EA010208BF704730B54FF000050AE02B
:1008000050EA010208BF704730B511F0004502D52B
:10081000404261EB41014FF4806404F132045FEA2D
:10082000915C3FF4DCAE4FF003025FEADC0C18BFD2
:1008300003325FEADC0C18BF033202EBDC02C2F1C8
:10084000200300FA03FC20FA02F001FA03FE40EA5A
:100850000E0021FA02F11444C1E600BF70B54FF05A
:10086000FF0C4CF4E06C1CEA11541DBF1CEA13553C
:1008700094EA0C0F95EA0C0F00F0DEF82C4481EAA4
:10088000030621EA4C5123EA4C5350EA013518BFC4
:1008900052EA033541F4801143F4801338D0A0FBB1
:1008A00002CE4FF00005E1FB02E506F00042E0FB5E
:1008B00003E54FF00006E1FB03569CF0000F18BF64
:1008C0004EF0010EA4F1FF04B6F5007F64F540740C
:1008D00004D25FEA4E0E6D4146EB060642EAC6219F
:1008E00041EA55514FEAC52040EA5E504FEACE2E0C
:1008F000B4F1FD0C88BFBCF5E06F1ED8BEF1004F0F
:1009000008BF5FEA500E50F1000041EB045170BD8A
:1009100006F0004646EA010140EA020081EA0301CE
:10092000B4EB5C04C2BFD4EB0C0541EA045170BDCA
:1009300041F480114FF0000E013C00F3AB8014F144
:10094000360FDEBF002001F0004170BDC4F100048D
:10095000203C35DA0C341BDC04F11404C4F120050E
:1009600000FA05F320FA04F001FA05F240EA020069
:1009700001F0004221F0004110EBD37021FA04F69F
:1009800042EB06015EEA430E08BF20EAD37070BD59
:10099000C4F10C04C4F1200500FA04F320FA05F0B8
:1009A00001FA04F240EA020001F0004110EBD370BA
:1009B00041F100015EEA430E08BF20EAD37070BD2A
:1009C000C4F1200500FA05F24EEA020E20FA04F303
:1009D00001FA05F243EA020321FA04F001F00041B2
:1009E00021FA04F220EA020000EBD3705EEA430E23
:1009F00008BF20EAD37070BD94F0000F0FD101F052
:100A00000046400041EB010111F4801F08BF013C8A
:100A1000F7D041EA060195F0000F18BF704703F0C8
:100A20000046520043EB030313F4801F08BF013D4F
:100A3000F7D043EA0603704794EA0C0F0CEA13550B
:100A400018BF95EA0C0F0CD050EA410618BF52EAC5
:100A50004306D1D181EA030101F000414FF00000CB
:100A600070BD50EA410606BF1046194652EA4306D9
:100A700019D094EA0C0F02D150EA013613D195EA4D
:100A80000C0F05D152EA03361CBF104619460AD195
:100A900081EA030101F0004141F0FE4141F470019F
:100AA0004FF0000070BD41F0FE4141F4780170BD8F
:100AB00070B54FF0FF0C4CF4E06C1CEA11541DBFF4
:100AC0001CEA135594EA0C0F95EA0C0F00F0A7F8F6
:100AD000A4EB050481EA030E52EA03354FEA013123
:100AE00000F088804FEA03334FF0805545EA131336
:100AF00043EA12634FEA022245EA111545EA1065FE
:100B00004FEA00260EF000419D4208BF964244F194
:100B1000FD0404F5407402D25B084FEA3202B61AB3
:100B200065EB03055B084FEA32024FF480104FF487
:100B3000002CB6EB020E75EB030E22BFB61A7546FB
:100B400040EA0C005B084FEA3202B6EB020E75EB8E
:100B5000030E22BFB61A754640EA5C005B084FEAF6
:100B60003202B6EB020E75EB030E22BFB61A7546C3
:100B700040EA9C005B084FEA3202B6EB020E75EBCE
:100B8000030E22BFB61A754640EADC0055EA060E8F
:100B900018D04FEA051545EA16754FEA06164FEAD2
:100BA000C30343EA52734FEAC2025FEA1C1CC0D17E
:100BB00011F4801F0BD141EA00014FF000004FF00B
:100BC000004CB6E711F4801F04BF01430020B4F1CC
:100BD000FD0C88BFBCF5E06F3FF6AFAEB5EB030C84
:100BE00004BFB6EB020C5FEA500C50F1000041EB81
:100BF000045170BD0EF0004E4EEA113114EB5C044E
:100C0000C2BFD4EB0C0541EA045170BD41F4801120
:100C10004FF0000E013C90E645EA060E8DE60CEA28
:100C2000135594EA0C0F08BF95EA0C0F3FF43BAF45
:100C300094EA0C0F0AD150EA01347FF434AF95EAFC
:100C40000C0F7FF425AF104619462CE795EA0C0FE0
:100C500006D152EA03353FF4FDAE1046194622E7AD
:100C600050EA410618BF52EA43067FF4C5AE50EA87
:100C700041047FF40DAF52EA43057FF4EBAE12E777
:100C80004FEA410212F5001215D211D56FF47873B4
:100C9000B3EB625212D94FEAC12343F0004343EA57
:100CA000505311F0004F23FA02F018BF4042704732
:100CB0004FF00000704750EA013005D111F00040BC
:100CC00008BF6FF0004070474FF00000704700BF52
:100CD0004BB942B9002908BF002802D04FF0FF31BC
:100CE000084600F03BB882B0EC462DE9005000F019
:100CF0001DF8DDF804E002B00CBC70472DE970432C
:100D0000069E14461D468046894600F029F804FBDD
:100D100001F300FB0533A4FB00451D44B8EB0404BC
:100D200069EB0505C6E90045BDE870832DE9704310
:100D3000069E1446804689461D4600F05DF900FB7C
:100D400005F504FB0153A0FB04451D44B8EB040466
:100D500069EB0505C6E90045BDE87083704700BF33
:100D600000292DE9F00FC0F29F800024002BC0F273
:100D70009680154606460F46002B3ED18A4257D92B
:100D8000B2FA82F34BB1C3F1200201FA03F720FA61
:100D900002F29D40174300FA03F6290CB7FBF1F26B
:100DA000330C01FB127CA8B243EA0C4700FB02F3B0
:100DB000BB4209D97F1902F1FF3C80F00181BB429F
:100DC00040F2FE80023A2F44FF1AB7FBF1F3B6B2AD
:100DD00001FB137146EA014100FB03F0884208D988
:100DE000491903F1FF3780F0ED80884240F2EA8034
:100DF000023B43EA0242002303E08B420AD900236C
:100E00001A461046194614B1404261EB4101BDE853
:100E1000F00F7047B3FA83F8B8F1000F40F0848008
:100E20008B4202D3824200F2DE8000230122E8E7F7
:100E300012B90123B3FBF2F5B5FA85F2002A39D1D4
:100E40007F1B280C1FFA85FC0123B7FBF0F1320C45
:100E500000FB117742EA07470CFB01F2BA4207D9BF
:100E60007F1901F1FF3802D2BA4200F2C180414637
:100E7000BF1AB7FBF0F2B6B200FB127046EA0040B0
:100E80000CFB02FC844507D9401902F1FF3702D25E
:100E9000844500F2AB803A4642EA0142B1E7E443BE
:100EA000524263EB430364E7404261EB41014FF080
:100EB000FF345BE79540C2F1200327FA03F1280CC9
:100EC00026FA03F39740B1FBF0F81F433B0C00FBFD
:100ED00018111FFA85FC43EA01410CFB08F38B4211
:100EE00006FA02F608D9491908F1FF3279D28B4285
:100EF00077D9A8F102082944C91AB1FBF0F3BFB2AF
:100F000000FB131147EA01470CFB03F2BA4207D971
:100F10007F1903F1FF3160D2BA425ED9023B2F4400
:100F2000BF1A43EA084390E7C8F1200203FA08FC1D
:100F300025FA02F343EA0C0C4FEA1C4921FA02F3AA
:100F400001FA08F720FA02F2B3FBF9F1174309FBA3
:100F500011333A0C1FFA8CFB42EA03430BFB01FAF4
:100F60009A4505FA08F008D913EB0C0301F1FF329A
:100F700035D29A4533D902396344CAEB0303B3FB34
:100F8000F9F209FB1233BFB247EA03470BFB02F940
:100F9000B94508D917EB0C0702F1FF331BD2B9454D
:100FA00019D9023A674442EA0145A5FB0001C9EBA1
:100FB00007078F424FF000030AD305D02A4620E7E7
:100FC000624601E73B4614E706FA08F68642F5D288
:100FD0006A1E002315E71A46E5E70B46A0E711460F
:100FE000CBE7904688E7434642460AE7023A53E792
:100FF00002392F443CE700BF2DE9F00F14460546A7
:101000000E46002B43D18A4253D9B2FA82F757B128
:10101000C7F1200620FA06F601FA07F302FA07F4F0
:101020001E4300FA07F5210CB6FBF1F22B0C01FB75
:101030001267A0B243EA074600FB02F3B34209D9A4
:10104000361902F1FF3780F0F680B34240F2F380A8
:10105000023A2644F61AB6FBF1F3ADB201FB136176
:1010600045EA014100FB03F0884208D9091903F160
:10107000FF3680F0E280884240F2DF80023B43EAA4
:101080000242002310461946BDE8F00F70478B421C
:101090004AD8B3FA83F6002E4DD18B4202D3824256
:1010A00000F2D6800023012210461946BDE8F00F59
:1010B000704712B90124B4FBF2F4B4FA84F2002AA6
:1010C0007CD1091B260CA7B20123B1FBF6F02A0C38
:1010D00006FB101142EA014107FB00F28A4207D9E0
:1010E000091900F1FF3C02D28A4200F2C380604637
:1010F000891AB1FBF6F2ADB206FB121145EA0145C1
:1011000007FB02F7AF4208D92C1902F1FF3180F03A
:101110009680A74240F29380023A42EA004210468B
:101120001946BDE8F00F704700231A4610461946CD
:10113000BDE8F00F7047C6F1200522FA05F4B34070
:101140001C434FEA144821FA05F301FA06F720FA86
:1011500005F5B3FBF8FC2F4308FB1C333D0C1FFACD
:1011600084FA45EA03430AFB0CF9994502FA06FBA7
:1011700004D91B190CF1FF326DD39446C9EB03035C
:10118000B3FBF8F508FB1533BFB247EA03470AFB88
:1011900005F8B84504D93F1905F1FF3361D31D4661
:1011A00045EA0C4CACFB0B23C8EB07079F424FF002
:1011B000000549D345D062462B4663E79440C2F10F
:1011C000200321FA03FC260C20FA03F301FA02F5AE
:1011D000BCFBF6F843EA05010B0C06FB18CCA7B2E2
:1011E00043EA0C4C07FB08F3634500FA02F509D902
:1011F0001CEB040C08F1FF323AD2634538D9A8F150
:101200000208A444C3EB0C0CBCFBF6F389B206FB4A
:1012100013CC41EA0C4107FB03F28A4207D90919B2
:1012200003F1FF3022D28A4220D9023B2144891A9D
:1012300043EA084349E73A460CE733461FE70A46C4
:101240006BE7B0409042B6D20CF1FF32002319E7B1
:101250003346324616E799458FD9ACF1020C234448
:101260008CE7B8459BD9023D274499E70346DEE762
:101270009046C7E7023821443AE700BF80B483B004
:1012800000AF78607B68033303F104735B010C33B8
:1012900001221A700C37BD465DF8047B704700BF11
:1012A00080B483B000AF78607B68033303F10473CC
:1012B0005B01083301221A700C37BD465DF8047BD0
:1012C000704700BF80B483B000AF78600B46FB70FE
:1012D0007B68023303F104735B011033FA781A70F0
:1012E0000C37BD465DF8047B704700BF80B483B007
:1012F00000AF78600B46FB707B6803F104735B0101
:101300001433FA781A700C37BD465DF8047B7047C9
:10131000B0B58CB000AFF860B9601346FB712A4BD2
:101320001B78002B01D003234AE0274BFA791A706F
:10133000FB68DAB2244B5A70FB79102B3FD1234B58
:1013400007F110041D460FCD0FC495E8030084E893
:101350000300FB689B0007F13002134453F8203C64
:10136000FB62194BFA6A5A60F86804F0C1FFF8682A
:1013700004F069FFB862F86AB96ABA6803F094FACF
:10138000F86A0021FFF79EFFF86A002103F0ADFA2A
:10139000F86A0021FFF7AAFFF86AFFF76FFFF86A03
:1013A000FFF77EFF084B0A4A9A60074B094ADA604A
:1013B00000BFFB68DAB2044B5A70002300E001233F
:1013C00018463037BD46B0BDE400FF1F1C8C00003E
:1013D0000D4900002F49000080B584B000AFF860CF
:1013E000B9607A60BB68002B02D14FF0FF3318E080
:1013F000FB68012B05D0FB68022B02D04FF0FF33B6
:101400000FE00A4B1B78002B02D14FF0FF3308E0AE
:10141000064B9B68054A51687A680846B968984740
:101420007B6818461037BD4680BD00BFE400FF1F33
:1014300080B584B000AFF860B9607A60FB68002BBB
:1014400002D04FF0FF330FE0094B1B78002B02D185
:101450004FF0FF3308E0064BDB68054A51687A68B5
:101460000846B96898477B6818461037BD4680BD66
:10147000E400FF1F0FB480B584B002AF0D4B1B78A2
:10148000002B02D14FF0FF330DE007F114033B6056
:101490003B680093002008494FF0FF323B6900F0A1
:1014A0002DF878607B6818460837BD46BDE8804057
:1014B00004B07047E400FF1FBD14000080B584B085
:1014C00000AF786039607B68DBB2FB730A4B1B7836
:1014D000002B02D14FF0FF330AE0074B9B68064A0E
:1014E000516807F10F020846114601229847002370
:1014F00018461037BD4680BDE400FF1F80B5A4B07C
:1015000004AFF860B9607A603B600023FB617B68E0
:101510003B657B68B3F1FF3F01D1B04B7B603B681B
:10152000FB6782E3FB6C252B07D0BB68F86CF9687E
:101530009847FB690133FB6174E3012387F85B3053
:101540000023FB6600233B674DE0FB6F0133FB6725
:10155000FB6F1B785BB2203B102B3ED801A252F8E8
:1015600023F000BFBD150000DB150000DB150000F7
:10157000D1150000DB150000DB150000DB150000B5
:10158000DB150000DB150000DB150000DB1500009B
:10159000B3150000DB150000A9150000DB150000E5
:1015A000DB150000C7150000FB6E43F00103FB666E
:1015B00019E0FB6E43F00203FB6614E0FB6E43F0A0
:1015C0000403FB660FE0FB6E43F00803FB660AE0D2
:1015D000FB6E43F01003FB6605E0FB6F013BFB670E
:1015E00001233B6700BF3B6F002BAED00023BB66DF
:1015F00000233B671BE0FB6F0133FB67FB6F1B782E
:101600005BB2FB64FB6C303B092B0AD8BA6E134605
:101610009B0013445B001A46FB6C1344303BBB66D3
:1016200005E0FB6F013BFB6701233B6700BF3B6F9E
:10163000002BE0D006237B65FB6F0133FB67FB6F5C
:101640001B785BB22E2B24D100237B6500233B67E4
:101650001BE0FB6F0133FB67FB6F1B785BB2FB6426
:10166000FB6C303B092B0AD87A6D13469B00134460
:101670005B001A46FB6C1344303B7B6505E0FB6F57
:10168000013BFB6701233B6700BF3B6F002BE0D0B2
:1016900002E0FB6F013BFB67FB6F0133FB67FB6FF6
:1016A0001B785BB2682B04D06C2B0FD04C2B1ED058
:1016B00019E0FB6F0133FB67FB6F1B785BB2682B94
:1016C00003D0FB6F013BFB6712E011E0FB6F0133BE
:1016D000FB67FB6F1B785BB26C2B03D0FB6F013B8E
:1016E000FB6705E004E0FB6F013BFB6700E000BF28
:1016F000FB6F0133FB67FB6F1B785BB2FB64FB6C1A
:10170000583B202B00F2868201A252F823F000BF42
:10171000B7180000151C0000151C0000151C000067
:10172000151C0000151C0000151C0000151C0000F5
:10173000151C0000151C00001B1A00004F1B0000A8
:1017400095170000151C0000151C0000151C00005A
:10175000151C000095170000151C0000151C00004A
:10176000151C0000151C0000FF1B0000EF190000F5
:10177000471A0000151C0000151C0000711B00001A
:10178000151C0000811A0000151C0000151C00002B
:10179000B1180000D7F888301A1DC7F888201B68D8
:1017A000BB6107F1200207F1180397F85B10009165
:1017B0001046194601220A2300F04AFA786707F119
:1017C00020027B6F1344BB67BB69002B08DA2D2313
:1017D0007B667B6F01337B671AE000BFFEFFFF7FF4
:1017E000FB6E03F00203002B05D02B237B667B6F7F
:1017F00001337B670CE0FB6E03F00403002B05D084
:1018000020237B667B6F01337B6701E000237B66CF
:1018100000233B66FB6E03F00803002B1BD07B6E9E
:10182000002B06D0BB68786EF9689847FB690133D6
:10183000FB6101233B66BA6E07F11C03B968009196
:10184000F9680191391D02913020796F00F088FA12
:10185000BB6E7B671DE0FB6E03F00103002B18D10C
:10186000BA6E07F11C03B9680091F9680191391D3E
:1018700002912020796F00F073FA7B6E002B06D066
:10188000BB68786EF9689847FB690133FB610123F7
:101890003B663B6E002B0AD17B6E002B07D0BB68EA
:1018A000786EF9689847FB690133FB612AE129E109
:1018B000002387F85B30D7F888301A1DC7F88820D6
:1018C0001B687B6107F1200207F1140397F85B1096
:1018D0000091104619460022102300F0B9F97867EC
:1018E00007F120027B6F1344BB6700233B66FB6E4E
:1018F00003F00803002B28D0FB6E03F01003002B2D
:1019000013D0BB683020F968984797F85B30002BFC
:1019100001D0582300E07823BA681846F968904748
:10192000FB690233FB6101233B66BA6E07F11C03BE
:10193000B9680091F9680191391D02913020796FE1
:1019400000F00EFABB6E7B6732E0FB6E03F0010322
:10195000002B2DD1FB6E03F01003002B02D07B6F08
:1019600002337B67BA6E07F11C03B9680091F9680E
:101970000191391D02912020796F00F0F1F9FB6E81
:1019800003F01003002B13D0BB683020F968984790
:1019900097F85B30002B01D0582300E07823BA6819
:1019A0001846F9689047FB690233FB6101233B66E7
:1019B000FB6E03F01003002B18D03B6E002B15D1EB
:1019C000BB683020F968984797F85B30002B01D04E
:1019D000582300E07823BA681846F9689047FB69F5
:1019E0000233FB617B6F02337B678BE08AE0D7F8C1
:1019F00088301A1DC7F888201B687B6107F1200218
:101A000007F1140397F85B10009110461946002265
:101A1000082300F01DF9786747E0D7F888301A1DD1
:101A2000C7F888201B687B6107F1200207F11403C7
:101A300097F85B100091104619460022022300F02F
:101A400007F9786731E0D7F888301A1DC7F8882081
:101A50001B687B61D7F888301A1DC7F888201B687F
:101A60007B6107F1200207F1140397F85B100091E6
:101A7000104619460022102300F0EAF8786714E0B7
:101A8000D7F888301A1DC7F888201B687B6107F1DA
:101A9000200207F1140397F85B10009110461946D5
:101AA00000220A2300F0D4F8786707F120027B6F48
:101AB0001344BB67FB6E03F00803002B0FD0BA6E14
:101AC00007F11C03B9680091F9680191391D029171
:101AD0003020796F00F044F9BB6E7B6712E0FB6E3B
:101AE00003F00103002B0DD1BA6E07F11C03B96896
:101AF0000091F9680191391D02912020796F00F061
:101B00002FF90CE00BE0BB6F5A1EBA671B785AB274
:101B1000BB681046F9689847FB690133FB61BB6FEE
:101B20001B78002BEFD1FB6E03F00103002B0DD0CF
:101B3000BA6E07F11C03B9680091F9680191391D6B
:101B400002912020796F00F00BF96BE06AE0D7F882
:101B500088301A1DC7F888201B68DBB25BB2BB64F3
:101B6000BB68B86CF9689847FB690133FB6159E0C1
:101B7000D7F888301A1DC7F888201B68FB65FB6DF5
:101B8000002B3BD0F86D06F0C1F903467B67FB6E76
:101B900003F00103002B0DD1BA6E07F11C03B968E5
:101BA0000091F9680191391D02912020796F00F0B0
:101BB000D7F80CE00BE0FB6D5A1CFA651B785AB2A3
:101BC000BB681046F9689847FB690133FB61FB6D00
:101BD0001B78002BEFD1FB6E03F00103002B0DD01F
:101BE000BA6E07F11C03B9680091F9680191391DBB
:101BF00002912020796F00F0B3F813E012E0D7F8DB
:101C000088301A1DC7F888201B687B64FA697B6CD2
:101C10001A6007E0BB68F86CF9689847FB69013304
:101C2000FB6100BFFB6F0133FB67FB6F1B785BB28F
:101C3000FB64FB6C002B7FF475AC7B68002B01D040
:101C4000FB6900E03B6D18468037BD4680BD00BF94
:101C500080B48DB000AFF860B9607A603B6000235B
:101C6000FB61FB68BB61BB695A1CBA6100221A7038
:101C70007B68002B33D0BB681B68FB62FB6A002BC0
:101C800006D1BB6930221A70FB690133FB6160E049
:101C900021E0FA6A3B6892FBF3F37B617B693A6867
:101CA00002FB03F3FA6AD31ABB62BB6A002B04DAA5
:101CB000BB6AC3F13003BB6202E0BB6A3033BB6274
:101CC0007B69FB62BB695A1CBA61BA6AD2B21A70EC
:101CD000FB690133FB61FB6A002BDAD139E0BB6899
:101CE0001B687B627B6A002B06D1BB6930221A70AD
:101CF000FB690133FB612CE028E03B687A6AB2FBA8
:101D0000F3F33B613B683A6902FB03F37A6AD31A47
:101D10003B623B6A092B03D83B6A30333B620AE0E3
:101D200097F83830002B01D0412300E061233A6A54
:101D300013440A3B3B623B697B62BB695A1CBA6134
:101D40003A6AD2B21A70FB690133FB617B6A002BDD
:101D5000D3D1FB6918463437BD465DF8047B704724
:101D600080B586B000AFF860B9607A603B60BB6850
:101D70007B610EE0FB68DBB25AB23B6A1046796ABF
:101D800098473B681B685A1C3B681A607B690133A3
:101D90007B617A697B689A42ECDB1837BD4680BD6F
:101DA00003689B78DBB203F00302022A08D003F039
:101DB000C003802B0CBF022304230B70002070474C
:101DC00001230B70002070470023036183611846D4
:101DD000704700BF80B584B000AFF860B9601346AB
:101DE000FB71BB681F2B05D90D48FF210D4A0E4B17
:101DF00005F0EAFEFB68BA6853F8223023F08073DE
:101E000023F4E063FA79120202F4E06243EA020189
:101E1000FB68BA6843F822101037BD4680BD00BF8A
:101E2000348C0000049500006C8C000080B483B0FA
:101E300000AF78600B46FB707B68FA781A700C373D
:101E4000BD465DF8047B704780B584B000AF3B466B
:101E500000221A60043300221A60043300221A6040
:101E6000043300221A600433054B3B6002237B726B
:101E70003B460020194604F013FB1037BD4680BDD9
:101E800080F0FA0280B584B000AF064A3B1D07CA55
:101E900083E807003B1D0020194604F04DFB103776
:101EA000BD4680BD788C000080B500AF08482A216F
:101EB000FFF7BCFF074812210022FFF78BFFFFF757
:101EC000C3FFFFF7DFFF044804F02CF980BD00BF1B
:101ED00000E0074000900440EC94000080B500AFA3
:101EE000002000F0E1F800204FF4E1311022FFF76C
:101EF0000FFA80BD80B584B000AFF860B9601346BA
:101F0000FB71BB681F2B05D90948D921094A0A4B27
:101F100005F05AFEBB689B00FA68134403F1047392
:101F20005B011433FA791A601037BD4680BD00BFDB
:101F3000848C00008C950000BC8C000080B584B0BF
:101F400000AFF860B9601346FB71BB681F2B05D961
:101F50000D48FF210D4A0E4B05F036FEFB68BA68AE
:101F600053F8223023F0807323F4E063FA791202ED
:101F700002F4E06243EA0201FB68BA6843F8221007
:101F80001037BD4680BD00BF848C000078950000EE
:101F9000BC8C000080B582B000AF78600648132189
:101FA0000222FFF7CBFF044812210222FFF7C6FFEF
:101FB0000837BD4680BD00BF00A0044080B582B098
:101FC00000AF78607B68002B02D0012B15D029E090
:101FD000164818210522FFF7B1FF144818210122E5
:101FE000FFF788FF114819210522FFF7A7FF0F48C7
:101FF00019210122FFF77EFF14E00D480A21022279
:10200000FFF79CFF0A480A210122FFF773FF0848E7
:102010000B210222FFF792FF05480B210122FFF757
:1020200069FF00BF0837BD4680BD00BF00D0044037
:1020300000B0044080B582B000AF78607B68002BB0
:1020400002D0012B15D029E0164800210222FFF70B
:1020500075FF144803210222FFF770FF1148012188
:102060000222FFF76BFF0F4802210222FFF766FFF3
:1020700014E00C4804210722FFF760FF09480721FC
:102080000722FFF75BFF074805210722FFF756FFEE
:10209000044806210722FFF751FF00BF0837BD465D
:1020A00080BD00BF00C0044080B582B000AF786042
:1020B0007B68002B02D0042B0BD015E00C481021BC
:1020C0000322FFF73BFF0A4811210322FFF736FFE7
:1020D0000AE008480E210322FFF730FF05480F21D0
:1020E0000322FFF72BFF00BF0837BD4680BD00BFAE
:1020F00000A0044000B0044084B080B588B000AFB8
:1021000007F1280C8CE80F00052004F027FB07F1ED
:10211000080307F12800194600F0A4F93B7A1B02D6
:102120009AB27B7A1343FB83BB7A1B029AB2FB7A87
:102130001343BB83B7F91E301846FEF729FB02464E
:102140000B46104619462BA3D3E90023FEF786FB66
:1021500002460B4610461946FEF792FD03469BB217
:102160001BB2002BB8BF5B427B83B7F91C3018460B
:10217000FEF70EFB02460B46104619461DA3D3E997
:102180000023FEF76BFB02460B4610461946FEF78E
:1021900077FD03469BB21BB2002BB8BF5B423B836B
:1021A000B7F91A20B7F91830114811461A46FFF747
:1021B00061F97B8BDBB23B713B8BDBB27B713B7993
:1021C0001A467B790A4811461A46FFF753F9BB882D
:1021D000BB8200233A7D62F307037A7D62F30F230B
:1021E00018462037BD46BDE8804004B0704700BFA8
:1021F000C88C0000BA490C022B87863FAFF30080E1
:1022000080B582B000AF786039603C4B1B68002B12
:102210000BD1786800F074F8384B1B685A1C374BA8
:102220001A603B68002B26D101E0022362E0786847
:102230002B21402200F084F84FF4FA7004F08EFA5B
:1022400078682A210122FE2300F0D6F878685B2105
:102250005F2200F075F878685C21202200F070F8A9
:1022600078680E21012200F06BF878682A210D228F
:1022700000F066F83DE03B681B78072B0BD83B6805
:102280001B7878682A21382200F0B6F83B685B7822
:10229000072B0ED801E002232CE03B685B787868BE
:1022A0005B211C2200F0A8F83B689B78022B0ED81B
:1022B00001E002231EE03B689B7878685B210322E3
:1022C00000F09AF83B68DB78022B10D801E002237B
:1022D00010E03B68DB7878680E21032200F08CF870
:1022E00078682A210122012300F086F801E0022308
:1022F00000E0002318460837BD4680BDF400FF1FEC
:1023000080B582B000AF78607B681A687B680C3358
:102310001046194602F06CFE7B6864229A607B6866
:102320001D229A807B681A687B6804331046194620
:1023300002F0CAFE002318460837BD4680BD00BF24
:1023400080B58AB004AF786013460A46FA70BB7055
:102350007B6804337B610023FB74FB783B74BB78A0
:102360003B737B681A6807F1100307F10C010091B9
:102370000121019164210291104679691A460123D5
:1023800002F0D0FF0346FB74FB7C002B01D001233D
:1023900000E0002318461837BD4680BD80B58CB0DC
:1023A00004AFF8600B467A60FB72FB680433FB6194
:1023B0000023FB76FB7A3B76FB681A6807F118036B
:1023C00007F114010091012101916421029110464D
:1023D000F9691A46012302F0B2FF0346FB76FB7E41
:1023E000002B01D0012303E03A7D7B681A700023A3
:1023F00018462037BD4680BD80B584B000AF7860F8
:10240000F970BA707B700023FB73FA7807F10E0342
:10241000786811461A46FFF7C1FF0346FB73FB7B42
:10242000002B01D0022318E0BA7BBB781340DBB24B
:10243000BB73BA7B7B781343DBB2BB73BB7BFA788D
:10244000786811461A46FFF77BFF0346FB73FB7B58
:10245000002B01D0022300E0002318461037BD46B0
:1024600080BD00BF80B588B004AF786039607B68FC
:102470000433FB600023FB7201233B727B681A6804
:1024800007F10803396800910C2101916421029140
:102490001046F9681A46012302F051FF0346FB7209
:1024A000FB7A002B01D0012300E0002318461037EF
:1024B000BD4680BD80B500AF002002F09DFF80BD0D
:1024C00080B586B000AFF860B9607A603B6007F114
:1024D00014031846396A7A6A00F074F80346002B30
:1024E00001D1002319E07B69DAB27B681A707B693D
:1024F0001B0ADAB2BB681A707B691B0C9BB2C3F370
:1025000008039AB2FB681A807B699B0EDBB203F06A
:102510000703DAB23B681A7001235BB2184618371A
:10252000BD4680BD80B584B000AFF88079713A7146
:10253000FB70FB789A06FB881B041A437B791B020D
:102540001A433B791343FB603B7EF8681946FA69EE
:1025500000F00CF80346002B01D1002300E001231A
:102560005BB218461037BD4680BD00BF80B586B04F
:1025700000AFF8600B467A60FB720023FB750F4BCF
:1025800000221A700CE0FB7AF86819467A68012379
:1025900000F0E8FB0346002B02D10123FB7503E0AA
:1025A000064B1B78002BEED0054B00221A70FB7DEA
:1025B0005BB218461837BD4680BD00BFD903FF1F68
:1025C0003004FF1F80B590B000AFF860B9607A604A
:1025D0001E4B1B78DBB25BB2002B01DA002330E02C
:1025E00007F1340107F1140207F13B03F86800F02A
:1025F0003DFC0346002B23D097F83B3003F001034A
:10260000002B01D100231CE00023FB630EE0FB6BD9
:102610007A681A44FB6B9B0007F140010B4453F8A6
:102620002C3CDBB21370FB6B0133FB63FA6B7B6BEF
:102630009A42ECD37B6BDAB2BB681A70012300E0DC
:1026400000235BB218464037BD4680BD4804FF1FDB
:1026500080B400AF00231846BD465DF8047B704788
:1026600080B400AF00231846BD465DF8047B704778
:1026700080B400AF00231846BD465DF8047B704768
:1026800080B582B000AF0346FB71FB791133DBB23A
:10269000184600F0A5FE034618460837BD4680BD23
:1026A00080B582B000AF0346FB71FB790433184656
:1026B00000F0EAF90346DBB218460837BD4680BD94
:1026C00080B483B000AF02460B46FA71BB71FB7950
:1026D00004339B00034AB979D1540C37BD465DF8E9
:1026E000047B7047C402FF1F80B582B000AF034671
:1026F000FB71FB790933184600F0C6F90346DBB2DB
:1027000018460837BD4680BD80B400AF0023184688
:10271000BD465DF8047B704780B400AF08231846BF
:10272000BD465DF8047B704780B400AF01231846B6
:10273000BD465DF8047B704780B483B000AF0346AC
:10274000FB71FB79034AD35C18460C37BD465DF834
:10275000047B7047C095000080B500AF012000F0F9
:1027600093F90346DBB2184680BD00BF80B483B046
:1027700000AF0346FB71044BFA791A710C37BD4662
:102780005DF8047B704700BFC402FF1F80B500AF37
:10279000022000F079F90346DBB2184680BD00BF85
:1027A00080B483B000AF0346FB71044BFA791A7210
:1027B0000C37BD465DF8047B704700BFC402FF1FA5
:1027C00080B483B000AF0346FB71044BFA791A73EF
:1027D0000C37BD465DF8047B704700BFC402FF1F85
:1027E000F0B58BB008AF1B4B1B78032B2ED11A4EC4
:1027F0006C4606F110050FCD0FC495E80F0084E874
:102800000F0096E80F00FFF777FC0346BB803B798B
:102810001A467B79114811461A46FEF72BFE104BDB
:1028200083221A700E4B07225A700D4B0A225A80CF
:102830000B4B1E221A710A4B00225A713A79084B2F
:102840009A717A79064BDA7101F046FF0C37BD4672
:10285000F0BD00BF5804FF1FA003FF1FDC8C000069
:102860003004FF1F80B485B000AF0346FB71002326
:10287000FB73FB7B18461437BD465DF8047B70473D
:1028800080B485B000AF02460B46FA71BB71BB79CC
:10289000DB43FB73044B1B88002B002318461437C3
:1028A000BD465DF8047B70475C04FF1F80B485B0B3
:1028B00000AF78600023FB7307E0FB7B7A6813446A
:1028C00000221A70FB7B0133FB73FB7B072BF4D9CF
:1028D0001437BD465DF8047B704700BF80B483B0F9
:1028E00000AF0346FB7100BF0C37BD465DF8047BAB
:1028F000704700BF80B400AF00231846BD465DF8A6
:10290000047B704780B400AF00231846BD465DF8D5
:10291000047B704780B400AF00231846BD465DF8C5
:10292000047B704780B400AF00231846BD465DF8B5
:10293000047B704780B500AF00F00AF800F002F8A1
:1029400000BF80BD80B400AFBD465DF8047B70471A
:1029500080B400AFBD465DF8047B704780B582B09F
:1029600000AF0023FB703948FFF72EFA78607B68D0
:10297000002B01D000F098F8354805F0AFFA354843
:1029800005F034FA34484FF480614FF4801205F0BA
:102990002DFA324804214FF4805205F027FA2B4BD0
:1029A0001B69002B11D0294B1B699B0A1A46274B28
:1029B0001B692B4811461A4605F018FA234BDB68B1
:1029C0002848194605F012FA02E0274805F00EFAE9
:1029D0001E4B9B69002B11D01C4B9B699B0A1A460E
:1029E0001A4B9B69214811461A4605F0FFF9174B0F
:1029F0005B691F48194605F0F9F902E01D4805F02A
:102A0000F5F9FB1C11481946FFF7CAF978607B6895
:102A1000002B01D000F048F8FB78022B08D0042BE3
:102A20000AD0012B00D00BE0134805F0DFF907E0D6
:102A3000124805F0DBF903E0114805F0D7F900BFB3
:102A4000104805F0D3F90837BD4680BD2400FF1FAC
:102A5000F08C00000C8D0000248D00004C8D0000D7
:102A6000788D0000A08D0000C48D0000F88D00005E
:102A7000308E00005C8E0000948E0000AC8E000052
:102A8000D88E0000048F000080B483B000AF78605F
:102A90007B689A004FF47A2313441B6818460C375E
:102AA000BD465DF8047B704780B500AF014805F076
:102AB0009DF9FEE7F48F000080B483B000AF78602A
:102AC0007B68043303F104735B0134331B68002B10
:102AD0000CBF00230123DBB218460C37BD465DF85E
:102AE000047B704780B5B2B000AF714B00221A6012
:102AF000704B10221A606F4B00221A716D4B00222E
:102B00005A716C4B00229A716B4B08221A606B4B06
:102B100009221A606A4B4FF492721A60694B4FF4A3
:102B200091721A60684B07F164011A4664230846E3
:102B300011461A4605F0B0F8644B39461A4664232C
:102B4000084611461A4605F0A7F8614B1B6818465F
:102B50006049584A02F08AFE03461A465E4B1A60E4
:102B60005D4B1B68002B0AD0514B1B685A1C504B05
:102B70001A60594B1B685948194605F037F9544BF0
:102B80001A68574B53F822301846FFF795FF034653
:102B9000002B07D00020012103F050FB0246514BCF
:102BA0001A6006E00020002103F048FB02464D4B6E
:102BB0001A604C4B1B684C4A934210D04B4A9342CC
:102BC0001AD1434B1B68DAB207F164031046194669
:102BD00002F0D8FD03461A463F4B1A6012E03C4B08
:102BE0001B68DAB23B461046194602F0CBFD03469D
:102BF0001A46394B1A6005E03A4B1B683C481946A7
:102C000005F0F4F8344B1B68002B0AD0284B1B68E6
:102C10005A1C274B1A60304B1B683648194605F082
:102C2000E5F82B4B1B68DBB21846002102F0C2FD11
:102C3000274B1B68DBB2184601214FF4927202F059
:102C4000CFFD03461A46244B1A60234B1B68002B0A
:102C50000AD0174B1B685A1C154B1A601E4B1B6879
:102C60002548194605F0C2F8194B1B68DAB2124B19
:102C70001B68104601211A4640F2231302F0D2FDD0
:102C800003461A46144B1A60134B1B68002B0AD0DC
:102C9000074B1B685A1C064B1A600F4B1B681748E2
:102CA000194605F0A3F800F02BF8C837BD4680BDE3
:102CB0009403FF1F4403FF1F9803FF1F5403FF1FCC
:102CC0009C03FF1F4C03FF1F24910000889100000C
:102CD000F800FF1F6803FF1F6403FF1F2090000020
:102CE000CC9B00005C03FF1F006CDC020087930399
:102CF0004890000080900000AC900000DC90000044
:102D000080B584B000AF01233B710823BB600F483E
:102D100005F0E4F80E4B1B68D8B20E4B19680E4B49
:102D20001B683A1D02F088FE0346FB60FB68002B1F
:102D300008D00A4B1B685A1C084B1A600848F968EF
:102D400005F054F81037BD4680BD00BFEC9100007F
:102D5000F800FF1F9803FF1F9C03FF1F9403FF1F32
:102D60000892000090B58BB002AFF8607A600A4616
:102D7000FA72BB72334BFA681A60BB7A012B02D12C
:102D800001233B740AE0BB7A002B02D100233B7481
:102D900004E02D4805F02AF800233B74FB7A7B61A0
:102DA0002A4B1B68D8B22A4B1968264B1B6807F1BF
:102DB000100202F0CDFD0346FB61FB69002B04D03D
:102DC0002448F96905F012F836E0204B1B68D8B2A8
:102DD0001F4B19681B4B1B6807F110027C6800949D
:102DE0004FF47A74019402F0DBFD0346FB61FB694A
:102DF000002B09D0184B1B685A1C174B1A60174838
:102E0000F96904F0F3FF17E0154805F067F80023AF
:102E1000BB610AE07A68BB6913441B781148194604
:102E200004F0E4FFBB690133BB617A69BB699A4274
:102E3000F0D80D4805F052F8FB6918462437BD4616
:102E400090BD00BF4C03FF1FB8920000F800FF1FA9
:102E50005403FF1FF49200009403FF1F249300000B
:102E60005C930000A49200007093000080B58CB0C9
:102E700000AFF860B9607A603B60274B1B68D9B23D
:102E8000264B1A6807F11403084611461A4602F049
:102E90000FFE0346FB6200BF1F4B1B68184602F083
:102EA000B1FE0346002BF7D1FB6A002B09D01C4B67
:102EB0001B685A1C1A4B1A601A48F96A04F096FFEC
:102EC00026E0BA69FB681A607B691B0C03F00F02ED
:102ED000BB681A607B695B0DDBB203F00103DAB2F9
:102EE0003B681A700023FB620CE0FB6A9B007A6867
:102EF000134407F11C01FA6A0A4412781A60FB6A4B
:102F00000133FB62BB681A68FB6A9A42EDD8012361
:102F100018463037BD4680BDF800FF1F9803FF1FDD
:102F20009403FF1F4092000080B582B000AF78602C
:102F300039603B68032B06D908484FF49C71084A56
:102F4000084B04F041FE7A683B681B01134403F50B
:102F5000847301225A600837BD4680BD7493000017
:102F6000A8950000AC93000080B500AF204B1B6813
:102F700018460021FFF7D8FF1E4B1B68184602F0C9
:102F800021FB1D4B1B889BB201339AB21A4B1A804E
:102F90001A4B1B889BB201339AB2184B1A80184BFC
:102FA0001B685A1C164B1A60164B1B78DBB2013398
:102FB000DAB2144B1A70134B1B78DBB2642B0CD9AA
:102FC000114B1B78022B08D1104B1B68184602F0DE
:102FD000F9FA0C4B00221A7009E00B4B1B78012BFD
:102FE00005D10A4B1B681846002102F0DFFA80BDAC
:102FF00034970000489500005E04FF1F4604FF1F41
:10300000FC00FF1F4204FF1F4304FF1F1895000030
:1030100080B500AF044B1B6818460121FFF784FF01
:10302000024B01225A7080BD349700000001FF1F3F
:1030300080B500AF002001F0C1FE80BD80B500AFBB
:10304000002002F057FD80BD80B500AF002002F0E7
:1030500051FD80BD80B500AF002002F04BFD80BD6A
:1030600080B500AF002002F045FD80BD80B500AF07
:10307000002001F04DFD80BD80B500AF012001F0C2
:1030800047FD80BD80B500AF022001F041FD80BD4D
:1030900080B500AF032001F03BFD80BD80B500AFDF
:1030A000042001F035FD80BD80B500AF052001F0A2
:1030B0002FFD80BD80B500AF002002F0F9FF80BD7C
:1030C00080B500AF012002F0F3FF80BD80B500AFF6
:1030D000022002F0EDFF80BD80B500AF002003F0BC
:1030E000BFF8012003F0BCF8032003F0B9F8042076
:1030F00003F0B6F8FEF7D8FEFEF7F0FE0020FEF76C
:1031000099FF0020FEF75AFF0020FEF743FF00F072
:1031100019F9FFF7E7FC0D4B00221A600B4800215C
:10312000FFF76EF80A4802F009FA0A4802F006FAB8
:10313000094802F091F9094802F000FA054B9B6931
:103140001846002102F032FA80BD00BFA003FF1F25
:1031500018950000489500000000FF1F60950000D2
:1031600080B582B000AF3B4683E803000020002119
:1031700001F062FD3B46002000211A4601F0D2FD1D
:103180000448FEF777F90020002101F07FFD0837A1
:10319000BD4680BDD493000080B584B000AF00234D
:1031A000FB60504A3B1D92E8030083E803004E4B4E
:1031B00003221A70FFF790FF3B1D93E80300FFF70F
:1031C000CFFF03F0D9FA494B02221A7000F0E8F958
:1031D0000346002B05D1FFF7C1FBFFF7B9FBFFF753
:1031E000B1FB00F06DF9424804F078FE414B00223B
:1031F0001A7001F0A1FA404B1B68FA689A4204D099
:103200003D4B1B68FB60FFF7EBFA374B1B78042B39
:1032100031D801A252F823F02D32000049320000CB
:103220004F3200005532000071320000334B1B78E2
:10323000FF2B03D12C4B01221A7020E02A4B0322D2
:103240001A7000F08FFA1AE000F0CEF917E000F0E3
:1032500089FA14E0274B1B78DBB25BB2002B06DA4D
:10326000244B5B88002B02D100F034FD07E006E020
:1032700000F0AEF903E01C4B00221A7000BF204B97
:103280001B68B3F57A7F0AD91D4B00221A601D4BCB
:103290001B780133DAB21B4B1A7000F043FB1A4B58
:1032A0001B783B2B1DD9184B00221A70174B1B782B
:1032B0000133DAB2154B1A70144B1B783B2B08D92B
:1032C000124B00221A70124B1B780133DAB2104BEA
:1032D0001A700F4B1B78172B03D90D4B00221A7055
:1032E00084E783E7F89300005804FF1F4304FF1F9F
:1032F000F09300004804FF1FFC00FF1F5A04FF1F4B
:10330000DC03FF1FD903FF1FD803FF1FE003FF1FCC
:10331000E103FF1F80B500AF40F2062002F06EF916
:10332000014B01221A7080BD4304FF1F80B500AF1E
:10333000042002F063F9024804F0D0FD80BD00BF14
:103340000094000080B500AF1C4B08225A601B4B54
:1033500000225A72194B00221A72184B00229A72DC
:1033600000201749174A02F019FD03461A46164B6A
:103370001A70154B1B78002B02D0144804F0AEFDD8
:103380000E4B134A1A6000200C49124A02F078FDD5
:1033900003461A460C4B1A700B4B1B78002B06D0B9
:1033A000094B1B780C48194604F020FD05E0094B39
:1033B0001B680A48194604F019FD80BD2004FF1F50
:1033C000E403FF1F4800FF1F2C04FF1F1894000098
:1033D00040420F001C04FF1F449400007094000042
:1033E00080B588B002AF0346FB7100233B82002307
:1033F000BB740023BB810023BB7303233B74FB79A5
:103400007B742A4804F06AFD00237B610BE007F11E
:1034100010027B6913441B782548194604F0E6FC2A
:103420007B6901337B617B69022BF0D9214804F071
:1034300055FD07F1100207F10C030321009141F241
:10344000883101910020002102F0A6FD0346FB74A3
:10345000FB7C002B04D0FB7C1748194604F0C6FC0B
:10346000164804F03BFD00237B6113E07B6903F009
:103470000F03002B02D10F4804F030FD07F10C02BE
:103480007B6913441B780A48194604F0AFFC7B693A
:1034900001337B617B69022BE8D9064804F01EFDED
:1034A000BB7B18461837BD4680BD00BFD4940000D2
:1034B000CC940000C894000090940000B4940000E4
:1034C00080B500AF264B02221A70FFF745F903467C
:1034D0001A46244B1A70234B1B78002B02D1214B28
:1034E000FF221A70204B00221A701F4B00225A70C4
:1034F0001D4B00225A801C4B00221A711B4B0022CC
:103500001A701A4B00225A70184B00225A80174B1F
:1035100000221A71164B00221A70164B00221A70E4
:10352000154B00221A70154B00221A70144B002202
:103530001A70144B00221A70134B00221A80134B7E
:1035400000221A80124B00221A80124B00221A709D
:10355000114B00221A70114B00221A7080BD00BF5F
:103560004304FF1F5A04FF1F4804FF1F3004FF1FBE
:103570004504FF1F5904FF1F3F04FF1F5804FF1F8E
:103580003E04FF1F6004FF1F5C04FF1F5E04FF1F5B
:103590004604FF1F5704FF1F4004FF1F4404FF1F82
:1035A00080B500AFFFF7F2F8034603F0C003402BED
:1035B00001D1012309E0FF20FFF7D8F80020FFF731
:1035C000EFF8A020FFF7FCF800235BB2184680BD9F
:1035D00080B400AF034B00221A70BD465DF8047B37
:1035E000704700BF4304FF1F80B500AF554B1B78E9
:1035F000012B37D0022B00F0A080002B40F09980E7
:10360000514B1B78FF2B18D0504B81221A704F4B17
:1036100000225A704D4B00225A804C4B02221A71E4
:10362000494B1A78494B5A7101F056F8454B012223
:103630001A70474B00221A8080E0464B04221A7011
:10364000424B81221A70414BFF225A713F4B072295
:103650005A703E4B00225A803C4B03221A7101F0F3
:103660003BF86BE03C4B1B78DBB25BB2002B1FDA04
:10367000394B5B88002B5BD1374B1B79032B57D120
:10368000314B1B78002B06D1324B02221A70304B83
:1036900000221A804CE02C4B1B780133DAB22A4B03
:1036A0001A70284B00221A702C4B00221A7045E029
:1036B000274B1B889BB2B3F57A7F39D9274B1B78F0
:1036C0000133DAB2254B1A70244B1B78022B2BD90D
:1036D0001D4B1B78002B0FD11B4B1B780133DAB22B
:1036E000194B1A70174B00221A70194B00221A80BE
:1036F0001A4B00221A701BE0134B1A78184B1A70E1
:10370000144B03221A700F4B00221A70144B1B78B3
:103710001846FFF72BF84020FFF742F80F4B002226
:103720001A7000F01FF809E0064B00221A7005E03D
:1037300004E0044B00221A7000E000BF064B002298
:103740001A7080BD3E04FF1F3F04FF1F3004FF1F9F
:103750005E04FF1F5804FF1F4804FF1F6004FF1F83
:103760005A04FF1F80B500AF0A4B81221A70094B23
:1037700000225A70074B00225A80064B02221A710F
:10378000054B1A78034B5A7100F0A6FF034B012238
:103790001A7080BD3004FF1F5A04FF1F4304FF1F2F
:1037A00080B582B000AF02460B46FA71BB710D4B7B
:1037B00083221A700B4B07225A700A4B14225A802C
:1037C000084B1E221A71074B00225A71054BFA79D9
:1037D0009A71044BBA79DA7100F07EFF0837BD4662
:1037E00080BD00BF3004FF1F80B500AFFEF7CEFFE5
:1037F0000346002B1CD1114B1B7803F00F03052B44
:103800001BD1FEF7C3FF03461A460C4B9B799A4225
:1038100013D00A4B9B791846FEF7C2FF084BFF22D4
:103820001A70FF20FEF7A2FF064B01221A7004E077
:10383000024B9B791846FEF7B3FF80BD4804FF1F7B
:103840005A04FF1F5804FF1F80B500AF0C4B1B78B4
:1038500003F00F03022B11D1094B9A79094B1B7806
:103860009A420BD1064BDA79064B1A70054B1B783E
:103870001846FEF77BFF4020FEF792FF80BD00BF99
:103880004804FF1F5A04FF1F80B582B000AF114BE0
:103890001B7803F00F03FB71FB79002B17D00D4B46
:1038A0009A790D4B1B789A4211D1FB79012B06D0E6
:1038B000FB79012B0BD9074BDB79002B07D1064B8A
:1038C000FF221A70FF20FEF751FFFFF7F9FD0837BE
:1038D000BD4680BD4804FF1F5A04FF1F80B500AFDE
:1038E0000D4B1B7803F00F03012B13D10A4B9A7970
:1038F0000A4B1B789A420DD1094B80221A70084B53
:1039000000225A70064B00225A80054B03221A717E
:1039100000F0E2FE80BD00BF4804FF1F5A04FF1FF5
:103920003004FF1F98B500AF244B1B780133DAB287
:10393000224B1A70214B1B783B2B17D91F4B0022AF
:103940001A701F4B1B780133DAB21D4B1A701D4BD6
:103950001B78032B0AD1FEF7CDFF03461C46FEF76A
:10396000D1FF034620461946FFF71AFF144B1B7878
:103970003B2B08D9124B00221A70134B1B780133D2
:10398000DAB2114B1A70104B1B78172B02D90E4B61
:1039900000221A700B4B1B78032B0ED10B4B1B789C
:1039A0000133DAB2094B1A70084B1B7803F00F038E
:1039B000012B02DD054B00221A7098BD5704FF1F32
:1039C0004004FF1F5804FF1F4404FF1F5604FF1F3D
:1039D00080B582B000AF0346FB71FB795BB2002B70
:1039E00005DAFB79184600F00BF8034604E0FB7992
:1039F0001846FEF737FF034618460837BD4680BD18
:103A000080B588B000AF0346FB710023FB77FB79DC
:103A1000802B06D1634B1B78FB77624B00221A7018
:103A2000BBE0FB79812B02D10123FB77B5E0FB7969
:103A3000822B02D10523FB77AFE0FB79832B02D1E8
:103A40000023FB77A9E0FB79942B04D1FEF700FE5D
:103A50000346FB77A1E0FB79952B04D1FEF700FE2E
:103A60000346FB7799E0FB79962B04D1FEF700FE25
:103A70000346FB7791E0FB79882B08D8FB797C33F0
:103A8000DBB21846FEF70CFE0346FB7785E0FB79B8
:103A9000882B0BD9FB79902B08D8FB797733DBB2D5
:103AA0001846FEF721FE0346FB7776E0FB79912B63
:103AB00003D13D4B1B78FB776FE0FB79932B03D150
:103AC0003A4B1B88FB7768E0FB79922B05D1374B8B
:103AD0001B881B0A9BB2FB775FE0FB79972B04D115
:103AE000FEF712FE0346FB7757E0FB79982B04D1D3
:103AF000FEF712FE0346FB774FE0FB79992B04D1CA
:103B0000FEF712FE0346FB7747E0FB79992B13D9AA
:103B1000FB799D2B10D8FEF7FDFEB861FB7966336B
:103B2000FB75FB7DC3F10303DB0003F0F803BA6907
:103B300022FA03F3FB7730E0FB799D2B13D9FB7955
:103B4000A12B10D8FEF7EEFE3861FB796233FB73D0
:103B5000FB7BC3F10303DB0003F0F8033A6922FAAD
:103B600003F3FB7719E0FB79CF2B0BD9FB79DF2B24
:103B700008D8FB793033DBB21846FEF781FD0346E7
:103B8000FB770AE0FB79DF2B07D9FB792033DBB227
:103B90001846FEF7D1FD0346FB77FB7F184620371A
:103BA000BD4680BD5904FF1F5A04FF1F5C04FF1F60
:103BB00080B582B000AF02460B46FA71BB71FB794B
:103BC0005BB2002B07DAFA79BB791046194600F090
:103BD0000DF8034606E0FA79BB7910461946FEF760
:103BE0004FFE034618460837BD4680BD80B584B0F9
:103BF00000AF02460B46FA71BB71BB79DB43FB7326
:103C0000FB79832B13D9FB79882B10D8FB797C3374
:103C1000DAB2BB7910461946FEF752FDFB797C33C8
:103C2000DBB21846FEF73CFD0346FB7349E0FB7927
:103C3000922B12D1254B1B889BB2DBB29AB2BB7977
:103C40001B029BB213439BB29AB2204B1A801F4BAC
:103C50001B881B0A9BB2FB7333E0FB79932B10D1BB
:103C60001A4B1B889BB223F0FF039AB2BB799BB21D
:103C700013439BB29AB2154B1A80144B1B88FB73EB
:103C80001FE0FB79A22B19D1BB79552B05D1104B25
:103C900000221A805523FB7313E0BB79AA2B10D1A5
:103CA0000B4B1B889BB2B3F57A7F04D2FEF742FE22
:103CB000AA23FB7305E00023FB7302E0BB79DB431F
:103CC000FB73FB7B18461037BD4680BD5C04FF1FAD
:103CD0004604FF1F90B587B000AFAE4B5B88002B4A
:103CE00040F0EE84AB4B1B79013B252B00F2E784BF
:103CF00001A252F823F000BF913D0000993D000061
:103D0000BF460000BF460000BF460000A13D0000C6
:103D1000BF460000A93D0000B13D0000BF460000C5
:103D20004B3E0000ED3E0000BF460000BF460000D5
:103D3000BF460000BF460000BF460000BF4600006F
:103D4000BF460000BF460000BF460000BF4600005F
:103D50006F3F00002941000025420000BF460000DF
:103D6000BF460000BF460000CF42000027430000CE
:103D70007F430000BF460000A1440000BF46000092
:103D8000BF460000BF460000D3440000F3450000DA
:103D9000FFF72AFD00F094BCFFF7A0FD00F090BCF7
:103DA000FFF752FD00F08CBCFFF76EFD00F088BC01
:103DB000784B1B7803F00F03022B44D1754B9A7993
:103DC000754B1B789A423ED1724BDB79DBB25BB20A
:103DD000002B1BDB6F4BDB791846FEF743FD0346D8
:103DE0001A466E4B9A716B4BDA796C4B5A716B4B6E
:103DF00003225A70694B82221A70684B00225A8043
:103E0000664B0A221A7100F067FC1CE0614BDB79FB
:103E10001846FFF7F5FD03461A46604B9A715D4B55
:103E2000DA795E4B5A715D4B03225A705B4B8222EA
:103E30001A705A4B00225A80584B0A221A7100F00D
:103E40004BFC00F03DBC00F03BBC524B1B7803F038
:103E50000F03032B49D14F4B9A794F4B1B789A4252
:103E600043D14C4BDB79DBB25BB2002B1EDB494B01
:103E7000DA79484B1B7A10461946FEF701FD0346D6
:103E80001A46464B9A71434BDA79444B5A71434B6D
:103E900003225A70414B82221A70404B00225A80F2
:103EA0003E4B0A221A7100F017FC1EE0394BDA79FA
:103EB000384B1B7A10461946FFF798FE03461A4600
:103EC000364B9A71334BDA79344B5A71334B0322A8
:103ED0005A70324B82221A70304B00225A802F4B7C
:103EE0000A221A7100F0F8FBEAE3E9E3294B9A7918
:103EF000294B1B789A4239D10020FEF7C1FB0346BB
:103F00001A46244B1B7A9A4230D10320FEF7B8FBA5
:103F100003461A461F4B5B7A9A4227D10520FEF7CB
:103F2000AFFB03461A461B4B9B7A9A421ED10720D1
:103F3000FEF7A6FB03461A46164BDB7A9A4215D1CA
:103F4000174B1B881B0A9BB2DAB2124B1B7B9A429F
:103F50000CD1134B1B88DAB20E4B5B7B9A4205D116
:103F60000C4BDB791846FEF7B9FCA9E3A8E3094B33
:103F70009B791B09DBB2032B00F2C88001A252F827
:103F800023F000BFA53F0000FF3F000059400000A4
:103F9000B34000004804FF1F5A04FF1F3004FF1FF6
:103FA0005C04FF1F0020FEF76BFB03461A46A74B7D
:103FB000DB799A4222D10120FEF762FB03461A46C2
:103FC000A24B1B7A9A4219D10220FEF759FB0346F5
:103FD0001A469E4B5B7A9A4210D10320FEF750FBA3
:103FE00003461A46994B9B7A9A4207D1984B1B7805
:103FF00043F01003DAB2964B1A708BE08AE004208B
:10400000FEF73EFB03461A46904BDB799A4222D1DB
:104010000520FEF735FB03461A468C4B1B7A9A4265
:1040200019D10620FEF72CFB03461A46874B5B7A14
:104030009A4210D10720FEF723FB03461A46834B12
:104040009B7A9A4207D1824B1B7843F02003DAB265
:104050007F4B1A705EE05DE00820FEF711FB03461F
:104060001A467A4BDB799A4222D10920FEF708FBE7
:1040700003461A46754B1B7A9A4219D10A20FEF75D
:10408000FFFA03461A46714B5B7A9A4210D10B2015
:10409000FEF7F6FA03461A466C4B9B7A9A4207D112
:1040A0006B4B1B7843F04003DAB2694B1A7031E076
:1040B00030E00C20FEF7E4FA03461A46634BDB7946
:1040C0009A4222D10D20FEF7DBFA03461A465F4BD7
:1040D0001B7A9A4219D10E20FEF7D2FA03461A46ED
:1040E0005A4B5B7A9A4210D10F20FEF7C9FA034669
:1040F0001A46564B9B7A9A4207D1554B1B7863F070
:104100007F03DAB2524B1A7004E003E0504B0022F6
:104110001A7000BF4E4B1B7803F0F003F02B02D156
:10412000FFF7CEF9CCE2CBE2484B9A79494B1B78AA
:104130009A4276D10023BB75444BDB79FB72434B2B
:104140001B7ABB720023FB7567E0FA7D424BA2FB32
:104150000301531A5B080B4499080B46DB005B1AFA
:10416000D31ADBB25C1CFA7AFB7D1344DBB218462F
:10417000FFF72EFC03461A46384B23445A71FA7D4A
:10418000354BA2FB0301531A5B080B4499080B46FD
:10419000DB005B1AD31ADBB2062B04D0FA7DBB7AA4
:1041A000013B9A4236D1FA7D2B4BA2FB0301531AF5
:1041B0005B080B4499080B46DB005B1AD31ADBB291
:1041C000062B02D107237B750EE0FA7D224BA2FB62
:1041D0000301531A5B080B4499080B46DB005B1A7A
:1041E000D31ADBB201337B757B7D7F3BDAB21B4B8D
:1041F0001A701A4B03225A70184B00225A80174B20
:104200001A221A71154BBA7D5A7100F065FABB7DFE
:104210000133BB75FB7D0133FB75FA7DBB7A9A4296
:1042200093D34DE2094B9A790A4B1B789A424DD1B0
:10423000064BDB797B72054B1B78023BDBB203F04C
:1042400007033B7200233B7528E000BF4804FF1FB3
:104250005604FF1F5A04FF1F254992243004FF1FF4
:104260007A7A3B7D1344DAB23B7D0233A6490B4494
:104270009B7910461946FFF79BFC3B7D5C1C7A7AC4
:104280003B7D1344DBB21846FFF7A2FB03461A46F8
:104290009E4B23445A713B7D01333B753A7D3B7AFB
:1042A0009A42DDD3994B03225A70984B00225A80D0
:1042B000964B1A221A71954B00225A713B7A7F3B1A
:1042C000DAB2924B1A7000F007FAF9E1F8E18E4B7E
:1042D0009A798F4B1B789A4224D18B4BDC798A4B8D
:1042E000DB791846FEF7BEFA03460133DBB22046FF
:1042F0001946FEF7C5FA03461A46844B9A71824B5B
:10430000DA79824B5A71814B03225A707F4B822299
:104310001A707E4B00225A807C4B0A221A7100F0E0
:10432000DBF9CDE1CCE1784B9A79794B1B789A4255
:1043300024D1754BDC79744BDB791846FEF792FA81
:104340000346013BDBB220461946FEF799FA0346C5
:104350001A466E4B9A716C4BDA796C4B5A716B4BF7
:1043600003225A70694B82221A70684B00225A80CD
:10437000664B0A221A7100F0AFF9A1E1A0E1624B8D
:104380009A79634B1B789A4204D05F4B9B79FF2B41
:1043900040F0858000237B745C4B03225A705B4B9A
:1043A00088221A70594B00225A80584B20221A71C9
:1043B0000023FB7427E0554BFA7C5A710123BB7430
:1043C00015E0BC7C7B7C5A1C7A74C3F10F03DBB212
:1043D0001846FEF755F903461A464C4B23445A71CA
:1043E0007B7C102B00D905E0BB7C0133BB74BB7C0C
:1043F000072BE6D97B7C102B00D907E000F06CF985
:10440000FB7C0133FB74FB7C022BD4D90023BB74EF
:104410001BE0BB7C1846FEF78FF90346002B0BD040
:10442000BB7CDC1CBB7C1846FEF786F903461A46AB
:10443000364B23445A7105E0BB7C0333334A1344A3
:1044400000225A71BB7C0133BB74BB7C042BE0D9C6
:1044500000F042F905237B740323FB741CE02B4B13
:10446000FA7C5A710123BB740EE0BC7C7B7C5A1C25
:104470007A741846FEF760F903461A46234B234424
:104480005A71BB7C0133BB74BB7C072BEDD900F0A8
:1044900023F9FB7C0133FB74FB7C062BDFD90FE196
:1044A000194B9A791A4B1B789A4211D1174B032258
:1044B0005A70164B87221A70144B00225A80134BE5
:1044C00022221A711348FEF7F1F900F005F9F7E01E
:1044D000F6E00D4B9A790E4B1B789A4240F088809B
:1044E00000233B740023FB73074B1B7803F00F037F
:1044F000032B11DD044B9B7AFB73FB7B002B0DD14F
:104500000123FB730AE000BF4804FF1F3004FF1FB4
:104510005A04FF1F3504FF1F0123FB736A4B1B88DE
:10452000FB806A4BDB791B029AB2684B1B7A134300
:104530009BB29AB2644B1A80654B03225A70644B4B
:1045400000225A80624B27221A71614B00225A7155
:104550005E4BDA795E4B9A715C4B1A7A5C4BDA717E
:10456000FA7B3B7CD31A032B02DD0423BB7303E0ED
:10457000FA7B3B7CD31ABB73BB7B7C3BDAB2544BDC
:104580001A70524B5A7A3B7C1344DAB2504B1A726F
:1045900000237B7314E07B7B1C1D4C4B5A7A3B7CC5
:1045A0001344DAB27B7B1344DBB21846FFF710FAF0
:1045B00003461A46464B23445A717B7B01337B7377
:1045C0007A7BBB7B9A42E6D300F086F83A7CBB7BD1
:1045D00013443B743E4B5B790133DAB23C4B5A7166
:1045E0003A7CFB7B9A42BBD3374BFA881A8067E050
:1045F00066E0364B9A79374B1B789A425ED1324B44
:104600001B88BB80314BDB791B029AB22F4B1B7A84
:1046100013439BB29AB22C4B1A802C4B5B7A3B73A0
:1046200019E03A7B294B5B7AD31A1C1D3A7B274B46
:104630005B7AD31A0433254A13449B793A7B10469C
:104640001946FFF7B5FA03461A46214B23445A711F
:104650003B7B01333B733A7B1C4B5B7A19461B4B0C
:104660001B7803F00F03043B0B449A42D9DB164B33
:10467000BA881A80164B03225A70144B1B7803F029
:104680000F03DBB2803BDAB2114B1A70104B0022E1
:104690005A800F4B27221A710D4B00225A710B4B77
:1046A000DA790B4B9A71094B1A7A094BDA71074B7D
:1046B0005A7A074B1A7200F00FF801E000E000BFD1
:1046C0001C37BD4690BD00BF5C04FF1F4804FF1FA0
:1046D0003004FF1F5A04FF1F90B585B002AF124B84
:1046E0005888114B1979114B1A780F4B5B780E4C87
:1046F000247804F00F04E4B200940D4C0194FDF70B
:1047000011FF0346FB7197F90730002B05D1094BC8
:104710001B780133DAB2074B1A70FB795BB218468B
:104720000C37BD4690BD00BF3004FF1F5A04FF1F69
:104730003504FF1F4504FF1F80B584B002AF124B44
:104740001B78DBB25BB2002B01DA012317E00E4BC2
:1047500000930E4B01930E480E490F4A0F4BFDF785
:10476000AFFE0346FB7197F90730002B06D0064BCE
:104770001B7863F07F03DAB2034B1A70FB795BB2EC
:1047800018460837BD4680BD4804FF1F4E04FF1F72
:104790004A04FF1F4C04FF1F4D04FF1F4904FF1F65
:1047A00080B489B000AF284BFB60284A284B9A425E
:1047B00016D00023FB610AE0254BFA6953F822105A
:1047C000224BFA6943F82210FB690133FB61FB6855
:1047D0009A08FB699A42EFD81E4B1C4A9A6002E085
:1047E0001C4B1B4A9A601C4BBB611C4B7B611C4BD6
:1047F000BB60BA687B69D31AFB6107E0BB695A1CCE
:10480000BA617A69511C796112781A70FB695A1E73
:10481000FA61002BF2D1134B3B61134B7B607A683A
:104820003B69D31AFB6104E03B695A1C3A610022E0
:104830001A70FB695A1EFA61002BF5D12437BD4668
:104840005DF8047B704700BF00000000000000001E
:104850000000000000ED00E00000FF1F7CA600004B
:1048600040A70000C800FF1F6804FF1F80B400AF0E
:104870000B4B0B4AD2F8882042F47002C3F8882010
:10488000084B4CF22052DA81064B4DF62812DA81A1
:10489000044B4FF4E9721A80BD465DF8047B704703
:1048A00000ED00E0002005401201B1FBF2F370B50D
:1048B0009CB2661EB6B241F6FE75AE4213D80578BC
:1048C00005F0E00545EA1424DBB204704370837AF6
:1048D0004901B1FBF2F203F0E00302F01F021A43B8
:1048E0008272002070BD022070BD00F104700230A1
:1048F00040014B0801F00101037101707047037919
:10490000C17170470379C3790B70704730B54301AB
:1049100003F184439C330A44914207D01C78002C55
:10492000FCD011F8014B0579C471F5E730BD0346A1
:1049300000F104700430400170B50A4400F1140421
:1049400000F10C05002091420DD02678002EFCD0FD
:104950001E79DE7901F8016B2E78002EF3D01879DC
:10496000D8790F20EFE770BDCBB210B5090A01244A
:1049700004FA03F303292AD8DFE801F0020C162019
:104980001AB102781343DBB202E0027822EA030391
:10499000037010BD1AB1C2781343DBB202E0C278D3
:1049A00022EA0303C37010BD1AB182791343DBB24C
:1049B00002E0827922EA0303837110BD1AB1427CBE
:1049C0001343DBB202E0427C22EA0303437410BDCE
:1049D0000B0A032B0FD8DFE803F002040608007966
:1049E00004E0407902E0007B00E0807CC9B208412D
:1049F00000F0010070470020704740F20713994211
:104A000020D0B1F5847F0DD2072904D8052924D2FE
:104A10000379C37918E0B1F5807F1ED0B1F5837FAB
:104A200014D011E0B1F5407F14D002D8A1F20621D4
:104A300005E040F2013399420AD0A1F20631012982
:104A40000BD901E080234371002070474023FAE72F
:104A5000022300E001238374F6E70420704700007E
:104A6000052838B506D90E480E4A0F4B40F2C3212F
:104A700003F0AAF80D4B53F820400D4B53F82030AB
:104A800003F1047303335B0100221A77A37D1546FB
:104A90001BB104F1180001F0C3FD257538BD00BF3E
:104AA000F9950000139700003D9600009401FF1F48
:104AB000D0A20000052838B506D91048104A114B7D
:104AC00040F20A3103F080F80F4B53F820400F4BAF
:104AD00053F8200000F1047303335B0100251D75BA
:104AE00040F203212A46FFF73FFFE37D1BB104F1AB
:104AF000240001F095FD657538BD00BFF9950000F3
:104B0000DC9500003D9600009401FF1FD0A200003C
:104B1000F8B5324B53F82040314B53F82050237DE9
:104B2000064613B9637D002B56D005F10473033399
:104B30005F013B7DEBB105F1047304335B011B7D29
:104B4000BBB1AB7DABB12846A168FFF7DBFE236BA1
:104B50001BB1304621469847F3E7A3680133A360B1
:104B60002369013B23612369002BEAD13046FFF71B
:104B7000A1FF3B7F2BB305F1047304335B011B7F63
:104B8000FBB1E368EBB12B7D2778FF1AFFB2C7B109
:104B9000636828461978FFF7B2FEA36B1BB1304655
:104BA0002146984705E0636801336360E368013B91
:104BB000E360E368013FFFB2002BE8D13046FFF726
:104BC0004FFF28460321FFF703FF28B128460321A2
:104BD000BDE8F840FFF711BFF8BD00BF9401FF1F0B
:104BE000D0A2000008B50348034A044B4FF48D716E
:104BF00002F0EAFFB89700008B980000E6970000EB
:104C000008B50348034A044B9C2102F0DDFF00BFB6
:104C1000B897000087970000E697000008B50348A2
:104C2000034A044BD42102F0CFFF00BFB897000025
:104C30009A970000E697000010B5044628B10D4889
:104C40000D4A0E4B3F2102F0BFFF0D4B01221A60AF
:104C50000C4B1B6803F104735B01514058601960F1
:104C600001F0CAFA084902460023C1E900232046A0
:104C700010BD00BF0C980000539700004E98000034
:104C8000DC079042349700000801FF1F08B528B1E7
:104C90000A480B4A0B4BA22102F096FF032901D9C7
:104CA000FFF7AEFF084B1B6803EB011101F1047124
:104CB00001F58471490101230B6008BD0C980000C7
:104CC000749700004E9800003497000010B50C4611
:104CD00028B10E480E4A0F4BC42102F075FF0E4B4F
:104CE00009CBA0FB020102FB03110C4A0023FBF7D6
:104CF000EFFF032C00F1FF3001D9FFF78FFF084BC6
:104D0000103424011B68185110BD00BF0C9800001E
:104D1000389700004E9800000801FF1F40420F0026
:104D20003497000038B50C46154620B119481A4A88
:104D30001A4B60211BE05268FFF7C8FF032C2A784A
:104D400001D9FFF74FFF164B1B6803EB041303F168
:104D5000047303F584735B015A60D2B1114B1A5D81
:104D600053B2002B05DA1048104A114B5D2102F0B6
:104D70002BFF552B04DD0C480C4A0E4B5E21F6E749
:104D8000012102F01F0201FA02F25B090A4941F80F
:104D9000232038BD0C980000609700004E9800005A
:104DA000349700002D97000090960000799800003D
:104DB000CB960000DA96000000E100E008B528B1CB
:104DC0001048114A114B4FF4B47107E0104B1B68A7
:104DD00033B90C480C4A0F4B40F2691102F0F4FE53
:104DE0000D4B1B6803F104735B010122DA610B4B6D
:104DF0001A682AB11A68126812B11B681B689847B2
:104E000008BD00BFB29800009D980000F89800000F
:104E10000007904218990000FCA200001001FF1F3B
:104E2000022838B50D4606D90A480B4A0B4B40F20A
:104E3000B71102F0C9FE0A4B53F8204004F11800E4
:104E4000294601F047FC0328F8D008B10423237455
:104E5000207C38BDC39900004E9A00000C9A0000D7
:104E60001401FF1F2DE9F04F022885B005461646B4
:104E700006D93F483F4A404B4FF4FE7102F0A4FE72
:104E80003E4AB1F8009052F820703D4A9DF838A093
:104E900052F820400022ADF80C200122DAF1010A7C
:104EA00094F812B0E274A2744FEA992238BF4FF01E
:104EB000000A1E3AD2F1000858EB02085FFA89F1A5
:104EC000B8F1000F03D04FEA19298E4600E0894659
:104ED0004FEA49095FFA89F9B8F1000F03D126B901
:104EE0005FFA8AF102E0002100E0414641EA090947
:104EF0008DF80C90B8F1000F03D08DF80DE0022171
:104F000000E0012103A8A060E160284687F8049032
:104F10000F990193FFF784FF217C019B41B93EB1BA
:104F2000A660E36033783B7128460F99FFF778FF5E
:104F3000237CABB9BAF1000F12D0B8F1000F00D149
:104F400076B10123E36000233846A36049F00109EC
:104F500001F086FF87F8049028460F99FFF760FF5D
:104F6000207C84F812B00023E37405B0BDE8F08F14
:104F7000C39900007A9A00000C9A0000949A0000ED
:104F80001401FF1F022810B5034606D91348144A1E
:104F9000144B4FF4EA7102F017FE134A52F8200046
:104FA000124A52F82340E37C2BB1237C052B02D01C
:104FB000237C042B09D100F1047302335B0100222E
:104FC0001A7601F05BFF01236374A37C2BB104F11B
:104FD0001800BDE8104001F023BB10BDC3990000CC
:104FE000619A00000C9A0000949A00001401FF1FBF
:104FF0002DE9F04104460D4621B92748274A284BA0
:10500000592105E0022805D92348244A254B5A2175
:1050100002F0DAFDDFF8AC80234B58F8206053F83B
:105020002070002E34D124220846314602F03DFE85
:10503000314605F1180001F0DDFA204601F040F993
:10504000384601F0C3FE194B48F824501A5D53B29C
:10505000002B04DA1648174A174B5D21D8E7552B69
:1050600004DD1348134A154B5E21D1E75809144952
:10507000012302F01F0203FA02F241F8202007F197
:105080000470023040016B7403773046BDE8F08154
:105090000120BDE8F08100BFC399000058990000CD
:1050A0002A9A00000C9A0000949A00008E9A000040
:1050B0009096000098990000CB960000DA960000C8
:1050C00000E100E01401FF1F70B50C4621B9114842
:1050D000114A124BAF2105E0022805D90D480E4AAE
:1050E0000F4BB02102F070FD0E4A52F820600E4ABC
:1050F00052F820504A686B699A4209D001F07CF856
:10510000002301466268304601F06EFE63686B6101
:1051100070BD00BFC39900007E990000319A000065
:105120000C9A0000949A00001401FF1F2DE9F04F23
:1051300087B0022807468946DDF848809DF84CB0C4
:1051400005D93348334A344B40F2722106E0109CB3
:1051500034B92F482F4A314B40F2732102F034FD0D
:105160002F4C54F820502F4C54F82040667C16B930
:105170000320207449E005F1047A00260AF1020AAE
:10518000E660BBF1000F2674A6602660667484F8A2
:1051900012B04FEA4A1A08BF4FF01E080492039358
:1051A000FFF792FF012102208AF81010E8708AF8B8
:1051B00018102846059101F053FE0599039B049AA7
:1051C0008DE8020138464946FFF74CFE237C6BB957
:1051D000109A119BA260E36013782B71BBF1000F52
:1051E00011D038464146FFF71BFE0CE0237C042B10
:1051F00009D18AF81860EB789B0602D5284601F0A1
:105200003DFE01236374207CC0B207B0BDE8F08F7F
:10521000C39900006B9900000C9A000005970000EC
:10522000949A00001401FF1F2DE9F04F85B0022869
:1052300080468A460E9EDDF840909DF844B005D920
:105240003248334A334B40F2CE2105E036B92F487D
:105250002F4A314B40F2CF2102F0B6FC2F4C54F8CC
:1052600020502F4C54F82040677C17B9032020743D
:1052700048E026600F9E666005F10476002702363E
:10528000E760BBF1000F2774A760677484F812B061
:105290004FEA461608BF4FF01E0903920293FFF72C
:1052A00013FF012102203174E8703176284601F0A5
:1052B000D7FD039A029B8DE8800240465146FFF7D6
:1052C000D1FD227C02F0FF0372B90F9A3374012AD8
:1052D0000CBF327333732B79BBF1000F10D04046F3
:1052E0004946FFF79DFD0BE0237C042B08D1377660
:1052F000EB789B0602D5284601F0C0FD01236374BC
:10530000207CC0B205B0BDE8F08F00BFC39900009B
:10531000389A00000C9A00000C970000949A000044
:105320001401FF1F1FB5069C0094079C0194089C64
:10533000029401240394FFF7F9FE04B010BD1FB5D9
:10534000069C0094079C0194089C029401240394F9
:10535000FFF76AFF04B010BD022838B506D921480E
:10536000214A224B4FF4B37102F02EFC204A52F82E
:10537000205005F1047302220233EA705B011D4ADA
:1053800052F820401A7CE9788906D2B228D5197DD6
:1053900031B3012A13D1EB78DB0702D5052323743F
:1053A00009E0E368013BE3602BB1A3685A1CA260EB
:1053B0005B782B7138BDBDE83840FFF7E3BD62680C
:1053C000013A62601AB1012A04D0002202E0FFF71C
:1053D000D9FD00E01A7323685A1C22602A791A70DA
:1053E00038BD00BFC3990000AA9900000C9A0000C4
:1053F000949A00001401FF1F022808B505D90B4834
:105400000B4A0C4B442102F0DFFB0B4A52F82030D0
:1054100003F1047302335B011B7D1BB1BDE808403F
:10542000FFF79ABFBDE8084001F056BDA09A000002
:10543000EB9A00000C9A0000949A000008B503480B
:10544000034A044BFF2102F0BFFB00BF449B000056
:10545000179B0000739B00002DE9F84304682F4B55
:10546000C4F30727064653F827902D4BE4B238467D
:1054700053F8275000F0F4FE1F2C01D9FFF7DEFF90
:1054800055F8242022F0807222F4E06242F4807207
:1054900045F824202146002205EB8408484601F007
:1054A00013FE08F104735B0132795A6072791A6055
:1054B000B2791A61F379D5F8C020A3401343C5F837
:1054C000C030327A55F82430110423F0877301F488
:1054D000702123F480330B4345F82430DAB1114BAB
:1054E000DB5DC3B15AB2002A04DA0F480F4A104BF1
:1054F0005D2105E0552A05DD0B480C4A0D4B5E2168
:1055000002F062FB012103F01F0301FA03F35209C9
:10551000094941F82230BDE8F88300BFFCA400002F
:1055200010A5000024A5000090960000B59B000087
:10553000CB960000DA96000000E100E02DE9F04192
:105540000468184A0546C4F30720E4B252F82070F4
:10555000154A52F8206000F083FE1F2C01D9FFF796
:105560006DFF56F8242022F0807222F4E06242F4AB
:10557000807246F8242038462146012201F0A4FD1D
:1055800006EB84086A683846214601F0BBFD08F145
:1055900004735B012A7A9A606A7A9A61AA7A5A61DC
:1055A000BDE8F081FCA4000010A5000003460A46F7
:1055B000C0F30720024951F82000D9B201F0A2BD82
:1055C000FCA40000C0F3072208B5C0B2074B1F2897
:1055D00053F8223005D90648064A074BCB2102F082
:1055E000F3FA012202FA00F0D86008BDFCA4000022
:1055F0007D9B00002B9B0000AC9B0000C0F30722AA
:1056000008B5C0B20A4B1F2853F8223006D9094802
:10561000094A0A4B40F2B31102F0D6FA03EB8000BC
:1056200000F10470033040010123036008BD00BF96
:1056300010A50000449B0000FE9A0000739B000030
:105640000E4B70B553F820500D4B53F8203093F8A3
:10565000290080B901245A6083F82940224628464F
:1056600001F00AFF4FF4804106462246284601F029
:1056700017FF304670BD072070BD00BFCC9B0000F7
:105680002001FF1F002808B504DA0B480B4A0C4B19
:105690005D2105E0552805DD0748084A094B5E21D4
:1056A00002F092FA4209012300F01F0003FA00F011
:1056B000054B43F8220008BD90960000929D000023
:1056C000CB960000DA96000000E100E070B50546D8
:1056D00030B11048104A114B40F2CB3102F074FA4D
:1056E0000F4B1E680F4B1C682A46A168304601F01C
:1056F000C3FE30464FF480412A4601F0D1FE94F8B3
:105700002B301BB104F11C0000F08AFF002384F849
:10571000293070BD1E9C0000E59C0000689C0000C4
:10572000CC9B00002001FF1F70B5054630B110482A
:10573000104A114B40F2AE3102F046FA0F4B1E6890
:105740000F4B1C682A46E168304601F095FE304652
:105750004FF480412A4601F0A3FE94F82A301BB191
:1057600004F1100000F05CFF002384F8283070BDC5
:105770001E9C0000919C0000689C0000CC9B0000D7
:105780002001FF1F10B5044628B10648064A074B02
:10579000542102F019FA064B186801F0D5FE204694
:1057A00010BD00BF1E9C0000ED9B0000689C000027
:1057B000CC9B000008B528B10548064A064B772166
:1057C00002F002FA054B1868BDE8084001F05DBF21
:1057D0001E9C0000049C0000689C0000CC9B000004
:1057E00038B50C460546114628B10A480A4A0B4B03
:1057F000AA2102F0E9F90A4B18681CB901F08CFFE4
:10580000204638BD012C03D101F096FF284638BD53
:10581000032038BD1E9C0000C79C0000689C00004F
:10582000CC9B000010B50C46114628B10B480C4A21
:105830000C4BCD2102F0C8F90B4A106824B91A4666
:10584000BDE8104001F034BF012C04D11A46BDE878
:10585000104001F049BF032010BD00BF1E9C000096
:10586000339D0000689C0000CC9B0000F8B50D46FD
:10587000174620B12B482C4A2C4BF02104E029B9C3
:105880002848294A2A4BF12102F09EF9294B1E682B
:10589000294B01211960304601F05CFC00283FD102
:1058A000304601F047FC304601F032FE002837D187
:1058B0003046396801F09AFE7B791BB13046397960
:1058C00001F06CFE3046B97901F043FF044630BB6D
:1058D000214605F1100000F08DFE214605F11C0067
:1058E00000F088FE154B93F90000FFF7CBFE144B38
:1058F00093F90000FFF7C6FE124B93F90000FFF783
:10590000C1FE114B93F90000FFF7BCFE0F4B85F869
:1059100028402C6085F829401D60AC60EC60204672
:10592000F8BD00BF1E9C0000539D0000689C000055
:10593000869C0000CC9B000090079042D09B00000A
:10594000C89B0000C79B0000C99B00002001FF1FEF
:1059500030B587B030B10D480D4A0E4B40F23B11C7
:1059600002F032F90C4D546812782D688DF8102031
:1059700006AA05940824E96042F80C4D00900748F7
:10598000006801F0EFFB07B030BD00BF1E9C0000B7
:105990007B9D0000689C00002001FF1FCC9B000045
:1059A000F0B50E4687B030B11E481F4A1F4B4FF46A
:1059B000AD7102F009F91E4804681E48012584F8FB
:1059C0002A50076894F82800E8B9506812788DF8D2
:1059D000102006AA05900C2042F80C0D0C9884F8B3
:1059E0002850E1600090384601F0BCFBC0B9314658
:1059F0002A46384601F040FD38464FF480412A4699
:105A000001F04EFD01E006200AE004F110000D99BE
:105A100000F060FE0328F8D000280CBF002005200D
:105A200007B0F0BD1E9C0000AE9C0000689C00000A
:105A30002001FF1FCC9B0000F0B50D4685B01F462E
:105A400030B11648164A174B4FF4DB7102F0BCF820
:105A5000154806681548006804AC816050681278E3
:105A60008DF808200F2244F80C2D03902246304672
:105A700001F032FC78B901902946304622463B4677
:105A800001F02AFC38B90423019330462946224606
:105A90003B4601F021FC05B0F0BD00BF1E9C00009C
:105AA000649D0000689C0000CC9B00002001FF1F4B
:105AB00010B528B10A480B4A0B4B4FF4097105E0A9
:105AC00032B90748074A094B40F2252102F07CF819
:105AD000074B1B68BDE8104083F82B00FFF7B0BDF3
:105AE0001E9C0000D19B0000689C00008C9C000064
:105AF0002001FF1F2DE9F743DFF804813C4F58F8E0
:105B0000204057F82050226BA36A13400193019B59
:105B10000646002B66D0019B9B0635D504F1047325
:105B20005B015B6F83B3296800294FD0204601F0E9
:105B300084FD36B12F48304A304B40F2E73102F055
:105B400043F83F68D8F800904FF0050841464846B2
:105B5000002208F1010801F08FFCB8F1080FF5D11F
:105B600048464FF48041002201F09AFC002387F858
:105B700029303B6097F82B301BB107F11C0000F077
:105B80004FFD019B236321E0AB6801279F40019BF0
:105B90001F420FD0A968204601F05FFCA9686A681F
:105BA000204601F01BFC3046A368FFF78FFD019BE8
:105BB0001F402763EB6801279F40019B1F4205D0D0
:105BC0003046FFF7B1FD019B1F402763EB680125BD
:105BD0009D40019B1D4205D03046FFF7A5FD019B6E
:105BE0001D402563204601F022FD03B0BDE8F0838F
:105BF0002001FF1F1E9C00000D9D0000689C0000FE
:105C0000CC9B000008B530B10748084A084B40F269
:105C1000F62101F0D9FF074B1B6893F82930002BC0
:105C200014BF0720002008BD1E9C0000A49D00009A
:105C3000689C00002001FF1F2DE9F341434B53F8FE
:105C40002040434B53F82050237A8DF802302378BC
:105C50008DF801300027637A8DF8003006466946DA
:105C600028468DF803708DF8047001F0EBFE626831
:105C7000E369D4F82080082A62D9EA6A910162D5E2
:105C8000344A52F82620C3EB0803B2EB530F5AD91B
:105C9000E369022B17D101238DF803302846002336
:105CA00069468DF8003001F0CDFE6369BBB194F810
:105CB00034201F780AB1BFB211E05A1C62615B78D0
:105CC00047EA03270BE063694BB11A46023312F827
:105CD000011B626113F8017C636141EA072747EA0F
:105CE00000036B634FF00073EB62E369023BE36117
:105CF000E36943B3E369C0E7164A52F82620C3EBD1
