:1000000000000320D9040000E9040000E904000016
:10001000E9040000E9040000E90400000000000019
:10002000000000000000000000000000E9040000E3
:10003000E904000000000000E9040000E9040000F9
:10004000E9040000E9040000E9040000E9040000FC
:10005000E9040000E9040000E9040000E9040000EC
:10006000E9040000E9040000E9040000E9040000DC
:10007000E9040000E9040000E9040000E9040000CC
:10008000E9040000E9040000E9040000E9040000BC
:10009000E9040000E9040000E9040000E9040000AC
:1000A00085240000E9040000F52A0000012B00006F
:1000B000E9040000E9040000E9040000AD2A0000A2
:1000C000E9040000B92A0000E9040000C52A000084
:1000D000E9040000D12A0000E9040000E90400005E
:1000E000E9040000E9040000E9040000E90400005C
:1000F000E9040000E9040000E9040000E90400004C
:10010000A9290000512A0000E9040000E9040000C8
:10011000E9040000E9040000E9040000E90400002B
:10012000E9040000E9040000712A0000552C0000D9
:10013000E90400003D2C0000E9040000E90400008F
:10014000E90400000D2B0000DD2A0000E904000096
:10015000E92A0000E9040000E9040000E9040000C5
:10016000E9040000E9040000E90400007D2A000021
:10017000892A0000952A0000E9040000E904000033
:10018000A12A0000E9040000E9040000E9040000DD
:10019000E9040000E9040000E9040000E9040000AB
:1001A000E9040000E9040000E9040000E90400009B
:1001B000E9040000E9040000E9040000E90400008B
:1001C000E9040000E9040000E9040000E90400007B
:1003F000E9040000E9040000E9040000FFFFFFFF3A
:10040000FFFFFFFFFFFFFFFFFFFFFFFFFEFFFFFFFD
:1004100010B5054C237833B9044B13B10448AFF33E
:1004200000800123237010BDA000FF1F000000000A
:10043000B486000008B5064B1BB106480649AFF369
:1004400000800648036813B1054B03B1984708BD07
:1004500000000000B4860000A400FF1F9C00FF1FE6
:1004600000000000154B002B08BF134B9D46A3F561
:10047000803A00218B460F461348144A121A05F0A1
:1004800006FE0F4B002B00D098470E4B002B00D0E0
:1004900098470020002104000D000D48002802D0DC
:1004A0000C48AFF3008005F0C3FD2000290002F0E6
:1004B00089FB05F097FD00BF000008000000032045
:1004C0000000000000000000A000FF1FC002FF1F8E
:1004D000000000000000000072B602F0ABFC02F069
:1004E00043FC62B6FFF7BEFFFFF7FEBF81F000419D
:1004F00002E000BF83F0004330B54FEA41044FEA09
:10050000430594EA050F08BF90EA020F1FBF54EAA3
:10051000000C55EA020C7FEA645C7FEA655C00F03F
:10052000E2804FEA5454D4EB5555B8BF6D420CDD10
:100530002C4480EA020281EA030382EA000083EA93
:10054000010180EA020281EA0303362D88BF30BD33
:1005500011F0004F4FEA01314FF4801C4CEA113189
:1005600002D0404261EB410113F0004F4FEA0333E8
:100570004CEA133302D0524263EB430394EA050F73
:1005800000F0A780A4F10104D5F1200E0DDB02FAE2
:100590000EFC22FA05F2801841F1000103FA0EF276
:1005A000801843FA05F359410EE0A5F120050EF13C
:1005B000200E012A03FA0EFC28BF4CF0020C43FA6D
:1005C00005F3C01851EBE37101F0004507D54FF07A
:1005D000000EDCF1000C7EEB00006EEB0101B1F5CA
:1005E000801F1BD3B1F5001F0CD349085FEA300010
:1005F0004FEA3C0C04F101044FEA445212F5800F1B
:1006000080F09A80BCF1004F08BF5FEA500C50F1B7
:10061000000041EB045141EA050130BD5FEA4C0C9A
:10062000404141EB010111F4801FA4F10104E9D123
:1006300091F0000F04BF01460020B1FA81F308BF1A
:100640002033A3F10B03B3F120020CDA0C3208DDE6
:1006500002F1140CC2F10C0201FA0CF021FA02F1C1
:100660000CE002F11402D8BFC2F1200C01FA02F131
:1006700020FA0CFCDCBF41EA0C019040E41AA2BF56
:1006800001EB0451294330BD6FEA04041F3C1CDA1E
:100690000C340EDC04F11404C4F1200220FA04F03E
:1006A00001FA02F340EA030021FA04F345EA0301E8
:1006B00030BDC4F10C04C4F1200220FA02F001FAAA
:1006C00004F340EA0300294630BD21FA04F029462C
:1006D00030BD94F0000F83F4801306BF81F48011C5
:1006E0000134013D4EE77FEA645C18BF7FEA655C38
:1006F00029D094EA050F08BF90EA020F05D054EA0A
:10070000000C04BF1946104630BD91EA030F1EBF0E
:100710000021002030BD5FEA545C05D14000494112
:1007200028BF41F0004130BD14F580043CBF01F505
:10073000801130BD01F0004545F0FE4141F47001EB
:100740004FF0000030BD7FEA645C1ABF19461046C6
:100750007FEA655C1CBF0B46024650EA013406BFC7
:1007600052EA033591EA030F41F4002130BD00BF86
:1007700090F0000F04BF0021704730B54FF4806443
:1007800004F132044FF000054FF0000150E700BFC4
:1007900090F0000F04BF0021704730B54FF4806423
:1007A00004F1320410F0004548BF40424FF0000110
:1007B0003EE700BF42004FEAE2014FEA31014FEA53
:1007C00002701FBF12F07F4393F07F4F81F06051A2
:1007D000704792F0000F14BF93F07F4F704730B511
:1007E0004FF4607401F0004521F0004120E700BFA4
:1007F00050EA010208BF704730B54FF000050AE02B
:1008000050EA010208BF704730B511F0004502D52B
:10081000404261EB41014FF4806404F132045FEA2D
:10082000915C3FF4DCAE4FF003025FEADC0C18BFD2
:1008300003325FEADC0C18BF033202EBDC02C2F1C8
:10084000200300FA03FC20FA02F001FA03FE40EA5A
:100850000E0021FA02F11444C1E600BF70B54FF05A
:10086000FF0C4CF4E06C1CEA11541DBF1CEA13553C
:1008700094EA0C0F95EA0C0F00F0DEF82C4481EAA4
:10088000030621EA4C5123EA4C5350EA013518BFC4
:1008900052EA033541F4801143F4801338D0A0FBB1
:1008A00002CE4FF00005E1FB02E506F00042E0FB5E
:1008B00003E54FF00006E1FB03569CF0000F18BF64
:1008C0004EF0010EA4F1FF04B6F5007F64F540740C
:1008D00004D25FEA4E0E6D4146EB060642EAC6219F
:1008E00041EA55514FEAC52040EA5E504FEACE2E0C
:1008F000B4F1FD0C88BFBCF5E06F1ED8BEF1004F0F
:1009000008BF5FEA500E50F1000041EB045170BD8A
:1009100006F0004646EA010140EA020081EA0301CE
:10092000B4EB5C04C2BFD4EB0C0541EA045170BDCA
:1009300041F480114FF0000E013C00F3AB8014F144
:10094000360FDEBF002001F0004170BDC4F100048D
:10095000203C35DA0C341BDC04F11404C4F120050E
:1009600000FA05F320FA04F001FA05F240EA020069
:1009700001F0004221F0004110EBD37021FA04F69F
:1009800042EB06015EEA430E08BF20EAD37070BD59
:10099000C4F10C04C4F1200500FA04F320FA05F0B8
:1009A00001FA04F240EA020001F0004110EBD370BA
:1009B00041F100015EEA430E08BF20EAD37070BD2A
:1009C000C4F1200500FA05F24EEA020E20FA04F303
:1009D00001FA05F243EA020321FA04F001F00041B2
:1009E00021FA04F220EA020000EBD3705EEA430E23
:1009F00008BF20EAD37070BD94F0000F0FD101F052
:100A00000046400041EB010111F4801F08BF013C8A
:100A1000F7D041EA060195F0000F18BF704703F0C8
:100A20000046520043EB030313F4801F08BF013D4F
:100A3000F7D043EA0603704794EA0C0F0CEA13550B
:100A400018BF95EA0C0F0CD050EA410618BF52EAC5
:100A50004306D1D181EA030101F000414FF00000CB
:100A600070BD50EA410606BF1046194652EA4306D9
:100A700019D094EA0C0F02D150EA013613D195EA4D
:100A80000C0F05D152EA03361CBF104619460AD195
:100A900081EA030101F0004141F0FE4141F470019F
:100AA0004FF0000070BD41F0FE4141F4780170BD8F
:100AB00070B54FF0FF0C4CF4E06C1CEA11541DBFF4
:100AC0001CEA135594EA0C0F95EA0C0F00F0A7F8F6
:100AD000A4EB050481EA030E52EA03354FEA013123
:100AE00000F088804FEA03334FF0805545EA131336
:100AF00043EA12634FEA022245EA111545EA1065FE
:100B00004FEA00260EF000419D4208BF964244F194
:100B1000FD0404F5407402D25B084FEA3202B61AB3
:100B200065EB03055B084FEA32024FF480104FF487
:100B3000002CB6EB020E75EB030E22BFB61A7546FB
:100B400040EA0C005B084FEA3202B6EB020E75EB8E
:100B5000030E22BFB61A754640EA5C005B084FEAF6
:100B60003202B6EB020E75EB030E22BFB61A7546C3
:100B700040EA9C005B084FEA3202B6EB020E75EBCE
:100B8000030E22BFB61A754640EADC0055EA060E8F
:100B900018D04FEA051545EA16754FEA06164FEAD2
:100BA000C30343EA52734FEAC2025FEA1C1CC0D17E
:100BB00011F4801F0BD141EA00014FF000004FF00B
:100BC000004CB6E711F4801F04BF01430020B4F1CC
:100BD000FD0C88BFBCF5E06F3FF6AFAEB5EB030C84
:100BE00004BFB6EB020C5FEA500C50F1000041EB81
:100BF000045170BD0EF0004E4EEA113114EB5C044E
:100C0000C2BFD4EB0C0541EA045170BD41F4801120
:100C10004FF0000E013C90E645EA060E8DE60CEA28
:100C2000135594EA0C0F08BF95EA0C0F3FF43BAF45
:100C300094EA0C0F0AD150EA01347FF434AF95EAFC
:100C40000C0F7FF425AF104619462CE795EA0C0FE0
:100C500006D152EA03353FF4FDAE1046194622E7AD
:100C600050EA410618BF52EA43067FF4C5AE50EA87
:100C700041047FF40DAF52EA43057FF4EBAE12E777
:100C80004FEA410212F5001215D211D56FF47873B4
:100C9000B3EB625212D94FEAC12343F0004343EA57
:100CA000505311F0004F23FA02F018BF4042704732
:100CB0004FF00000704750EA013005D111F00040BC
:100CC00008BF6FF0004070474FF00000704700BF52
:100CD0004BB942B9002908BF002802D04FF0FF31BC
:100CE000084600F03BB882B0EC462DE9005000F019
:100CF0001DF8DDF804E002B00CBC70472DE970432C
:100D0000069E14461D468046894600F029F804FBDD
:100D100001F300FB0533A4FB00451D44B8EB0404BC
:100D200069EB0505C6E90045BDE870832DE9704310
:100D3000069E1446804689461D4600F05DF900FB7C
:100D400005F504FB0153A0FB04451D44B8EB040466
:100D500069EB0505C6E90045BDE87083704700BF33
:100D600000292DE9F00FC0F29F800024002BC0F273
:100D70009680154606460F46002B3ED18A4257D92B
:100D8000B2FA82F34BB1C3F1200201FA03F720FA61
:100D900002F29D40174300FA03F6290CB7FBF1F26B
:100DA000330C01FB127CA8B243EA0C4700FB02F3B0
:100DB000BB4209D97F1902F1FF3C80F00181BB429F
:100DC00040F2FE80023A2F44FF1AB7FBF1F3B6B2AD
:100DD00001FB137146EA014100FB03F0884208D988
:100DE000491903F1FF3780F0ED80884240F2EA8034
:100DF000023B43EA0242002303E08B420AD900236C
:100E00001A461046194614B1404261EB4101BDE853
:100E1000F00F7047B3FA83F8B8F1000F40F0848008
:100E20008B4202D3824200F2DE8000230122E8E7F7
:100E300012B90123B3FBF2F5B5FA85F2002A39D1D4
:100E40007F1B280C1FFA85FC0123B7FBF0F1320C45
:100E500000FB117742EA07470CFB01F2BA4207D9BF
:100E60007F1901F1FF3802D2BA4200F2C180414637
:100E7000BF1AB7FBF0F2B6B200FB127046EA0040B0
:100E80000CFB02FC844507D9401902F1FF3702D25E
:100E9000844500F2AB803A4642EA0142B1E7E443BE
:100EA000524263EB430364E7404261EB41014FF080
:100EB000FF345BE79540C2F1200327FA03F1280CC9
:100EC00026FA03F39740B1FBF0F81F433B0C00FBFD
:100ED00018111FFA85FC43EA01410CFB08F38B4211
:100EE00006FA02F608D9491908F1FF3279D28B4285
:100EF00077D9A8F102082944C91AB1FBF0F3BFB2AF
:100F000000FB131147EA01470CFB03F2BA4207D971
:100F10007F1903F1FF3160D2BA425ED9023B2F4400
:100F2000BF1A43EA084390E7C8F1200203FA08FC1D
:100F300025FA02F343EA0C0C4FEA1C4921FA02F3AA
:100F400001FA08F720FA02F2B3FBF9F1174309FBA3
:100F500011333A0C1FFA8CFB42EA03430BFB01FAF4
:100F60009A4505FA08F008D913EB0C0301F1FF329A
:100F700035D29A4533D902396344CAEB0303B3FB34
:100F8000F9F209FB1233BFB247EA03470BFB02F940
:100F9000B94508D917EB0C0702F1FF331BD2B9454D
:100FA00019D9023A674442EA0145A5FB0001C9EBA1
:100FB00007078F424FF000030AD305D02A4620E7E7
:100FC000624601E73B4614E706FA08F68642F5D288
:100FD0006A1E002315E71A46E5E70B46A0E711460F
:100FE000CBE7904688E7434642460AE7023A53E792
:100FF00002392F443CE700BF2DE9F00F14460546A7
:101000000E46002B43D18A4253D9B2FA82F757B128
:10101000C7F1200620FA06F601FA07F302FA07F4F0
:101020001E4300FA07F5210CB6FBF1F22B0C01FB75
:101030001267A0B243EA074600FB02F3B34209D9A4
:10104000361902F1FF3780F0F680B34240F2F380A8
:10105000023A2644F61AB6FBF1F3ADB201FB136176
:1010600045EA014100FB03F0884208D9091903F160
:10107000FF3680F0E280884240F2DF80023B43EAA4
:101080000242002310461946BDE8F00F70478B421C
:101090004AD8B3FA83F6002E4DD18B4202D3824256
:1010A00000F2D6800023012210461946BDE8F00F59
:1010B000704712B90124B4FBF2F4B4FA84F2002AA6
:1010C0007CD1091B260CA7B20123B1FBF6F02A0C38
:1010D00006FB101142EA014107FB00F28A4207D9E0
:1010E000091900F1FF3C02D28A4200F2C380604637
:1010F000891AB1FBF6F2ADB206FB121145EA0145C1
:1011000007FB02F7AF4208D92C1902F1FF3180F03A
:101110009680A74240F29380023A42EA004210468B
:101120001946BDE8F00F704700231A4610461946CD
:10113000BDE8F00F7047C6F1200522FA05F4B34070
:101140001C434FEA144821FA05F301FA06F720FA86
:1011500005F5B3FBF8FC2F4308FB1C333D0C1FFACD
:1011600084FA45EA03430AFB0CF9994502FA06FBA7
:1011700004D91B190CF1FF326DD39446C9EB03035C
:10118000B3FBF8F508FB1533BFB247EA03470AFB88
:1011900005F8B84504D93F1905F1FF3361D31D4661
:1011A00045EA0C4CACFB0B23C8EB07079F424FF002
:1011B000000549D345D062462B4663E79440C2F10F
:1011C000200321FA03FC260C20FA03F301FA02F5AE
:1011D000BCFBF6F843EA05010B0C06FB18CCA7B2E2
:1011E00043EA0C4C07FB08F3634500FA02F509D902
:1011F0001CEB040C08F1FF323AD2634538D9A8F150
:101200000208A444C3EB0C0CBCFBF6F389B206FB4A
:1012100013CC41EA0C4107FB03F28A4207D90919B2
:1012200003F1FF3022D28A4220D9023B2144891A9D
:1012300043EA084349E73A460CE733461FE70A46C4
:101240006BE7B0409042B6D20CF1FF32002319E7B1
:101250003346324616E799458FD9ACF1020C234448
:101260008CE7B8459BD9023D274499E70346DEE762
:101270009046C7E7023821443AE700BF80B483B004
:1012800000AF78607B68033303F104735B010C33B8
:1012900001221A700C37BD465DF8047B704700BF11
:1012A00080B483B000AF78607B68033303F10473CC
:1012B0005B01083301221A700C37BD465DF8047BD0
:1012C000704700BF80B483B000AF78600B46FB70FE
:1012D0007B68023303F104735B011033FA781A70F0
:1012E0000C37BD465DF8047B704700BF80B483B007
:1012F00000AF78600B46FB707B6803F104735B0101
:101300001433FA781A700C37BD465DF8047B7047C9
:10131000B0B58CB000AFF860B9601346FB712A4BD2
:101320001B78002B01D003234AE0274BFA791A706F
:10133000FB68DAB2244B5A70FB79102B3FD1234B58
:1013400007F110041D460FCD0FC495E8030084E893
:101350000300FB689B0007F13002134453F8203C64
:10136000FB62194BFA6A5A60F86803F0B9F9F86839
:1013700003F061F9B862F86AB96ABA6801F078FDF9
:10138000F86A0021FFF79EFFF86A002101F091FD45
:10139000F86A0021FFF7AAFFF86AFFF76FFFF86A03
:1013A000FFF77EFF084B0A4A9A60074B094ADA604A
:1013B00000BFFB68DAB2044B5A70002300E001233F
:1013C00018463037BD46B0BDBC00FF1F007000009E
:1013D000D52E0000F72E000080B584B000AFF86075
:1013E000B9607A60BB68002B02D14FF0FF3318E080
:1013F000FB68012B05D0FB68022B02D04FF0FF33B6
:101400000FE00A4B1B78002B02D14FF0FF3308E0AE
:10141000064B9B68054A51687A680846B968984740
:101420007B6818461037BD4680BD00BFBC00FF1F5B
:1014300080B584B000AFF860B9607A60FB68002BBB
:1014400002D04FF0FF330FE0094B1B78002B02D185
:101450004FF0FF3308E0064BDB68054A51687A68B5
:101460000846B96898477B6818461037BD4680BD66
:10147000BC00FF1F0FB480B584B002AF0D4B1B78CA
:10148000002B02D14FF0FF330DE007F114033B6056
:101490003B680093002008494FF0FF323B6900F0A1
:1014A0002DF878607B6818460837BD46BDE8804057
:1014B00004B07047BC00FF1FBD14000080B584B0AD
:1014C00000AF786039607B68DBB2FB730A4B1B7836
:1014D000002B02D14FF0FF330AE0074B9B68064A0E
:1014E000516807F10F020846114601229847002370
:1014F00018461037BD4680BDBC00FF1F80B5A4B0A4
:1015000004AFF860B9607A603B600023FB617B68E0
:101510003B657B68B3F1FF3F01D1B04B7B603B681B
:10152000FB6782E3FB6C252B07D0BB68F86CF9687E
:101530009847FB690133FB6174E3012387F85B3053
:101540000023FB6600233B674DE0FB6F0133FB6725
:10155000FB6F1B785BB2203B102B3ED801A252F8E8
:1015600023F000BFBD150000DB150000DB150000F7
:10157000D1150000DB150000DB150000DB150000B5
:10158000DB150000DB150000DB150000DB1500009B
:10159000B3150000DB150000A9150000DB150000E5
:1015A000DB150000C7150000FB6E43F00103FB666E
:1015B00019E0FB6E43F00203FB6614E0FB6E43F0A0
:1015C0000403FB660FE0FB6E43F00803FB660AE0D2
:1015D000FB6E43F01003FB6605E0FB6F013BFB670E
:1015E00001233B6700BF3B6F002BAED00023BB66DF
:1015F00000233B671BE0FB6F0133FB67FB6F1B782E
:101600005BB2FB64FB6C303B092B0AD8BA6E134605
:101610009B0013445B001A46FB6C1344303BBB66D3
:1016200005E0FB6F013BFB6701233B6700BF3B6F9E
:10163000002BE0D006237B65FB6F0133FB67FB6F5C
:101640001B785BB22E2B24D100237B6500233B67E4
:101650001BE0FB6F0133FB67FB6F1B785BB2FB6426
:10166000FB6C303B092B0AD87A6D13469B00134460
:101670005B001A46FB6C1344303B7B6505E0FB6F57
:10168000013BFB6701233B6700BF3B6F002BE0D0B2
:1016900002E0FB6F013BFB67FB6F0133FB67FB6FF6
:1016A0001B785BB2682B04D06C2B0FD04C2B1ED058
:1016B00019E0FB6F0133FB67FB6F1B785BB2682B94
:1016C00003D0FB6F013BFB6712E011E0FB6F0133BE
:1016D000FB67FB6F1B785BB26C2B03D0FB6F013B8E
:1016E000FB6705E004E0FB6F013BFB6700E000BF28
:1016F000FB6F0133FB67FB6F1B785BB2FB64FB6C1A
:10170000583B202B00F2868201A252F823F000BF42
:10171000B7180000151C0000151C0000151C000067
:10172000151C0000151C0000151C0000151C0000F5
:10173000151C0000151C00001B1A00004F1B0000A8
:1017400095170000151C0000151C0000151C00005A
:10175000151C000095170000151C0000151C00004A
:10176000151C0000151C0000FF1B0000EF190000F5
:10177000471A0000151C0000151C0000711B00001A
:10178000151C0000811A0000151C0000151C00002B
:10179000B1180000D7F888301A1DC7F888201B68D8
:1017A000BB6107F1200207F1180397F85B10009165
:1017B0001046194601220A2300F04AFA786707F119
:1017C00020027B6F1344BB67BB69002B08DA2D2313
:1017D0007B667B6F01337B671AE000BFFEFFFF7FF4
:1017E000FB6E03F00203002B05D02B237B667B6F7F
:1017F00001337B670CE0FB6E03F00403002B05D084
:1018000020237B667B6F01337B6701E000237B66CF
:1018100000233B66FB6E03F00803002B1BD07B6E9E
:10182000002B06D0BB68786EF9689847FB690133D6
:10183000FB6101233B66BA6E07F11C03B968009196
:10184000F9680191391D02913020796F00F088FA12
:10185000BB6E7B671DE0FB6E03F00103002B18D10C
:10186000BA6E07F11C03B9680091F9680191391D3E
:1018700002912020796F00F073FA7B6E002B06D066
:10188000BB68786EF9689847FB690133FB610123F7
:101890003B663B6E002B0AD17B6E002B07D0BB68EA
:1018A000786EF9689847FB690133FB612AE129E109
:1018B000002387F85B30D7F888301A1DC7F88820D6
:1018C0001B687B6107F1200207F1140397F85B1096
:1018D0000091104619460022102300F0B9F97867EC
:1018E00007F120027B6F1344BB6700233B66FB6E4E
:1018F00003F00803002B28D0FB6E03F01003002B2D
:1019000013D0BB683020F968984797F85B30002BFC
:1019100001D0582300E07823BA681846F968904748
:10192000FB690233FB6101233B66BA6E07F11C03BE
:10193000B9680091F9680191391D02913020796FE1
:1019400000F00EFABB6E7B6732E0FB6E03F0010322
:10195000002B2DD1FB6E03F01003002B02D07B6F08
:1019600002337B67BA6E07F11C03B9680091F9680E
:101970000191391D02912020796F00F0F1F9FB6E81
:1019800003F01003002B13D0BB683020F968984790
:1019900097F85B30002B01D0582300E07823BA6819
:1019A0001846F9689047FB690233FB6101233B66E7
:1019B000FB6E03F01003002B18D03B6E002B15D1EB
:1019C000BB683020F968984797F85B30002B01D04E
:1019D000582300E07823BA681846F9689047FB69F5
:1019E0000233FB617B6F02337B678BE08AE0D7F8C1
:1019F00088301A1DC7F888201B687B6107F1200218
:101A000007F1140397F85B10009110461946002265
:101A1000082300F01DF9786747E0D7F888301A1DD1
:101A2000C7F888201B687B6107F1200207F11403C7
:101A300097F85B100091104619460022022300F02F
:101A400007F9786731E0D7F888301A1DC7F8882081
:101A50001B687B61D7F888301A1DC7F888201B687F
:101A60007B6107F1200207F1140397F85B100091E6
:101A7000104619460022102300F0EAF8786714E0B7
:101A8000D7F888301A1DC7F888201B687B6107F1DA
:101A9000200207F1140397F85B10009110461946D5
:101AA00000220A2300F0D4F8786707F120027B6F48
:101AB0001344BB67FB6E03F00803002B0FD0BA6E14
:101AC00007F11C03B9680091F9680191391D029171
:101AD0003020796F00F044F9BB6E7B6712E0FB6E3B
:101AE00003F00103002B0DD1BA6E07F11C03B96896
:101AF0000091F9680191391D02912020796F00F061
:101B00002FF90CE00BE0BB6F5A1EBA671B785AB274
:101B1000BB681046F9689847FB690133FB61BB6FEE
:101B20001B78002BEFD1FB6E03F00103002B0DD0CF
:101B3000BA6E07F11C03B9680091F9680191391D6B
:101B400002912020796F00F00BF96BE06AE0D7F882
:101B500088301A1DC7F888201B68DBB25BB2BB64F3
:101B6000BB68B86CF9689847FB690133FB6159E0C1
:101B7000D7F888301A1DC7F888201B68FB65FB6DF5
:101B8000002B3BD0F86D04F0B3FB03467B67FB6E84
:101B900003F00103002B0DD1BA6E07F11C03B968E5
:101BA0000091F9680191391D02912020796F00F0B0
:101BB000D7F80CE00BE0FB6D5A1CFA651B785AB2A3
:101BC000BB681046F9689847FB690133FB61FB6D00
:101BD0001B78002BEFD1FB6E03F00103002B0DD01F
:101BE000BA6E07F11C03B9680091F9680191391DBB
:101BF00002912020796F00F0B3F813E012E0D7F8DB
:101C000088301A1DC7F888201B687B64FA697B6CD2
:101C10001A6007E0BB68F86CF9689847FB69013304
:101C2000FB6100BFFB6F0133FB67FB6F1B785BB28F
:101C3000FB64FB6C002B7FF475AC7B68002B01D040
:101C4000FB6900E03B6D18468037BD4680BD00BF94
:101C500080B48DB000AFF860B9607A603B6000235B
:101C6000FB61FB68BB61BB695A1CBA6100221A7038
:101C70007B68002B33D0BB681B68FB62FB6A002BC0
:101C800006D1BB6930221A70FB690133FB6160E049
:101C900021E0FA6A3B6892FBF3F37B617B693A6867
:101CA00002FB03F3FA6AD31ABB62BB6A002B04DAA5
:101CB000BB6AC3F13003BB6202E0BB6A3033BB6274
:101CC0007B69FB62BB695A1CBA61BA6AD2B21A70EC
:101CD000FB690133FB61FB6A002BDAD139E0BB6899
:101CE0001B687B627B6A002B06D1BB6930221A70AD
:101CF000FB690133FB612CE028E03B687A6AB2FBA8
:101D0000F3F33B613B683A6902FB03F37A6AD31A47
:101D10003B623B6A092B03D83B6A30333B620AE0E3
:101D200097F83830002B01D0412300E061233A6A54
:101D300013440A3B3B623B697B62BB695A1CBA6134
:101D40003A6AD2B21A70FB690133FB617B6A002BDD
:101D5000D3D1FB6918463437BD465DF8047B704724
:101D600080B586B000AFF860B9607A603B60BB6850
:101D70007B610EE0FB68DBB25AB23B6A1046796ABF
:101D800098473B681B685A1C3B681A607B690133A3
:101D90007B617A697B689A42ECDB1837BD4680BD6F
:101DA00080B584B000AFF860B9601346FB71BB68C2
:101DB0001F2B05D90D48FF210D4A0E4B04F0F6F8F4
:101DC000FB68BA6853F8223023F0807323F4E06391
:101DD000FA79120202F4E06243EA0201FB68BA688F
:101DE00043F822101037BD4680BD00BF18700000B8
:101DF000B87500005070000080B483B000AF786008
:101E00000B46FB707B68FA781A700C37BD465DF89C
:101E1000047B704780B584B000AF3B4600221A6057
:101E2000043300221A60043300221A6004330022B3
:101E30001A600433054B3B6002237B723B46002053
:101E4000194602F025FD1037BD4680BD80F0FA022C
:101E500080B584B000AF064A3B1D07CA83E807007F
:101E60003B1D0020194602F05FFD1037BD4680BDC6
:101E70005C70000080B500AF08482A21FFF7BCFF66
:101E8000074812210022FFF78BFFFFF7C3FFFFF780
:101E9000DFFF044802F03EFB80BD00BF00E00740CA
:101EA00000900440A075000080B500AF002000F055
:101EB000E1F800204FF4E1311022FFF729FA80BD4C
:101EC00080B584B000AFF860B9601346FB71BB68A1
:101ED0001F2B05D90948D921094A0A4B04F066F895
:101EE000BB689B00FA68134403F104735B0114336D
:101EF000FA791A601037BD4680BD00BF68700000D7
:101F000040760000A070000080B584B000AFF8609B
:101F1000B9601346FB71BB681F2B05D90D48FF2123
:101F20000D4A0E4B04F042F8FB68BA6853F82230B1
:101F300023F0807323F4E063FA79120202F4E06282
:101F400043EA0201FB68BA6843F822101037BD4625
:101F500080BD00BF687000002C760000A0700000FB
:101F600080B582B000AF7860064813210222FFF7E7
:101F7000CBFF044812210222FFF7C6FF0837BD46F7
:101F800080BD00BF00A0044080B582B000AF786083
:101F90007B68002B02D0012B15D029E016481821B0
:101FA0000522FFF7B1FF144818210122FFF788FF2F
:101FB000114819210522FFF7A7FF0F481921012217
:101FC000FFF77EFF14E00D480A210222FFF79CFF75
:101FD0000A480A210122FFF773FF08480B21022259
:101FE000FFF792FF05480B210122FFF769FF00BFB1
:101FF0000837BD4680BD00BF00D0044000B004409B
:1020000080B582B000AF78607B68002B02D0012BD6
:1020100015D029E0164800210222FFF775FF144869
:1020200003210222FFF770FF114801210222FFF76E
:102030006BFF0F4802210222FFF766FF14E00C48F5
:1020400004210722FFF760FF094807210722FFF755
:102050005BFF074805210722FFF756FF04480621CA
:102060000722FFF751FF00BF0837BD4680BD00BF04
:1020700000C0044080B582B000AF78607B68002B60
:1020800002D0042B0BD015E00C4810210322FFF7DF
:102090003BFF0A4811210322FFF736FF0AE00848F8
:1020A0000E210322FFF730FF05480F210322FFF71F
:1020B0002BFF00BF0837BD4680BD00BF00A0044015
:1020C00000B004400000000084B080B588B000AFCC
:1020D00007F1280C8CE80F00052002F037FD07F10E
:1020E000080307F12800194600F0A4F93B7A1B0207
:1020F0009AB27B7A1343FB83BB7A1B029AB2FB7AB8
:102100001343BB83B7F91E301846FEF741FB024666
:102110000B46104619462BA3D3E90023FEF79EFB7E
:1021200002460B4610461946FEF7AAFD03469BB22F
:102130001BB2002BB8BF5B427B83B7F91C3018463B
:10214000FEF726FB02460B46104619461DA3D3E9AF
:102150000023FEF783FB02460B4610461946FEF7A6
:102160008FFD03469BB21BB2002BB8BF5B423B8383
:10217000B7F91A20B7F91830114811461A46FFF777
:1021800079F97B8BDBB23B713B8BDBB27B713B79AB
:102190001A467B790A4811461A46FFF76BF9BB8845
:1021A000BB8200233A7D62F307037A7D62F30F233B
:1021B00018462037BD46BDE8804004B0704700BFD8
:1021C000AC700000BA490C022B87863FAFF3008049
:1021D00080B582B000AF786039603C4B1B68002B43
:1021E0000BD1786800F074F8384B1B685A1C374BD9
:1021F0001A603B68002B26D101E0022362E0786878
:102200002B21402200F084F84FF4FA7002F09EFC7B
:1022100078682A210122FE2300F0D6F878685B2135
:102220005F2200F075F878685C21202200F070F8D9
:1022300078680E21012200F06BF878682A210D22BF
:1022400000F066F83DE03B681B78072B0BD83B6835
:102250001B7878682A21382200F0B6F83B685B7852
:10226000072B0ED801E002232CE03B685B787868EE
:102270005B211C2200F0A8F83B689B78022B0ED84B
:1022800001E002231EE03B689B7878685B21032213
:1022900000F09AF83B68DB78022B10D801E00223AB
:1022A00010E03B68DB7878680E21032200F08CF8A0
:1022B00078682A210122012300F086F801E0022338
:1022C00000E0002318460837BD4680BDCC00FF1F44
:1022D00080B582B000AF78607B681A687B680C3389
:1022E0001046194601F068F97B6864229A607B68A1
:1022F0001D229A807B681A687B6804331046194651
:1023000001F0C6F9002318460837BD4680BD00BF5E
:1023100080B58AB004AF786013460A46FA70BB7085
:102320007B6804337B610023FB74FB783B74BB78D0
:102330003B737B681A6807F1100307F10C010091E9
:102340000121019164210291104679691A46012305
:1023500001F0CCFA0346FB74FB7C002B01D0012377
:1023600000E0002318461837BD4680BD80B58CB00C
:1023700004AFF8600B467A60FB72FB680433FB61C4
:102380000023FB76FB7A3B76FB681A6807F118039B
:1023900007F114010091012101916421029110467D
:1023A000F9691A46012301F0AEFA0346FB76FB7E7B
:1023B000002B01D0012303E03A7D7B681A700023D3
:1023C00018462037BD4680BD80B584B000AF786028
:1023D000F970BA707B700023FB73FA7807F10E0373
:1023E000786811461A46FFF7C1FF0346FB73FB7B73
:1023F000002B01D0022318E0BA7BBB781340DBB27C
:10240000BB73BA7B7B781343DBB2BB73BB7BFA78BD
:10241000786811461A46FFF77BFF0346FB73FB7B88
:10242000002B01D0022300E0002318461037BD46E0
:1024300080BD00BF80B588B004AF786039607B682C
:102440000433FB600023FB7201233B727B681A6834
:1024500007F10803396800910C2101916421029170
:102460001046F9681A46012301F04DFA0346FB7243
:10247000FB7A002B01D0012300E00023184610371F
:10248000BD4680BD80B500AF002001F099FA80BD47
:1024900080B584B000AFF88079713A71FB70FB7839
:1024A0009A06FB881B041A437B791B021A433B796B
:1024B0001343FB603B7EF8681946FA6900F00CF89C
:1024C0000346002B01D1002300E001235BB2184634
:1024D0001037BD4680BD00BF80B586B000AFF86044
:1024E0000B467A60FB720023FB750F4B00221A70BB
:1024F0000CE0FB7AF86819467A68012300F0B0F91D
:102500000346002B02D10123FB7503E0064B1B7829
:10251000002BEED0054B00221A70FB7D5BB21846F3
:102520001837BD4680BD00BF3102FF1F8802FF1F64
:10253000F0B58BB008AF1B4B1B78032B2ED11A4E76
:102540006C4606F110050FCD0FC495E80F0084E826
:102550000F0096E80F00FFF7B7FD0346BB803B79FD
:102560001A467B79114811461A46FEF783FF104B35
:1025700083221A700E4B07225A700D4B14225A8078
:102580000B4B1E221A710A4B00225A713A79084BE2
:102590009A717A79064BDA7100F0B6FB0C37BD46BA
:1025A000F0BD00BFB002FF1FF801FF1FC0700000A8
:1025B0008802FF1F80B483B000AF78607B6804336B
:1025C00003F104735B0134331B68002B0CBF002341
:1025D0000123DBB218460C37BD465DF8047B70471B
:1025E00080B5B2B000AF714B00221A60704B102260
:1025F0001A606F4B00221A716D4B00225A716C4B9E
:1026000000229A716B4B08221A606B4B09221A60E8
:102610006A4B4FF492721A60694B4FF491721A60D0
:10262000684B07F164011A466423084611461A46AE
:1026300003F024FD644B39461A46642308461146CC
:102640001A4603F01BFD614B1B6818466049584A47
:1026500001F0CEFB03461A465E4B1A605D4B1B68C9
:10266000002B0AD0514B1B685A1C504B1A60594B17
:102670001B685948194603F0ABFD544B1A68574B79
:1026800053F822301846FFF795FF0346002B07D07A
:102690000020012101F0CAFF0246514B1A6006E0FA
:1026A0000020002101F0C2FF02464D4B1A604C4B46
:1026B0001B684C4A934210D04B4A93421AD1434B69
:1026C0001B68DAB207F164031046194601F01CFBDF
:1026D00003461A463F4B1A6012E03C4B1B68DAB2C5
:1026E0003B461046194601F00FFB03461A46394B8C
:1026F0001A6005E03A4B1B683C48194603F068FD38
:10270000344B1B68002B0AD0284B1B685A1C274BE4
:102710001A60304B1B683648194603F059FD2B4BA5
:102720001B68DBB21846002101F006FB274B1B6833
:10273000DBB2184601214FF4927201F013FB0346FD
:102740001A46244B1A60234B1B68002B0AD0174BE8
:102750001B685A1C154B1A601E4B1B6825481946EE
:1027600003F036FD194B1B68DAB2124B1B6810469A
:1027700001211A4640F2231301F016FB03461A46C4
:10278000144B1A60134B1B68002B0AD0074B1B68B5
:102790005A1C064B1A600F4B1B681748194603F06A
:1027A00017FD00F02BF8C837BD4680BDEC01FF1FB8
:1027B0009C01FF1FF001FF1FAC01FF1FF401FF1F71
:1027C000A401FF1FD87100003C720000D000FF1F61
:1027D000C001FF1FBC01FF1FD4700000647C00001B
:1027E000B401FF1F006CDC0200879303FC70000043
:1027F00034710000607100009071000080B584B0F9
:1028000000AF01233B710823BB600F4803F058FD64
:102810000E4B1B68D8B20E4B19680E4B1B683A1D45
:1028200001F0CCFB0346FB60FB68002B08D00A4B91
:102830001B685A1C084B1A600848F96803F0C8FC6A
:102840001037BD4680BD00BFA0720000D000FF1F42
:10285000F001FF1FF401FF1FEC01FF1FBC7200001D
:1028600090B58BB002AFF8607A600A46FA72BB721C
:10287000334BFA681A60BB7A012B02D101233B74F7
:102880000AE0BB7A002B02D100233B7404E02D4800
:1028900003F09EFC00233B74FB7A7B612A4B1B6890
:1028A000D8B22A4B1968264B1B6807F1100201F0B9
:1028B00011FB0346FB61FB69002B04D02448F96936
:1028C00003F086FC36E0204B1B68D8B21F4B19681A
:1028D0001B4B1B6807F110027C6800944FF47A745C
:1028E000019401F01FFB0346FB61FB69002B09D03B
:1028F000184B1B685A1C174B1A601748F96903F0EC
:1029000067FC17E0154803F0DBFC0023BB610AE01D
:102910007A68BB6913441B781148194603F058FCC8
:10292000BB690133BB617A69BB699A42F0D80D4833
:1029300003F0C6FCFB6918462437BD4690BD00BFB6
:10294000A401FF1F6C730000D000FF1FAC01FF1F2C
:10295000A8730000EC01FF1FD87300001074000082
:10296000587300002474000080B582B000AF786016
:1029700039603B68032B06D908484FF49C71084A1C
:10298000084B03F013FB7A683B681B01134403F503
:10299000847301225A600837BD4680BD2874000048
:1029A0005C7600006074000080B500AF204B1B68AF
:1029B00018460021FFF7D8FF1E4B1B68184601F090
:1029C000E5F81D4B1B889BB201339AB21A4B1A8053
:1029D0001A4B1B889BB201339AB2184B1A80184BC2
:1029E0001B685A1C164B1A60164B1B78DBB201335E
:1029F000DAB2144B1A70134B1B78DBB2642B0CD970
:102A0000114B1B78022B08D1104B1B68184601F0A4
:102A1000BDF80C4B00221A7009E00B4B1B78012B00
:102A200005D10A4B1B681846002101F0A3F880BDB0
:102A3000CC770000FC750000B602FF1F9E02FF1F4E
:102A4000D400FF1F9A02FF1F9B02FF1FCC750000DE
:102A500080B500AF044B1B6818460121FFF784FFC7
:102A6000024B01225A7080BDCC770000D800FF1FB6
:102A700080B500AF002000F085FC80BD80B500AFC0
:102A8000002001F0D7FA80BD80B500AF002001F032
:102A9000D1FA80BD80B500AF002001F0CBFA80BD37
:102AA00080B500AF002001F0C5FA80BD80B500AF51
:102AB000002000F011FB80BD80B500AF012000F0C8
:102AC0000BFB80BD80B500AF022000F005FB80BD90
:102AD00080B500AF032000F0FFFA80BD80B500AFE5
:102AE000042000F0F9FA80BD80B500AF052000F0A9
:102AF000F3FA80BD80B500AF002001F0D1FC80BDAD
:102B000080B500AF012001F0CBFC80BD80B500AFE7
:102B1000022001F0C5FC80BD80B500AF002001F0AF
:102B200097FD012001F094FD032001F091FD0420A8
:102B300001F08EFDFFF79EF9FFF7B6F90020FFF7D1
:102B40005FFA0020FFF720FA0020FFF709FA00F0F3
:102B50008DF8FFF745FD094800F0D4FF084800F064
:102B6000D1FF084800F05CFF074800F0CBFF044BA2
:102B70009B691846002100F0FDFF80BDCC75000068
:102B8000FC7500000000FF1F1476000080B582B0C5
:102B900000AF3B4683E803000020002100F030FB3B
:102BA0003B46002000211A4600F0A0FB0448FEF737
:102BB00061FC0020002100F04DFB0837BD4680BDC0
:102BC0008874000080B584B000AF0023FB60154A14
:102BD0003B1D92E8030083E80300134B03221A70A5
:102BE000FFF79AFF3B1D93E80300FFF7CFFF01F0CB
:102BF000BBFF0E4B00221A600C480021FFF7E8FAD9
:102C00000B4B02221A700B4803F05AFB0A4B1B684D
:102C1000FA689A4205D0084B1B68FB60FFF788FCF6
:102C2000F4E7F3E7AC740000B002FF1FF801FF1FE8
:102C30009B02FF1FA4740000D400FF1F80B500AFEB
:102C400040F2062000F0BEFF014B01221A7080BD49
:102C50009B02FF1F80B500AF042000F0B3FF0248C5
:102C600003F02EFB80BD00BFB474000080B500AF40
:102C70001C4B08225A601B4B00225A72194B00222F
:102C80001A72184B00229A7200201749174A01F055
:102C90000BFB03461A46164B1A70154B1B78002B7C
:102CA00002D0144803F00CFB0E4B134A1A600020AC
:102CB0000C49124A01F06AFB03461A460C4B1A7083
:102CC0000B4B1B78002B06D0094B1B780C48194680
:102CD00003F07EFA05E0094B1B680A48194603F029
:102CE00077FA80BD7802FF1F3C02FF1F2400FF1F00
:102CF0008402FF1FCC74000040420F007402FF1FCB
:102D0000F87400002475000090B585B002AF124B36
:102D10005888114B1979114B1A780F4B5B780E4C70
:102D2000247804F00F04E4B200940D4C0194FFF7F2
:102D3000AFFB0346FB7197F90730002B05D1094B18
:102D40001B780133DAB2074B1A70FB795BB2184675
:102D50000C37BD4690BD00BF8802FF1FB202FF1FA7
:102D60008D02FF1F9D02FF1F80B489B000AF284B6A
:102D7000FB60284A284B9A4216D00023FB610AE0E8
:102D8000254BFA6953F82210224BFA6943F82210B6
:102D9000FB690133FB61FB689A08FB699A42EFD833
:102DA0001E4B1C4A9A6002E01C4B1B4A9A601C4B4B
:102DB000BB611C4B7B611C4BBB60BA687B69D31A3F
:102DC000FB6107E0BB695A1CBA617A69511C7961E1
:102DD00012781A70FB695A1EFA61002BF2D1134B5C
:102DE0003B61134B7B607A683B69D31AFB6104E05B
:102DF0003B695A1C3A6100221A70FB695A1EFA613B
:102E0000002BF5D12437BD465DF8047B704700BF29
:102E100000000000000000000000000000ED00E0E5
:102E20000000FF1FDC8600007C870000A000FF1F61
:102E3000C002FF1F80B400AF0B4B0B4AD2F88820B2
:102E400042F47002C3F88820084B4CF22052DA8119
:102E5000064B4DF62812DA81044B4FF4E9721A80C2
:102E6000BD465DF8047B704700ED00E000200540A2
:102E70001201B1FBF2F370B59CB2661EB6B241F618
:102E8000FE75AE4213D8057805F0E00545EA142436
:102E9000DBB204704370837A4901B1FBF2F203F0B4
:102EA000E00302F01F021A438272002070BD02206C
:102EB00070BD00F10470023040014B0801F00101C7
:102EC0000371017070470379C17170470379C37949
:102ED0000B70704730B5430103F184439C330A44BF
:102EE000914207D01C78002CFCD011F8014B0579D9
:102EF000C471F5E730BD034600F1047004304001B1
:102F000070B50A4400F1140400F10C050020914250
:102F10000DD02678002EFCD01E79DE7901F8016BE9
:102F20002E78002EF3D01879D8790F20EFE770BDF6
:102F3000CBB210B5090A012404FA03F303292AD8F5
:102F4000DFE801F0020C16201AB102781343DBB25D
:102F500002E0027822EA0303037010BD1AB1C278BE
:102F60001343DBB202E0C27822EA0303C37010BD50
:102F70001AB182791343DBB202E0827922EA0303B9
:102F8000837110BD1AB1427C1343DBB202E0427C74
:102F900022EA0303437410BD0B0A032B0FD8DFE8AA
:102FA00003F002040608007904E0407902E0007BA7
:102FB00000E0807CC9B2084100F0010070470020A9
:102FC000704740F20713994220D0B1F5847F0DD2AB
:102FD000072904D8052924D20379C37918E0B1F56B
:102FE000807F1ED0B1F5837F14D011E0B1F5407F12
:102FF00014D002D8A1F2062105E040F20133994233
:103000000AD0A1F2063101290BD901E080234371D6
:10301000002070474023FAE7022300E00123837475
:10302000F6E7042070470000052838B506D90E4899
:103030000E4A0F4B40F2C32102F0B8FF0D4B53F87C
:1030400020400D4B53F8203003F1047303335B0130
:1030500000221A77A37D15461BB104F1180001F078
:10306000D7FC257538BD00BF91760000AB77000016
:10307000D57600006C01FF1F30830000052838B5AD
:1030800006D91048104A114B40F20A3102F08EFF67
:103090000F4B53F820400F4B53F8200000F10473FE
:1030A00003335B0100251D7540F203212A46FFF71B
:1030B0003FFFE37D1BB104F1240001F0A9FC65751D
:1030C00038BD00BF9176000074760000D576000010
:1030D0006C01FF1F30830000F8B5324B53F82040DD
:1030E000314B53F82050237D064613B9637D002BE6
:1030F00056D005F1047303335F013B7DEBB105F15D
:10310000047304335B011B7DBBB1AB7DABB12846BF
:10311000A168FFF7DBFE236B1BB1304621469847C1
:10312000F3E7A3680133A3602369013B23612369AB
:10313000002BEAD13046FFF7A1FF3B7F2BB305F10F
:10314000047304335B011B7FFBB1E368EBB12B7DA0
:103150002778FF1AFFB2C7B1636828461978FFF7CE
:10316000B2FEA36B1BB130462146984705E0636869
:1031700001336360E368013BE360E368013FFFB252
:10318000002BE8D13046FFF74FFF28460321FFF719
:1031900003FF28B128460321BDE8F840FFF711BF1F
:1031A000F8BD00BF6C01FF1F3083000008B5034865
:1031B000034A044B4FF48D7102F0F8FE5078000082
:1031C000237900007E78000008B50348034A044BC9
:1031D0009C2102F0EBFE00BF507800001F78000039
:1031E0007E78000008B50348034A044BD42102F05E
:1031F000DDFE00BF50780000327800007E780000CD
:1032000010B5044628B10D480D4A0E4B3F2102F07F
:10321000CDFE0D4B01221A600C4B1B6803F10473A9
:103220005B0151405860196001F0DEF9084902461F
:103230000023C1E90023204610BD00BFA478000090
:10324000EB770000E6780000DC079042CC770000C6
:10325000E000FF1F08B528B10A480B4A0B4BA2211A
:1032600002F0A4FE032901D9FFF7AEFF084B1B684B
:1032700003EB011101F1047101F58471490101238E
:103280000B6008BDA47800000C780000E678000010
:10329000CC77000010B50C4628B10E480E4A0F4BF3
:1032A000C42102F083FE0E4B09CBA0FB020102FBFE
:1032B00003110C4A0023FDF70BFD032C00F1FF3036
:1032C00001D9FFF78FFF084B103424011B681851F8
:1032D00010BD00BFA4780000D0770000E6780000A1
:1032E000E000FF1F40420F00CC77000038B50C46CD
:1032F000154620B119481A4A1A4B60211BE0526842
:10330000FFF7C8FF032C2A7801D9FFF74FFF164BB0
:103310001B6803EB041303F1047303F584735B016F
:103320005A60D2B1114B1A5D53B2002B05DA104826
:10333000104A114B5D2102F039FE552B04DD0C487B
:103340000C4A0E4B5E21F6E7012102F01F0201FA42
:1033500002F25B090A4941F8232038BDA478000035
:10336000F8770000E6780000CC770000C577000011
:103370002877000011790000637700007277000061
:1033800000E100E008B528B11048114A114B4FF494
:10339000B47107E0104B1B6833B90C480C4A0F4B53
:1033A00040F2691102F002FE0D4B1B6803F1047339
:1033B0005B010122DA610B4B1A682AB11A681268A4
:1033C00012B11B681B68984708BD00BF4A7900000E
:1033D000357900009079000000079042B079000034
:1033E0005C830000E800FF1F022838B50D4606D9AF
:1033F0000A480B4A0B4B40F2B71102F0D7FD0A4BBB
:1034000053F8204004F11800294601F05BFB032823
:10341000F8D008B104232374207C38BD5B7A000007
:10342000E67A0000A47A0000EC00FF1F2DE9F04FBF
:10343000022885B00546164606D93F483F4A404B0C
:103440004FF4FE7102F0B2FD3E4AB1F8009052F81E
:1034500020703D4A9DF838A052F820400022ADF877
:103460000C200122DAF1010A94F812B0E274A2747D
:103470004FEA992238BF4FF0000A1E3AD2F10008F5
:1034800058EB02085FFA89F1B8F1000F03D04FEA58
:1034900019298E4600E089464FEA49095FFA89F901
:1034A000B8F1000F03D126B95FFA8AF102E00021DA
:1034B00000E0414641EA09098DF80C90B8F1000F8F
:1034C00003D08DF80DE0022100E0012103A8A060E7
:1034D000E160284687F804900F990193FFF784FF75
:1034E000217C019B41B93EB1A660E36033783B711A
:1034F00028460F99FFF778FF237CABB9BAF1000F8C
:1035000012D0B8F1000F00D176B10123E36000239F
:103510003846A36049F0010901F09AFE87F804904B
:1035200028460F99FFF760FF207C84F812B0002333
:10353000E37405B0BDE8F08F5B7A0000127B0000F9
:10354000A47A00002C7B0000EC00FF1F022810B5BD
:10355000034606D91348144A144B4FF4EA7102F09B
:1035600025FD134A52F82000124A52F82340E37C0A
:103570002BB1237C052B02D0237C042B09D100F135
:10358000047302335B0100221A7601F06FFE0123FF
:103590006374A37C2BB104F11800BDE8104001F066
:1035A00037BA10BD5B7A0000F97A0000A47A0000F7
:1035B0002C7B0000EC00FF1F2DE9F04104460D4676
:1035C00021B92748274A284B592105E0022805D967
:1035D0002348244A254B5A2102F0E8FCDFF8AC804E
:1035E000234B58F8206053F82070002E34D1242249
:1035F0000846314602F04BFD314605F1180001F056
:10360000F1F9204601F054F8384601F0D7FD194B86
:1036100048F824501A5D53B2002B04DA1648174AB2
:10362000174B5D21D8E7552B04DD1348134A154B82
:103630005E21D1E758091449012302F01F0203FA61
:1036400002F241F8202007F10470023040016B744F
:1036500003773046BDE8F0810120BDE8F08100BF6E
:103660005B7A0000F0790000C27A0000A47A0000C2
:103670002C7B0000267B000028770000307A0000B9
:10368000637700007277000000E100E0EC00FF1FAC
:1036900070B50C4621B91148114A124BAF2105E013
:1036A000022805D90D480E4A0F4BB02102F07EFCCE
:1036B0000E4A52F820600E4A52F820504A686B6950
:1036C0009A4209D000F090FF00230146626830461C
:1036D00001F082FD63686B6170BD00BF5B7A000022
:1036E000167A0000C97A0000A47A00002C7B000042
:1036F000EC00FF1F2DE9F04F87B0022807468946EE
:10370000DDF848809DF84CB005D93348334A344B36
:1037100040F2722106E0109C34B92F482F4A314BF9
:1037200040F2732102F042FC2F4C54F820502F4CF1
:1037300054F82040667C16B90320207449E005F156
:10374000047A00260AF1020AE660BBF1000F267433
:10375000A6602660667484F812B04FEA4A1A08BF61
:103760004FF01E0804920393FFF792FF01210220FD
:103770008AF81010E8708AF818102846059101F0B0
:1037800067FD0599039B049A8DE802013846494676
:10379000FFF74CFE237C6BB9109A119BA260E3608B
:1037A00013782B71BBF1000F11D038464146FFF75B
:1037B0001BFE0CE0237C042B09D18AF81860EB78FF
:1037C0009B0602D5284601F051FD01236374207C3D
:1037D000C0B207B0BDE8F08F5B7A0000037A00004A
:1037E000A47A00009D7700002C7B0000EC00FF1FF6
:1037F0002DE9F04F85B0022880468A460E9EDDF8FE
:1038000040909DF844B005D93248334A334B40F2DA
:10381000CE2105E036B92F482F4A314B40F2CF2157
:1038200002F0C4FB2F4C54F820502F4C54F8204089
:10383000677C17B90320207448E026600F9E6660FD
:1038400005F1047600270236E760BBF1000F27740C
:10385000A760677484F812B04FEA461608BF4FF0AD
:103860001E0903920293FFF713FF01210220317416
:10387000E8703176284601F0EBFC039A029B8DE854
:10388000800240465146FFF7D1FD227C02F0FF0343
:1038900072B90F9A3374012A0CBF327333732B79C8
:1038A000BBF1000F10D040464946FFF79DFD0BE0ED
:1038B000237C042B08D13776EB789B0602D528466B
:1038C00001F0D4FC01236374207CC0B205B0BDE8D4
:1038D000F08F00BF5B7A0000D07A0000A47A00006D
:1038E000A47700002C7B0000EC00FF1F1FB5069C96
:1038F0000094079C0194089C029401240394FFF710
:10390000F9FE04B010BD1FB5069C0094079C0194FD
:10391000089C029401240394FFF76AFF04B010BDD1
:10392000022838B506D92148214A224B4FF4B371F9
:1039300002F03CFB204A52F8205005F104730222A9
:103940000233EA705B011D4A52F820401A7CE97884
:103950008906D2B228D5197D31B3012A13D1EB786B
:10396000DB0702D50523237409E0E368013BE3602C
:103970002BB1A3685A1CA2605B782B7138BDBDE8DF
:103980003840FFF7E3BD6268013A62601AB1012A6C
:1039900004D0002202E0FFF7D9FD00E01A7323688B
:1039A0005A1C22602A791A7038BD00BF5B7A000069
:1039B000427A0000A47A00002C7B0000EC00FF1F7C
:1039C000022808B505D90B480B4A0C4B442102F0DC
:1039D000EDFA0B4A52F8203003F1047302335B0115
:1039E0001B7D1BB1BDE80840FFF79ABFBDE808404A
:1039F00001F06ABC387B0000837B0000A47A0000E1
:103A00002C7B000008B50348034A044BFF2102F059
:103A1000CDFA00BFDC7B0000AF7B00000B7C000018
:103A20002DE9F84304682F4BC4F30727064653F8E3
:103A300027902D4BE4B2384653F8275000F008FE8B
:103A40001F2C01D9FFF7DEFF55F8242022F08072E9
:103A500022F4E06242F4807245F8242021460022DC
:103A600005EB8408484601F027FD08F104735B016B
:103A700032795A6072791A60B2791A61F379D5F89D
:103A8000C020A3401343C5F8C030327A55F8243023
:103A9000110423F0877301F4702123F480330B4366
:103AA00045F82430DAB1114BDB5DC3B15AB2002ABC
:103AB00004DA0F480F4A104B5D2105E0552A05DD59
:103AC0000B480C4A0D4B5E2102F070FA012103F005
:103AD0001F0301FA03F35209094941F82230BDE8F6
:103AE000F88300BF5C8500007085000084850000BD
:103AF000287700004D7C000063770000727700009B
:103B000000E100E02DE9F0410468184A0546C4F3DD
:103B10000720E4B252F82070154A52F8206000F0F5
:103B200097FD1F2C01D9FFF76DFF56F8242022F0D6
:103B3000807222F4E06242F4807246F82420384613
:103B40002146012201F0B8FC06EB84086A68384679
:103B5000214601F0CFFC08F104735B012A7A9A60D8
:103B60006A7A9A61AA7A5A61BDE8F0815C850000A0
:103B70007085000003460A46C0F30720024951F849
:103B80002000D9B201F0B6BC5C850000C0F307226A
:103B900008B5C0B2074B1F2853F8223005D9064894
:103BA000064A074BCB2102F001FA012202FA00F08B
:103BB000D86008BD5C850000157C0000C37B000058
:103BC000447C0000C0F3072208B5C0B20A4B1F288E
:103BD00053F8223006D90948094A0A4B40F2B3117A
:103BE00002F0E4F903EB800000F1047003304001BF
:103BF0000123036008BD00BF70850000DC7B00006E
:103C0000967B00000B7C0000002808B504DA0B4806
:103C10000B4A0C4B5D2105E0552805DD0748084A95
:103C2000094B5E2102F0C2F94209012300F01F0096
:103C300003FA00F0054B43F8220008BD2877000086
:103C40000E7E0000637700007277000000E100E064
:103C500070B5054630B11048104A114B40F2CB31D7
:103C600002F0A4F90F4B1E680F4B1C682A46A1688E
:103C7000304601F0F9FD30464FF480412A4601F00C
:103C800007FE94F82B301BB104F11C0000F0C0FEBD
:103C9000002384F8293070BD9A7C0000617D00000B
:103CA000E47C0000647C0000F800FF1F70B505464E
:103CB00030B11048104A114B40F2AE3102F076F9A3
:103CC0000F4B1E680F4B1C682A46E168304601F016
:103CD000CBFD30464FF480412A4601F0D9FD94F8DF
:103CE0002A301BB104F1100000F092FE002384F88A
:103CF000283070BD9A7C00000D7D0000E47C00003F
:103D0000647C0000F800FF1F10B5044628B1064887
:103D1000064A074B542102F049F9064B186801F096
:103D20000BFE204610BD00BF9A7C0000697C00009D
:103D3000E47C0000647C000008B528B10548064A10
:103D4000064B772102F032F9054B1868BDE80840B0
:103D500001F093BE9A7C0000807C0000E47C0000AF
:103D6000647C000038B50C460546114628B10A4867
:103D70000A4A0B4BAA2102F019F90A4B18681CB920
:103D800001F0C2FE204638BD012C03D101F0CCFE6B
:103D9000284638BD032038BD9A7C0000437D0000D2
:103DA000E47C0000647C000010B50C46114628B18C
:103DB0000B480C4A0C4BCD2102F0F8F80B4A106866
:103DC00024B91A46BDE8104001F06ABE012C04D1A6
:103DD0001A46BDE8104001F07FBE032010BD00BFB1
:103DE0009A7C0000AF7D0000E47C0000647C000051
:103DF000F8B50D46174620B12B482C4A2C4BF02124
:103E000004E029B92848294A2A4BF12102F0CEF8CA
:103E1000294B1E68294B01211960304601F092FBA5
:103E200000283FD1304601F07DFB304601F068FDAF
:103E3000002837D13046396801F0D0FD7B791BB1BD
:103E40003046397901F0A2FD3046B97901F079FEAA
:103E5000044630BB214605F1100000F0C3FD2146A9
:103E600005F11C0000F0BEFD154B93F90000FFF7B3
:103E7000CBFE144B93F90000FFF7C6FE124B93F9EB
:103E80000000FFF7C1FE114B93F90000FFF7BCFEE5
:103E90000F4B85F828402C6085F829401D60AC60E8
:103EA000EC602046F8BD00BF9A7C0000CF7D00008A
:103EB000E47C0000027D0000647C000090079042DA
:103EC000687C0000607C00005F7C0000617C00007A
:103ED000F800FF1F30B587B030B10D480D4A0E4BCA
:103EE00040F23B1102F062F80C4D546812782D68D4
:103EF0008DF8102006AA05940824E96042F80C4DBC
:103F000000900748006801F025FB07B030BD00BFF6
:103F10009A7C0000F77D0000E47C0000F800FF1FA1
:103F2000647C0000F0B50E4687B030B11E481F4AD1
:103F30001F4B4FF4AD7102F039F81E4804681E485B
:103F4000012584F82A50076894F82800E8B95068D9
:103F500012788DF8102006AA05900C2042F80C0D5E
:103F60000C9884F82850E1600090384601F0F2FA8D
:103F7000C0B931462A46384601F076FC38464FF43F
:103F800080412A4601F084FC01E006200AE004F1A9
:103F900010000D9900F096FD0328F8D000280CBF02
:103FA0000020052007B0F0BD9A7C00002A7D0000AB
:103FB000E47C0000F800FF1F647C0000F0B50D46B3
:103FC00085B01F4630B11648164A174B4FF4DB71C7
:103FD00001F0ECFF154806681548006804AC8160E4
:103FE000506812788DF808200F2244F80C2D0390A9
:103FF0002246304601F068FB78B9019029463046E8
:1040000022463B4601F060FB38B904230193304659
:10401000294622463B4601F057FB05B0F0BD00BFE4
:104020009A7C0000E07D0000E47C0000647C0000DD
:10403000F800FF1F2DE9F743DFF804813C4F58F8E3
:10404000204057F82050226BA36A13400193019B34
:104050000646002B66D0019B9B0635D504F1047300
:104060005B015B6F83B3296800294FD0204601F0C4
:10407000DCFC36B12F48304A304B40F2E73101F0DA
:1040800095FF3F68D8F800904FF005084146484634
:10409000002208F1010801F0E7FBB8F1080FF5D1A3
:1040A00048464FF48041002201F0F2FB002387F8DC
:1040B00029303B6097F82B301BB107F11C0000F052
:1040C000A7FC019B236321E0AB6801279F40019B74
:1040D0001F420FD0A968204601F0B7FBA9686A68A3
:1040E000204601F073FB3046A368FFF7B1FD019B4A
:1040F0001F402763EB6801279F40019B1F4205D0AB
:104100003046FFF7D3FD019B1F402763EB68012575
:104110009D40019B1D4205D03046FFF7C7FD019B26
:104120001D402563204601F07AFC03B0BDE8F08312
:10413000F800FF1F9A7C0000897D0000E47C0000ED
:10414000647C00002DE9F341434B53F82040434B7E
:1041500053F82050237A8DF8023023788DF80130FF
:104160000027637A8DF800300646694628468DF8A8
:1041700003708DF8047001F057FE6268E369D4F8AB
:104180002080082A62D9EA6A910162D5344A52F83D
:104190002620C3EB0803B2EB530F5AD9E369022B75
:1041A00017D101238DF803302846002369468DF886
:1041B000003001F039FE6369BBB194F834201F78F8
:1041C0000AB1BFB211E05A1C62615B7847EA03276B
:1041D0000BE063694BB11A46023312F8011B6261AE
:1041E00013F8017C636141EA072747EA00036B6328
:1041F0004FF00073EB62E369023BE361E36943B3B1
:10420000E369C0E7164A52F82620C3EB080393423D
:104210001FD2E369012B08D18DF803302846002313
:1042200069468DF8003001F0FFFD636913B113F8A2
:10423000017B636147EA00036B634FF00073EB623D
:10424000E369013BE361E3691BB1E369EA6A920157
:10425000D8D402B0BDE8F081FC00FF1FAC7E0000A6
:104260009C7E00000E4B70B553F820500D4B53F858
:10427000206000243046214622462C7401F0C3FD04
:1042800030462146224601F0B7FD95F824302BB187
:1042900005F12800BDE8704000F0BABB70BD00BF5A
:1042A000FC00FF1FAC7E0000304B2DE9F74353F8B4
:1042B000207015460C46382281460846002101F040
:1042C000E6FE484600F0DCF900F08EF92B7823700A
:1042D000EB782372AB786372E06007F104783846BC
:1042E00001F05EFC4FEA4818002104F1280000F0BC
:1042F00079FB01266B78C8F87C603846C8F87830BE
:10430000E9782A7901F0D4FC38463146324601F08A
:10431000DFFC0022334629780096384601F02DFD57
:10432000134B43F82940134B13F8092053B2002BC9
:1043300004DA1148114A124B5D2105E0552B05DDC9
:104340000D480E4A0F4B5E2101F030FE5B0902F072
:104350001F020D490020964041F82360C8F838003C
:10436000C8F8000003B0BDE8F08300BFAC7E0000D9
:10437000FC00FF1FA87E0000287700003C7E0000A4
:10438000637700007277000000E100E02DE9F04162
:1043900090460D4631B91048104A114B40F20F11AA
:1043A00001F004FE0F4B53F820400F4B217853F8D7
:1043B0002070E3682E46384656F8042B01F00AFCBC
:1043C0002178C8F800003246384601F096FC6B6848
:1043D0006360BDE8F08100BF4E7E0000207E0000DB
:1043E000C97A0000FC00FF1FAC7E000038B52A4BE4
:1043F00053F82040294B226A53F82030054632B941
:10440000E369002B3ED02846FFF79CFE3AE0626845
:10441000082A0FD8DA6A910323D4F1E74FF4003168
:104420009A6BD962A16949B9226A023A2262226A68
:10443000002AE5D0DA6A9203E2D5EFE7206A022883
:1044400004D194F8340008B10A70EDE70A70A1694C
:10445000C2F30722481CA0614A70A2690132A2611E
:10446000E2E74FF40032996BDA62A2691AB1117077
:10447000A2690132A261226A013A2262226A002AFA
:10448000C8D1BDE7E36933B9236A23B92846BDE83B
:104490003840FFF7E7BE38BDFC00FF1FAC7E0000D0
:1044A000022808B505D90A480A4A0B4B3D2101F0FC
:1044B0007DFD0A4A52F820301B68002B03DABDE864
:1044C0000840FFF793BFBDE8084001F0EBBC00BF18
:1044D000CC7E0000B87E0000197F0000AC7E00009A
:1044E000024B03449B0001221A6070474001A41054
:1044F00008B5064800F066FC054A41F24403D3586B
:104500001B0F0133B0FBF3F008BD00BF00400640B5
:104510000070044037B5044628B91D481D4A1E4B9B
:10452000722101F043FD1D4D042300932846012212
:104530000223002100F01FFB2046194900F004F976
:10454000607DA17CE27C237D0090284600F013FB77
:1045500041F20403227CE958120421F4403102F4B0
:1045600040320A43EA50637C2A689B0422F44022CA
:1045700003F4402313432B6004F10E01002000F0EC
:1045800079F9FFF7B5FF074B1860002003B030BD85
:10459000907F000097810000DE7F000000700440E3
:1045A000A94500002C00FF1F08B5FFF7A1FF40F64A
:1045B000B833B0FBF3F010F1FF3001D300BFFAE7DE
:1045C00008BD000008B5064800F0FCFB054A41F2B2
:1045D0004403D3581B0F0133B0FBF3F008BD00BFF9
:1045E000004006400070044008B5064800F0EAFBB1
:1045F000054A41F24403D358C3F303630133B0FBCC
:10460000F3F008BD0040064000700440054B1B68F5
:1046100003F104735B011B7F03F0FF000BB1024B3E
:1046200018687047888200008401FF1F09B9FFF7EE
:10463000EDBFFFF7D9BF052808D8DFE800F0030376
:1046400005050505FFF7BEBFFFF7CEBF0020704789
:10465000042808B506D90648064A074B40F2B1219E
:1046600001F0A4FC054B185CBDE80840FFF738BF1B
:10467000907F0000767F0000ED7F000092810000B7
:10468000022808B506D90648064A074B4FF45E7162
:1046900001F08CFC054B185CBDE80840FFF720BF1B
:1046A000907F000079810000CF800000707F0000C3
:1046B000022808B506D90648064A074B40F2AA3137
:1046C00001F074FC054B185CBDE80840FFF708BF1B
:1046D000907F0000577F000007810000737F00007B
:1046E000052808B506D90648064A074B40F2DF31CF
:1046F00001F05CFC054B185CBDE80840FFF7F0BE1C
:10470000907F0000377F00003F810000517F000054
:104710000A4B1A7802F03F0242F080021A70074BEF
:104720009B79C3F38103022BF9D1054B00221A7642
:10473000044A1378002BFCD1704700BF00400640AC
:10474000A000C842D400C8422DE9F0410446457A91
:104750004348434E86B0884600F06DFB2388042B07
:1047600011D1802801D1FFF7D3FF05A82279637901
:104770000190E179CDF80080394800F097FB394B82
:1047800001221A7143E0082B1BD1802801D1FFF7C9
:10479000BFFF344B324800221A71E179237AA279A3
:1047A0008DE8020105A90291294600F0DDFB33786E
:1047B00003F03F0333702A4B9B7913F00C0FFAD1AF
:1047C00025E0802B47D1802805AF0CD0254B002257
:1047D0001A71E179A279237A02978DE802013046B5
:1047E000294600F0C1FB1E4E627B237B8DE88400CE
:1047F00030462946002200F031FC337803F03F03B5
:104800003370174B9B79C3F38103032BF9D1164BFC
:10481000A2781A71E2781A70A3784BB9A07AB8B16D
:104820000F48217B627BE37A00F090FA002013E0CE
:104830002379012B03D10A48617900F03CFA094B36
:1048400022791A70227909490B789A42FCD1E5E75E
:10485000074B187600E0012006B0BDE8F08100BFEC
:10486000004006402000C8420000C842C000C842C4
:104870008000C842054B0A7853F8203003F10473D6
:104880005B011A774A781A75704700BF888200006A
:1048900010B50C4630B11D481D4A1E4B40F24F2149
:1048A00001F084FB8B7A012B16D10B79002B4B790D
:1048B0000CBF00200820002B8B79C9790CBF002287
:1048C000042201431143002B134A0CBF002302238F
:1048D0001068194300F063F9002004F10B01FFF7A1
:1048E000C9FFA37A0D48617A227A00F07CFAA37A94
:1048F000012B05D1E37A1BB1094A1378002BFCD0B8
:10490000084B22681A60002010BD00BFD98100004A
:10491000B28100004C820000888200000040064006
:10492000C400C8428401FF1F08B530B11248134AC1
:10493000134B4FF4307101F039FB124B01221A6016
:10494000114A0B681360114B0A7A1B6803F1047358
:1049500011335B01186840B93AB108795861487958
:1049600018618879D860C87998601A604A7A82F0AC
:1049700001025A60002008BDD9810000C4810000F6
:104980006A820000F40790428801FF1F48830000FC
:10499000F7B50E4B0E4F01244FF085461C600025E5
:1049A0008DF800408DF8014038460099356000F0E0
:1049B000DDFB8DF805408DF804503846019900F074
:1049C000B5FBB561346003B0F0BD00BF0007904295
:1049D000000004408142C0EB010038BF00F5803088
:1049E0007047000008B5034628B90648064A074B39
:1049F000762101F0DBFA4170002018705860986051
:104A000008BD00BFC282000099820000038300003D
:104A100010B5044628B90A480A4A0B4BCC2101F0CC
:104A2000C5FA4378FF2B09D000F0C0FB637801334F
:104A3000DBB2637000F0B0FB002010BD012010BDA0
:104A4000C28200008C8200000383000038B50D464E
:104A5000044630B90748084A084B40F2D71101F024
:104A6000A5FA00F0A3FBE3681D43E56000F094FBAA
:104A7000002038BDC2820000B58200000F83000014
:104A80000A4B00229A6403F140029A6303F1300258
:104A90009A6203F120029A6103F110029A60044ABB
:104AA0001360044B9B60DB60704700BF1C01FF1F5D
:104AB0000801FF1F0C01FF1F014800F065BB00BF8C
:104AC0000000044070B50D46044628B91C481D4A34
:104AD0001D4B932101F06AFA437803F0FF065BB1A6
:104AE00000F064FB6378013BDBB200256370257046
:104AF00000F052FB284670BDE9B1037873B1FFF7AF
:104B0000DBFF01466068A568FFF764FF854214D2A9
:104B100000F04CFB267000F03FFB0CE04B1C0CD06F
:104B200000F044FB0123237000F036FBFFF7C4FFC5
:104B3000A560606001E0022070BD032070BD00BF71
:104B4000C2820000A88200000383000038B504463A
:104B5000FFF7B2FF0546FFF7AFFF01462846FFF714
:104B600039FF8442F7D238BD08B5FFF789FFFFF758
:104B70000FFF002008BD10B59DF808401B05240458
:104B800003F4700304F470242343120643EA017112
:104B900002F0706341F244021943815010BD037862
:104BA00003F0F0031943CBB203707047012907D01B
:104BB00004D30548022918BF00207047034B00E0CA
:104BC000034B1868704700BF006CDC028401FF1FB4
:104BD0008801FF1F017B01F00301FFF7E7BF21FA06
:104BE00002F0A3B19DF80030012B10D0072A0DD898
:104BF000DFE802F0040404040404060840097047D6
:104C0000142300E00C23B0FBF3F070470020704742
:104C100013B500F104735B0104461B7A83B9FFF7F7
:104C2000D9FF227863780146207B00F003000090D2
:104C3000C2F3C2022046C3F30113FFF7D0FF01E025
:104C4000014B186802B010BD3000FF1F10B51AB13B
:104C5000B1F5004F07D90DE0A1F5F444123C41F63F
:104C60008560844208D802EB4302044C34F81200F9
:104C7000484310BD002010BD104610BD4C830000FD
:104C800010B500F1047306335B0104461B7D83B944
:104C9000FFF7BEFF014660B104F1047303335B010B
:104CA00020461A7FE378BDE81040C3F34113FFF7B5
:104CB000CDBF002010BD037AC3F342038B4210B571
:104CC00024D000F1047301335B011A7842B9037AEE
:104CD000490001F00E0103F0F0031943017210BD09
:104CE00000221A7000F10472063252011478002C6E
:104CF000FCD1047A490001F00E0104F0F0042143D4
:104D00000172012119701378012BFCD110BD10B56F
:104D100000F1047306335B0104461B7D3BB900F1CF
:104D2000047304335B011B7E03F0FF006BB120466C
:104D3000FFF750FF237903F01F030133B0FBF3F3B8
:104D4000607900F01F001830584310BD10B5447949
:104D500002F01F0204F0E00414434471027902F0EF
:104D6000800242F0400201F01F015B010A4303F0A0
:104D700020031A430271400100F18440D8300378C7
:104D8000002BFCD010BD000000F104735B011B7907
:104D900003F0FF0283B100F1047301335B011B7860
:104DA00013B9064B18687047054B007A1B68C0F3AF
:104DB000420023FA00F07047104670473000FF1F92
:104DC0003400FF1F8379C3F38103022B09D0032B27
:104DD00003D0012B03D0FFF753BFFFF798BFFFF7B6
:104DE000D3BFFFF7F7BE10B544789B0003F0040370
:104DF00004F0C304D2001C4302F00802090114436A
:104E000001F030010C43447010BD037B01F003023C
:104E100003F0FC031343037361B900F1047301331E
:104E20005B011B7A33B1400100F18440C430037848
:104E3000002BFCD07047034600F1047013F8061FE6
:104E4000013003F104735B0140011A7C00791B7D82
:104E5000C1F38101003318BF01230229D2B2C0B2CD
:104E600011D0032916D0012905D0E3B9002A14BFB7
:104E7000012008207047012A15D1A3B9002814BFCA
:104E800004200220704772B958B9002B0CBF1020C3
:104E9000402070473AB9002B14BF80204FF40070B7
:104EA0007047202070474FF4007070472DE9F84399
:104EB000099E0446884615461F46FFF7BCFF10F0C2
:104EC0001D0F49D004F104720332520100231377FD
:104ED0002378224603F03B0343F0440302F8063BE9
:104EE00002F104724FEA421909F110021378012B02
:104EF000FCD1012D03D120463946FFF7DCFE627854
:104F000005F0010302F0FC021343637099F80030CE
:104F1000AB42FBD1E3784FEA481202F0600203F0A3
:104F20009F031343E370E378C3F341134345FAD17E
:104F3000A379C3F38103012BFAD1089B98471DB9CC
:104F4000074B1B68336004E0064B1B6823FA07F726
:104F500037600020BDE8F8830120BDE8F88300BF7A
:104F60003000FF1F3400FF1F2DE9F84F04460D46A7
:104F7000924699469DF82880FFF75DFF10F07B0F61
:104F8000064665D020462946FFF710FE83460028D6
:104F900061D004F10473053304F104715B0106313F
:104FA000002249011A7601F11400037803F0FF0290
:104FB000002BFAD104F1047701377F01082E3A71F2
:104FC00006D0227B05F0030302F0FC021343237397
:104FD00023784FEACA0A03F003030AF0380A43EAC7
:104FE0000A0A4AF0800A84F800A00B7C002BFCD14E
:104FF000082E06D1227B05F0030302F0FC021343C6
:10500000237325B93B7A13B10B79002BFCD0E378DD
:105010004FEA481202F0600242EAC91903F01F0386
:1050200049EA03095FFA89F984F80390E378C3F346
:1050300041134345FAD1A379C3F38103022BFAD17B
:105040000B9B98470C9B0020C3F800B0BDE8F88F7D
:105050000120BDE8F88F2120BDE8F88FF8B504469F
:105060000F461E46FFF7E7FE10F0B00F55D0204662
:105070003946FFF79BFD0546002850D0721CB0FB57
:10508000F2F2A2F5F412284BA2F590629A4248D8A7
:1050900004F104720132520100231371237803F0EA
:1050A0003F0343F080032370A379C3F38103022BF2
:1050B000FAD120463946FFF7A8FE04F10472043203
:1050C00052010023137604F104720532500104F1F9
:1050D000047206320376530103F114010A78002AA0
:1050E000FCD1227906F01F0602F0E0021643267179
:1050F00062799DF8186002F0E00206F01F06324364
:105100006271012202760A78002AFCD01A7E002AF7
:10511000FCD0079B00201D60F8BD0120F8BD2120B8
:10512000F8BD4120F8BD00BF80841E0082B0026837
:1051300001919DF804109DF8053049009B0001F095
:10514000020103F004030B4322F0BE0213439DF857
:105150000620D20002F0080213439DF80720120136
:1051600002F030021343036002B070478A004B0B19
:1051700002F0040203F078031343C1F301210B434F
:1051800082B0436002B07047C3681B0C1B04C3604D
:10519000C06880B270470000034A13681BB1013B2E
:1051A000136003B962B670478C01FF1F72B6024BE1
:1051B0001A6801321A6070478C01FF1F0023C22257
:1051C000037043708370C37043718371C371037242
:1051D00042728372C37270472DE9F0474FF0000CA2
:1051E0004FF47A7462434FF0FF356446E0464FF067
:1051F000010A0AFA04FA0027DFF8509009EB0706C3
:1052000076880AFB06F6B1FBF6F6B2428CBFC6EB17
:105210000206C2EB0606AE4204D219F807C0A04649
:10522000354616B10437C82FE6D10134032C01D01E
:10523000002DDCD103B11D600CF03F0C4CEA881846
:105240005FFA88F880F80180BDE8F087608300008D
:1052500000F1047302335B011A7D12B101221A724C
:105260007047837843F030038370704708B500F1CE
:10527000047302335B011B7D012B05D00C480D4AE2
:105280000D4BFF2100F092FE837803F0CF03837073
:105290004FF48063C27802F0200202F0FF011AB1DD
:1052A000013B03D000BFF5E7084608BD092008BD53
:1052B000288400007D8400006384000000F10470F5
:1052C000023040010176704702282DE9F843064676
:1052D00006D97448744A754B40F22E2100F066FEE0
:1052E000734B53F8205005F1047206325301714A92
:1052F000EF7852F8204095F803C093F81090197D8C
:1053000093F8188005F10472023252010031107CCA
:1053100018BF0121FFB25FFA8CFC5FFA89F95FFACE
:1053200088F8C0B241B3B9F1000F09D00121197456
:105330000223EB70236B002B00F0B280F0B2A7E0E9
:10534000B8F1000F18D001221A760223EB7094F8FE
:105350002C1011B92846FFF7B1FF236B1BB1F0B237
:105360008021626B9847E37D23B104F1180080210E
:10537000FFF76CFB0A2390E0CCF38013FF064FF09D
:10538000020C85F803C012D51021E97023B1EB7827
:10539000C3F380036BB916E094F82C100823237034
:1053A00000297DD12846BDE8F843FFF787BFA3B1A8
:1053B000EDE701231374236B002B56D0F0B20221CA
:1053C000626B984751E01374236B1BB1F0B2042158
:1053D000626B98472B79BDE8F88301281ED1E878E5
:1053E000C00742D513742B7994F82C301BB911B92E
:1053F0002846FFF763FF236B1BB1F0B20821626BF5
:105400009847A37D23B104F118000821FFF71EFB84
:1054100000236360E3602375BDE8F8832A79A368FD
:10542000D2B203B323691A70236901332361A368DD
:10543000013BA360A368002B32D161B994F82C30F2
:1054400013B92846FFF73AFFE37D23B104F11800B2
:105450002021FFF7FBFA002363752361236BFBB167
:10546000F0B2202114E0072317E06368A3B1E368DA
:105470001B782B71E3680133E3606368013B636071
:1054800063686BB9E3602375236B4BB1F0B21021F5
:10549000626B9847BDE8F88306232370BDE8F88364
:1054A000BDE8F8838E840000DC840000A47A00004C
:1054B0002C7B0000EC00FF1F1F2908B505D90A4806
:1054C0000A4A0B4B2E2100F071FD012A436903D1DA
:1054D0008A401A43426108BD012202FA01F123EA1F
:1054E0000101416108BD00BF1F850000F484000078
:1054F000447C00001F2908B505D90748074A084B16
:10550000422100F053FD012303FA01F10AB1416089
:1055100008BD816008BD00BF1F8500000785000031
:10552000447C000000F104735B0103F150021B6D29
:1055300033B1036823F0004303601368002BFCD1F0
:105540000020704700F104700430400141630020E6
:10555000704700002DE9F04F099F10B90320BDE806
:10556000F08F046804F07F04A14280F0A78000F16E
:1055700004746401646F34B1446BC4F30364640065
:105580000734A142EAD95FBB1479012C50D100EB5A
:10559000011123F06043D1F8840000F06040C1F8AD
:1055A0008400D1F884000343C1F88430D1F88030FE
:1055B00043F40013C1F88030D1F8803023F4800325
:1055C000C1F88030D1F8803023F47023C1F88030E6
:1055D0009368D1F880001B0403F4702303434CE06C
:1055E0000E0185190024D2F80890C5F88840C5F846
:1055F0008C4018254C45C7D0032C17F8048000EBCD
:10560000060C08D8DCF888A008FA05F848EA0A0869
:10561000CCF8888009E0DCF88CA005F1200B08FAB2
:105620000BF848EA0A08CCF88C800134083DE1E721
:10563000002C93D100EB01119B04D1F8840020F0E1
:10564000FF5020F4E010C1F884001E48D1F88440D7
:1056500018402043C1F88400D1F8803023F4C003FF
:10566000C1F88030D1F8803023F47023C1F8803045
:10567000D1F88000936840EA0343C1F88030136892
:105680000F2B18D01C2B07D1D1F8803043F4801396
:10569000C1F880300C231360D1F8803023F07063A0
:1056A000C1F880301368D1F880001B0603F07063E6
:1056B0000343C1F880300020BDE8F08F0120BDE831
:1056C000F08F00BF0000FC1F30B5002879D00468BF
:1056D00004F07F04A14272D200F104746401646F8B
:1056E00034B1446BC4F3036464000734A14268D945
:1056F0001479012C2AD100EB011123F06043D1F879
:10570000800040F40010C1F88000D1F8800020F43F
:105710008000C1F88000D1F8800020F47020C1F82A
:1057200080009068D1F88040000400F4702020438D
:10573000C1F88000D1F8840000F06040C1F8840016
:10574000D1F884000343C1F8843025E0CCBB00EBE2
:1057500001119B04D1F8800020F4C000C1F8800042
:10576000D1F8800020F47020C1F88000D1F880507A
:10577000906845EA0040C1F88000D1F8840020F02C
:10578000FF5020F4E010C1F884000F48D1F8845095
:1057900018402843C1F8840013680F2B0DD0D1F8AE
:1057A000802022F07062C1F88020D1F880201B0692
:1057B00003F070631343C1F88030002030BD012036
:1057C00030BD032030BD00BF0000FC1F30B50028F5
:1057D00039D0036803F07F03994232D200F1047399
:1057E0005B015B6F33B1436BC3F303635B00073350
:1057F000994228D909014318D3F880401460D3F89E
:105800008430A40258BF9B0C53600023032B00EB91
:10581000010406D8D4F88850DC0025FA04F4D472C8
:1058200008E0D4F88C5003F10054043CE40025FA5D
:1058300004F4D4740133082B02F1FF32E6D10020C6
:1058400030BD012030BD032030BD48B1036803F0F6
:105850007F03994206D2083109014358002070475E
:105860000320704701207047036803F07F039942CB
:105870004FF001030AD203FA01F1836A1AB1194306
:1058800081620020704723EA0101F9E7184670475A
:10589000AAB1B1F5806F02D0B1F5006F04D100F16B
:1058A00004735B0101225A65B1F1806F04D100F1EC
:1058B00004735B0101229A664368194308E0B1F161
:1058C000806F03D100F104735B019A66436819404D
:1058D0004160704700F10470400100230367836753
:1058E00060300368002BFCD1704700F10470400168
:1058F00001238367036760300368002BFCD0704787
:1059000038B500F104735B010121044603F1640220
:1059100059661568002DFCD12046FFF7E6FF054BC0
:10592000236120466361A361FFF7D4FFA562284687
:1059300038BD00BFFFFF030038B504460D46FFF732
:10594000D4FF636823F007031B041B0C63602B6800
:10595000616803F00702EB6842EA036343EA01026D
:10596000AB681B0403F4E0216B68DB040A4303F417
:10597000601313432A69920502F4400213436360E3
:105980002046BDE83840FFF7A5BF000038B5044603
:105990000D46FFF7AAFF04F104735B0101225A6769
:1059A000636B0D4A2D0623F0706305F070651D438F
:1059B0006563A2642168002301F07F018B4205D05A
:1059C00003F50870013344F82020F7E72046BDE8CE
:1059D0003840FFF77FBF00BFFFFF030038B5044624
:1059E0000D46FFF782FF236805F07F0223F07F0357
:1059F000134323600023AB420CD004EB03100022BE
:105A0000C0F880200133C0F88420C0F88820C0F896
:105A10008C20F0E72046BDE83840FFF75BBF036A03
:105A20005B071CBF07230362704710B518B3D0F89B
:105A300080300B6013F4001FD0F8843008BF9B0C3B
:105A40004B600023032B06D8D0F88840DA0024FAF4
:105A500002F2CA7208E003F10052D0F88C40043A16
:105A6000D20024FA02F2CA740133082B01F1FF318B
:105A7000E8D1002010BD032010BD38B504460D4606
:105A8000FFF733FF04F1047302335B010DB91D60AE
:105A900001E001221A602046BDE83840FFF71ABF36
:105AA000036803F07F03994270B504460D4616461D
:105AB0000DD2FFF71AFF074BB60405F50875334002
:105AC000204644F82530FFF705FF002070BD012077
:105AD00070BD00BF0000FC1F036803F07F03994204
:105AE00070B504460D4616460CD205F50875C6F38A
:105AF0001106FFF7FAFE204644F82560FFF7EAFE9C
:105B0000002070BD012070BD38B504460D46FFF77A
:105B1000ECFE044B03EA854525612046BDE838408C
:105B2000FFF7D8BE0000FC1F38B504460D46C5F38C
:105B30001105FFF7DAFE25612046BDE83840FFF782
:105B4000C9BE032938B505460C4602D1FFF7CDFE84
:105B500022E0042905D100F104756D010123EB67F2
:105B60001AE0FFF7C2FE24B905F104735B01DC659E
:105B70000FE0012C05D105F1047304335B01DC60F7
:105B800007E0022C0AD105F1047304335B01012202
:105B90001A632846FFF79EFE002038BD032038BD5B
:105BA00010B500F104735B0100220121084C9A63D7
:105BB0001960C4624FF0F0448260C4600461026303
:105BC0004263D962996244F20103036010BD00BFD1
:105BD00000000A9A2DE9F04F85B001910168009309
:105BE00000295DDA0024590002914FF001084FF0BE
:105BF000FF312746A44626462B4D55F826500395DF
:105C00000025DFF8A890039B59F825A00AFB03FAAA
:105C1000009BB3FBFAF94A4509D3C9EB020B59457E
:105C200005D959464C462F46B4464FF0010871B18C
:105C3000029BB3FBFAFA524509D3CAEB0209494564
:105C400005D9494654462F46B4464FF0020801355F
:105C5000102D01D00029D4D10136042E01D0002905
:105C6000CAD1DDF8049000EB890303F104730C330F
:105C70005B0100EB890008F1FF32DA67C2684FEA86
:105C80000C4303F4403322F440321343C360C3682F
:105C900007F00F0723F00F031F43C760204600E003
:105CA000002005B0BDE8F08FCC8500008C85000099
:105CB0000368012AC3F3054302680CBF0B438B43FF
:105CC0001B0403F47C1322F47C121343036070471B
:105CD0000368C3F3803330B500F1047013B144019D
:105CE0000025A563400181F0010182F001024163BA
:105CF00002630BB10123836330BD1368032B30B5FE
