:1000000000000320D9040000E9040000E904000016
:10001000E9040000E9040000E90400000000000019
:10002000000000000000000000000000E9040000E3
:10003000E904000000000000E9040000E9040000F9
:10004000E9040000E9040000E9040000E9040000FC
:10005000E9040000E9040000E9040000E9040000EC
:10006000E9040000E9040000E9040000E9040000DC
:10007000E9040000E9040000E9040000E9040000CC
:10008000E9040000E9040000E9040000E9040000BC
:10009000E9040000E9040000E9040000E9040000AC
:1000A000652C0000E9040000E5200000F1200000BC
:1000B000E9040000E9040000E90400009D200000BC
:1000C000E9040000A9200000E9040000B5200000B8
:1000D000E9040000C1200000E90400004D1F0000F9
:1000E000E9040000E9040000E9040000E90400005C
:1000F000E9040000E9040000E9040000E90400004C
:10010000991F000041200000E9040000E9040000FC
:10011000E9040000E9040000E9040000E90400002B
:10012000E9040000E904000061200000052E000041
:10013000E9040000ED2D0000E9040000E9040000DE
:10014000E9040000FD200000CD200000E9040000CB
:10015000D9200000E9040000E9040000E9040000DF
:10016000E9040000E9040000E90400006D2000003B
:100170007920000085200000E9040000E904000067
:1001800091200000E9040000E9040000E9040000F7
:10019000E9040000E9040000E9040000E9040000AB
:1001A000E9040000E9040000E9040000E90400009B
:1001B000E9040000E9040000E9040000E90400008B
:1001C000E9040000E9040000E9040000E90400007B
:1003F000E9040000E9040000E9040000FFFFFFFF3A
:10040000FFFFFFFFFFFFFFFFFFFFFFFFFEFFFFFFFD
:1004100010B5054C237833B9044B13B10448AFF33E
:1004200000800123237010BDB800FF1F00000000F2
:100430000C8E000008B5064B1BB106480649AFF309
:1004400000800648036813B1054B03B1984708BD07
:10045000000000000C8E0000BC00FF1FB000FF1F5A
:1004600000000000154B002B08BF134B9D46A3F561
:10047000803A00218B460F461348144A121A05F0A1
:10048000FCFF0F4B002B00D098470E4B002B00D0E9
:1004900098470020002104000D000D48002802D0DC
:1004A0000C48AFF3008005F0B9FF2000290002F0EE
:1004B0006DFC05F08DFF00BF000008000000032068
:1004C0000000000000000000B800FF1F0003FF1F35
:1004D000000000000000000072B602F005FD02F00E
:1004E0009DFC62B6FFF7BEFFFFF7FEBF81F0004143
:1004F00002E000BF83F0004330B54FEA41044FEA09
:10050000430594EA050F08BF90EA020F1FBF54EAA3
:10051000000C55EA020C7FEA645C7FEA655C00F03F
:10052000E2804FEA5454D4EB5555B8BF6D420CDD10
:100530002C4480EA020281EA030382EA000083EA93
:10054000010180EA020281EA0303362D88BF30BD33
:1005500011F0004F4FEA01314FF4801C4CEA113189
:1005600002D0404261EB410113F0004F4FEA0333E8
:100570004CEA133302D0524263EB430394EA050F73
:1005800000F0A780A4F10104D5F1200E0DDB02FAE2
:100590000EFC22FA05F2801841F1000103FA0EF276
:1005A000801843FA05F359410EE0A5F120050EF13C
:1005B000200E012A03FA0EFC28BF4CF0020C43FA6D
:1005C00005F3C01851EBE37101F0004507D54FF07A
:1005D000000EDCF1000C7EEB00006EEB0101B1F5CA
:1005E000801F1BD3B1F5001F0CD349085FEA300010
:1005F0004FEA3C0C04F101044FEA445212F5800F1B
:1006000080F09A80BCF1004F08BF5FEA500C50F1B7
:10061000000041EB045141EA050130BD5FEA4C0C9A
:10062000404141EB010111F4801FA4F10104E9D123
:1006300091F0000F04BF01460020B1FA81F308BF1A
:100640002033A3F10B03B3F120020CDA0C3208DDE6
:1006500002F1140CC2F10C0201FA0CF021FA02F1C1
:100660000CE002F11402D8BFC2F1200C01FA02F131
:1006700020FA0CFCDCBF41EA0C019040E41AA2BF56
:1006800001EB0451294330BD6FEA04041F3C1CDA1E
:100690000C340EDC04F11404C4F1200220FA04F03E
:1006A00001FA02F340EA030021FA04F345EA0301E8
:1006B00030BDC4F10C04C4F1200220FA02F001FAAA
:1006C00004F340EA0300294630BD21FA04F029462C
:1006D00030BD94F0000F83F4801306BF81F48011C5
:1006E0000134013D4EE77FEA645C18BF7FEA655C38
:1006F00029D094EA050F08BF90EA020F05D054EA0A
:10070000000C04BF1946104630BD91EA030F1EBF0E
:100710000021002030BD5FEA545C05D14000494112
:1007200028BF41F0004130BD14F580043CBF01F505
:10073000801130BD01F0004545F0FE4141F47001EB
:100740004FF0000030BD7FEA645C1ABF19461046C6
:100750007FEA655C1CBF0B46024650EA013406BFC7
:1007600052EA033591EA030F41F4002130BD00BF86
:1007700090F0000F04BF0021704730B54FF4806443
:1007800004F132044FF000054FF0000150E700BFC4
:1007900090F0000F04BF0021704730B54FF4806423
:1007A00004F1320410F0004548BF40424FF0000110
:1007B0003EE700BF42004FEAE2014FEA31014FEA53
:1007C00002701FBF12F07F4393F07F4F81F06051A2
:1007D000704792F0000F14BF93F07F4F704730B511
:1007E0004FF4607401F0004521F0004120E700BFA4
:1007F00050EA010208BF704730B54FF000050AE02B
:1008000050EA010208BF704730B511F0004502D52B
:10081000404261EB41014FF4806404F132045FEA2D
:10082000915C3FF4DCAE4FF003025FEADC0C18BFD2
:1008300003325FEADC0C18BF033202EBDC02C2F1C8
:10084000200300FA03FC20FA02F001FA03FE40EA5A
:100850000E0021FA02F11444C1E600BF70B54FF05A
:10086000FF0C4CF4E06C1CEA11541DBF1CEA13553C
:1008700094EA0C0F95EA0C0F00F0DEF82C4481EAA4
:10088000030621EA4C5123EA4C5350EA013518BFC4
:1008900052EA033541F4801143F4801338D0A0FBB1
:1008A00002CE4FF00005E1FB02E506F00042E0FB5E
:1008B00003E54FF00006E1FB03569CF0000F18BF64
:1008C0004EF0010EA4F1FF04B6F5007F64F540740C
:1008D00004D25FEA4E0E6D4146EB060642EAC6219F
:1008E00041EA55514FEAC52040EA5E504FEACE2E0C
:1008F000B4F1FD0C88BFBCF5E06F1ED8BEF1004F0F
:1009000008BF5FEA500E50F1000041EB045170BD8A
:1009100006F0004646EA010140EA020081EA0301CE
:10092000B4EB5C04C2BFD4EB0C0541EA045170BDCA
:1009300041F480114FF0000E013C00F3AB8014F144
:10094000360FDEBF002001F0004170BDC4F100048D
:10095000203C35DA0C341BDC04F11404C4F120050E
:1009600000FA05F320FA04F001FA05F240EA020069
:1009700001F0004221F0004110EBD37021FA04F69F
:1009800042EB06015EEA430E08BF20EAD37070BD59
:10099000C4F10C04C4F1200500FA04F320FA05F0B8
:1009A00001FA04F240EA020001F0004110EBD370BA
:1009B00041F100015EEA430E08BF20EAD37070BD2A
:1009C000C4F1200500FA05F24EEA020E20FA04F303
:1009D00001FA05F243EA020321FA04F001F00041B2
:1009E00021FA04F220EA020000EBD3705EEA430E23
:1009F00008BF20EAD37070BD94F0000F0FD101F052
:100A00000046400041EB010111F4801F08BF013C8A
:100A1000F7D041EA060195F0000F18BF704703F0C8
:100A20000046520043EB030313F4801F08BF013D4F
:100A3000F7D043EA0603704794EA0C0F0CEA13550B
:100A400018BF95EA0C0F0CD050EA410618BF52EAC5
:100A50004306D1D181EA030101F000414FF00000CB
:100A600070BD50EA410606BF1046194652EA4306D9
:100A700019D094EA0C0F02D150EA013613D195EA4D
:100A80000C0F05D152EA03361CBF104619460AD195
:100A900081EA030101F0004141F0FE4141F470019F
:100AA0004FF0000070BD41F0FE4141F4780170BD8F
:100AB00070B54FF0FF0C4CF4E06C1CEA11541DBFF4
:100AC0001CEA135594EA0C0F95EA0C0F00F0A7F8F6
:100AD000A4EB050481EA030E52EA03354FEA013123
:100AE00000F088804FEA03334FF0805545EA131336
:100AF00043EA12634FEA022245EA111545EA1065FE
:100B00004FEA00260EF000419D4208BF964244F194
:100B1000FD0404F5407402D25B084FEA3202B61AB3
:100B200065EB03055B084FEA32024FF480104FF487
:100B3000002CB6EB020E75EB030E22BFB61A7546FB
:100B400040EA0C005B084FEA3202B6EB020E75EB8E
:100B5000030E22BFB61A754640EA5C005B084FEAF6
:100B60003202B6EB020E75EB030E22BFB61A7546C3
:100B700040EA9C005B084FEA3202B6EB020E75EBCE
:100B8000030E22BFB61A754640EADC0055EA060E8F
:100B900018D04FEA051545EA16754FEA06164FEAD2
:100BA000C30343EA52734FEAC2025FEA1C1CC0D17E
:100BB00011F4801F0BD141EA00014FF000004FF00B
:100BC000004CB6E711F4801F04BF01430020B4F1CC
:100BD000FD0C88BFBCF5E06F3FF6AFAEB5EB030C84
:100BE00004BFB6EB020C5FEA500C50F1000041EB81
:100BF000045170BD0EF0004E4EEA113114EB5C044E
:100C0000C2BFD4EB0C0541EA045170BD41F4801120
:100C10004FF0000E013C90E645EA060E8DE60CEA28
:100C2000135594EA0C0F08BF95EA0C0F3FF43BAF45
:100C300094EA0C0F0AD150EA01347FF434AF95EAFC
:100C40000C0F7FF425AF104619462CE795EA0C0FE0
:100C500006D152EA03353FF4FDAE1046194622E7AD
:100C600050EA410618BF52EA43067FF4C5AE50EA87
:100C700041047FF40DAF52EA43057FF4EBAE12E777
:100C80004FEA410212F5001215D211D56FF47873B4
:100C9000B3EB625212D94FEAC12343F0004343EA57
:100CA000505311F0004F23FA02F018BF4042704732
:100CB0004FF00000704750EA013005D111F00040BC
:100CC00008BF6FF0004070474FF00000704700BF52
:100CD0004BB942B9002908BF002802D04FF0FF31BC
:100CE000084600F03BB882B0EC462DE9005000F019
:100CF0001DF8DDF804E002B00CBC70472DE970432C
:100D0000069E14461D468046894600F029F804FBDD
:100D100001F300FB0533A4FB00451D44B8EB0404BC
:100D200069EB0505C6E90045BDE870832DE9704310
:100D3000069E1446804689461D4600F05DF900FB7C
:100D400005F504FB0153A0FB04451D44B8EB040466
:100D500069EB0505C6E90045BDE87083704700BF33
:100D600000292DE9F00FC0F29F800024002BC0F273
:100D70009680154606460F46002B3ED18A4257D92B
:100D8000B2FA82F34BB1C3F1200201FA03F720FA61
:100D900002F29D40174300FA03F6290CB7FBF1F26B
:100DA000330C01FB127CA8B243EA0C4700FB02F3B0
:100DB000BB4209D97F1902F1FF3C80F00181BB429F
:100DC00040F2FE80023A2F44FF1AB7FBF1F3B6B2AD
:100DD00001FB137146EA014100FB03F0884208D988
:100DE000491903F1FF3780F0ED80884240F2EA8034
:100DF000023B43EA0242002303E08B420AD900236C
:100E00001A461046194614B1404261EB4101BDE853
:100E1000F00F7047B3FA83F8B8F1000F40F0848008
:100E20008B4202D3824200F2DE8000230122E8E7F7
:100E300012B90123B3FBF2F5B5FA85F2002A39D1D4
:100E40007F1B280C1FFA85FC0123B7FBF0F1320C45
:100E500000FB117742EA07470CFB01F2BA4207D9BF
:100E60007F1901F1FF3802D2BA4200F2C180414637
:100E7000BF1AB7FBF0F2B6B200FB127046EA0040B0
:100E80000CFB02FC844507D9401902F1FF3702D25E
:100E9000844500F2AB803A4642EA0142B1E7E443BE
:100EA000524263EB430364E7404261EB41014FF080
:100EB000FF345BE79540C2F1200327FA03F1280CC9
:100EC00026FA03F39740B1FBF0F81F433B0C00FBFD
:100ED00018111FFA85FC43EA01410CFB08F38B4211
:100EE00006FA02F608D9491908F1FF3279D28B4285
:100EF00077D9A8F102082944C91AB1FBF0F3BFB2AF
:100F000000FB131147EA01470CFB03F2BA4207D971
:100F10007F1903F1FF3160D2BA425ED9023B2F4400
:100F2000BF1A43EA084390E7C8F1200203FA08FC1D
:100F300025FA02F343EA0C0C4FEA1C4921FA02F3AA
:100F400001FA08F720FA02F2B3FBF9F1174309FBA3
:100F500011333A0C1FFA8CFB42EA03430BFB01FAF4
:100F60009A4505FA08F008D913EB0C0301F1FF329A
:100F700035D29A4533D902396344CAEB0303B3FB34
:100F8000F9F209FB1233BFB247EA03470BFB02F940
:100F9000B94508D917EB0C0702F1FF331BD2B9454D
:100FA00019D9023A674442EA0145A5FB0001C9EBA1
:100FB00007078F424FF000030AD305D02A4620E7E7
:100FC000624601E73B4614E706FA08F68642F5D288
:100FD0006A1E002315E71A46E5E70B46A0E711460F
:100FE000CBE7904688E7434642460AE7023A53E792
:100FF00002392F443CE700BF2DE9F00F14460546A7
:101000000E46002B43D18A4253D9B2FA82F757B128
:10101000C7F1200620FA06F601FA07F302FA07F4F0
:101020001E4300FA07F5210CB6FBF1F22B0C01FB75
:101030001267A0B243EA074600FB02F3B34209D9A4
:10104000361902F1FF3780F0F680B34240F2F380A8
:10105000023A2644F61AB6FBF1F3ADB201FB136176
:1010600045EA014100FB03F0884208D9091903F160
:10107000FF3680F0E280884240F2DF80023B43EAA4
:101080000242002310461946BDE8F00F70478B421C
:101090004AD8B3FA83F6002E4DD18B4202D3824256
:1010A00000F2D6800023012210461946BDE8F00F59
:1010B000704712B90124B4FBF2F4B4FA84F2002AA6
:1010C0007CD1091B260CA7B20123B1FBF6F02A0C38
:1010D00006FB101142EA014107FB00F28A4207D9E0
:1010E000091900F1FF3C02D28A4200F2C380604637
:1010F000891AB1FBF6F2ADB206FB121145EA0145C1
:1011000007FB02F7AF4208D92C1902F1FF3180F03A
:101110009680A74240F29380023A42EA004210468B
:101120001946BDE8F00F704700231A4610461946CD
:10113000BDE8F00F7047C6F1200522FA05F4B34070
:101140001C434FEA144821FA05F301FA06F720FA86
:1011500005F5B3FBF8FC2F4308FB1C333D0C1FFACD
:1011600084FA45EA03430AFB0CF9994502FA06FBA7
:1011700004D91B190CF1FF326DD39446C9EB03035C
:10118000B3FBF8F508FB1533BFB247EA03470AFB88
:1011900005F8B84504D93F1905F1FF3361D31D4661
:1011A00045EA0C4CACFB0B23C8EB07079F424FF002
:1011B000000549D345D062462B4663E79440C2F10F
:1011C000200321FA03FC260C20FA03F301FA02F5AE
:1011D000BCFBF6F843EA05010B0C06FB18CCA7B2E2
:1011E00043EA0C4C07FB08F3634500FA02F509D902
:1011F0001CEB040C08F1FF323AD2634538D9A8F150
:101200000208A444C3EB0C0CBCFBF6F389B206FB4A
:1012100013CC41EA0C4107FB03F28A4207D90919B2
:1012200003F1FF3022D28A4220D9023B2144891A9D
:1012300043EA084349E73A460CE733461FE70A46C4
:101240006BE7B0409042B6D20CF1FF32002319E7B1
:101250003346324616E799458FD9ACF1020C234448
:101260008CE7B8459BD9023D274499E70346DEE762
:101270009046C7E7023821443AE700BF80B483B004
:1012800000AF78607B68033303F104735B010C33B8
:1012900001221A700C37BD465DF8047B704700BF11
:1012A00080B483B000AF78607B68033303F10473CC
:1012B0005B01083301221A700C37BD465DF8047BD0
:1012C000704700BF80B483B000AF78600B46FB70FE
:1012D0007B68023303F104735B011033FA781A70F0
:1012E0000C37BD465DF8047B704700BF80B483B007
:1012F00000AF78600B46FB707B6803F104735B0101
:101300001433FA781A700C37BD465DF8047B7047C9
:10131000B0B58CB000AFF860B9601346FB712A4BD2
:101320001B78002B01D003234AE0274BFA791A706F
:10133000FB68DAB2244B5A70FB79102B3FD1234B58
:1013400007F110041D460FCD0FC495E8030084E893
:101350000300FB689B0007F13002134453F8203C64
:10136000FB62194BFA6A5A60F86803F023FAF868CE
:1013700003F0B3F9B862F86AB96ABA6801F0D2FD4D
:10138000F86A0021FFF79EFFF86A002101F0EBFDEB
:10139000F86A0021FFF7AAFFF86AFFF76FFFF86A03
:1013A000FFF77EFF084B0A4A9A60074B094ADA604A
:1013B00000BFFB68DAB2044B5A70002300E001233F
:1013C00018463037BD46B0BDD400FF1FEC73000097
:1013D000892F0000AB2F000080B584B000AFF8600B
:1013E000B9607A60BB68002B02D14FF0FF3318E080
:1013F000FB68012B05D0FB68022B02D04FF0FF33B6
:101400000FE00A4B1B78002B02D14FF0FF3308E0AE
:10141000064B9B68054A51687A680846B968984740
:101420007B6818461037BD4680BD00BFD400FF1F43
:1014300080B584B000AFF860B9607A60FB68002BBB
:1014400002D04FF0FF330FE0094B1B78002B02D185
:101450004FF0FF3308E0064BDB68054A51687A68B5
:101460000846B96898477B6818461037BD4680BD66
:10147000D400FF1F0FB480B584B002AF0D4B1B78B2
:10148000002B02D14FF0FF330DE007F114033B6056
:101490003B680093002008494FF0FF323B6900F0A1
:1014A0002DF878607B6818460837BD46BDE8804057
:1014B00004B07047D400FF1FBD14000080B584B095
:1014C00000AF786039607B68DBB2FB730A4B1B7836
:1014D000002B02D14FF0FF330AE0074B9B68064A0E
:1014E000516807F10F020846114601229847002370
:1014F00018461037BD4680BDD400FF1F80B5A4B08C
:1015000004AFF860B9607A603B600023FB617B68E0
:101510003B657B68B3F1FF3F01D1B04B7B603B681B
:10152000FB6782E3FB6C252B07D0BB68F86CF9687E
:101530009847FB690133FB6174E3012387F85B3053
:101540000023FB6600233B674DE0FB6F0133FB6725
:10155000FB6F1B785BB2203B102B3ED801A252F8E8
:1015600023F000BFBD150000DB150000DB150000F7
:10157000D1150000DB150000DB150000DB150000B5
:10158000DB150000DB150000DB150000DB1500009B
:10159000B3150000DB150000A9150000DB150000E5
:1015A000DB150000C7150000FB6E43F00103FB666E
:1015B00019E0FB6E43F00203FB6614E0FB6E43F0A0
:1015C0000403FB660FE0FB6E43F00803FB660AE0D2
:1015D000FB6E43F01003FB6605E0FB6F013BFB670E
:1015E00001233B6700BF3B6F002BAED00023BB66DF
:1015F00000233B671BE0FB6F0133FB67FB6F1B782E
:101600005BB2FB64FB6C303B092B0AD8BA6E134605
:101610009B0013445B001A46FB6C1344303BBB66D3
:1016200005E0FB6F013BFB6701233B6700BF3B6F9E
:10163000002BE0D006237B65FB6F0133FB67FB6F5C
:101640001B785BB22E2B24D100237B6500233B67E4
:101650001BE0FB6F0133FB67FB6F1B785BB2FB6426
:10166000FB6C303B092B0AD87A6D13469B00134460
:101670005B001A46FB6C1344303B7B6505E0FB6F57
:10168000013BFB6701233B6700BF3B6F002BE0D0B2
:1016900002E0FB6F013BFB67FB6F0133FB67FB6FF6
:1016A0001B785BB2682B04D06C2B0FD04C2B1ED058
:1016B00019E0FB6F0133FB67FB6F1B785BB2682B94
:1016C00003D0FB6F013BFB6712E011E0FB6F0133BE
:1016D000FB67FB6F1B785BB26C2B03D0FB6F013B8E
:1016E000FB6705E004E0FB6F013BFB6700E000BF28
:1016F000FB6F0133FB67FB6F1B785BB2FB64FB6C1A
:10170000583B202B00F2868201A252F823F000BF42
:10171000B7180000151C0000151C0000151C000067
:10172000151C0000151C0000151C0000151C0000F5
:10173000151C0000151C00001B1A00004F1B0000A8
:1017400095170000151C0000151C0000151C00005A
:10175000151C000095170000151C0000151C00004A
:10176000151C0000151C0000FF1B0000EF190000F5
:10177000471A0000151C0000151C0000711B00001A
:10178000151C0000811A0000151C0000151C00002B
:10179000B1180000D7F888301A1DC7F888201B68D8
:1017A000BB6107F1200207F1180397F85B10009165
:1017B0001046194601220A2300F04AFA786707F119
:1017C00020027B6F1344BB67BB69002B08DA2D2313
:1017D0007B667B6F01337B671AE000BFFEFFFF7FF4
:1017E000FB6E03F00203002B05D02B237B667B6F7F
:1017F00001337B670CE0FB6E03F00403002B05D084
:1018000020237B667B6F01337B6701E000237B66CF
:1018100000233B66FB6E03F00803002B1BD07B6E9E
:10182000002B06D0BB68786EF9689847FB690133D6
:10183000FB6101233B66BA6E07F11C03B968009196
:10184000F9680191391D02913020796F00F088FA12
:10185000BB6E7B671DE0FB6E03F00103002B18D10C
:10186000BA6E07F11C03B9680091F9680191391D3E
:1018700002912020796F00F073FA7B6E002B06D066
:10188000BB68786EF9689847FB690133FB610123F7
:101890003B663B6E002B0AD17B6E002B07D0BB68EA
:1018A000786EF9689847FB690133FB612AE129E109
:1018B000002387F85B30D7F888301A1DC7F88820D6
:1018C0001B687B6107F1200207F1140397F85B1096
:1018D0000091104619460022102300F0B9F97867EC
:1018E00007F120027B6F1344BB6700233B66FB6E4E
:1018F00003F00803002B28D0FB6E03F01003002B2D
:1019000013D0BB683020F968984797F85B30002BFC
:1019100001D0582300E07823BA681846F968904748
:10192000FB690233FB6101233B66BA6E07F11C03BE
:10193000B9680091F9680191391D02913020796FE1
:1019400000F00EFABB6E7B6732E0FB6E03F0010322
:10195000002B2DD1FB6E03F01003002B02D07B6F08
:1019600002337B67BA6E07F11C03B9680091F9680E
:101970000191391D02912020796F00F0F1F9FB6E81
:1019800003F01003002B13D0BB683020F968984790
:1019900097F85B30002B01D0582300E07823BA6819
:1019A0001846F9689047FB690233FB6101233B66E7
:1019B000FB6E03F01003002B18D03B6E002B15D1EB
:1019C000BB683020F968984797F85B30002B01D04E
:1019D000582300E07823BA681846F9689047FB69F5
:1019E0000233FB617B6F02337B678BE08AE0D7F8C1
:1019F00088301A1DC7F888201B687B6107F1200218
:101A000007F1140397F85B10009110461946002265
:101A1000082300F01DF9786747E0D7F888301A1DD1
:101A2000C7F888201B687B6107F1200207F11403C7
:101A300097F85B100091104619460022022300F02F
:101A400007F9786731E0D7F888301A1DC7F8882081
:101A50001B687B61D7F888301A1DC7F888201B687F
:101A60007B6107F1200207F1140397F85B100091E6
:101A7000104619460022102300F0EAF8786714E0B7
:101A8000D7F888301A1DC7F888201B687B6107F1DA
:101A9000200207F1140397F85B10009110461946D5
:101AA00000220A2300F0D4F8786707F120027B6F48
:101AB0001344BB67FB6E03F00803002B0FD0BA6E14
:101AC00007F11C03B9680091F9680191391D029171
:101AD0003020796F00F044F9BB6E7B6712E0FB6E3B
:101AE00003F00103002B0DD1BA6E07F11C03B96896
:101AF0000091F9680191391D02912020796F00F061
:101B00002FF90CE00BE0BB6F5A1EBA671B785AB274
:101B1000BB681046F9689847FB690133FB61BB6FEE
:101B20001B78002BEFD1FB6E03F00103002B0DD0CF
:101B3000BA6E07F11C03B9680091F9680191391D6B
:101B400002912020796F00F00BF96BE06AE0D7F882
:101B500088301A1DC7F888201B68DBB25BB2BB64F3
:101B6000BB68B86CF9689847FB690133FB6159E0C1
:101B7000D7F888301A1DC7F888201B68FB65FB6DF5
:101B8000002B3BD0F86D04F0A9FD03467B67FB6E8C
:101B900003F00103002B0DD1BA6E07F11C03B968E5
:101BA0000091F9680191391D02912020796F00F0B0
:101BB000D7F80CE00BE0FB6D5A1CFA651B785AB2A3
:101BC000BB681046F9689847FB690133FB61FB6D00
:101BD0001B78002BEFD1FB6E03F00103002B0DD01F
:101BE000BA6E07F11C03B9680091F9680191391DBB
:101BF00002912020796F00F0B3F813E012E0D7F8DB
:101C000088301A1DC7F888201B687B64FA697B6CD2
:101C10001A6007E0BB68F86CF9689847FB69013304
:101C2000FB6100BFFB6F0133FB67FB6F1B785BB28F
:101C3000FB64FB6C002B7FF475AC7B68002B01D040
:101C4000FB6900E03B6D18468037BD4680BD00BF94
:101C500080B48DB000AFF860B9607A603B6000235B
:101C6000FB61FB68BB61BB695A1CBA6100221A7038
:101C70007B68002B33D0BB681B68FB62FB6A002BC0
:101C800006D1BB6930221A70FB690133FB6160E049
:101C900021E0FA6A3B6892FBF3F37B617B693A6867
:101CA00002FB03F3FA6AD31ABB62BB6A002B04DAA5
:101CB000BB6AC3F13003BB6202E0BB6A3033BB6274
:101CC0007B69FB62BB695A1CBA61BA6AD2B21A70EC
:101CD000FB690133FB61FB6A002BDAD139E0BB6899
:101CE0001B687B627B6A002B06D1BB6930221A70AD
:101CF000FB690133FB612CE028E03B687A6AB2FBA8
:101D0000F3F33B613B683A6902FB03F37A6AD31A47
:101D10003B623B6A092B03D83B6A30333B620AE0E3
:101D200097F83830002B01D0412300E061233A6A54
:101D300013440A3B3B623B697B62BB695A1CBA6134
:101D40003A6AD2B21A70FB690133FB617B6A002BDD
:101D5000D3D1FB6918463437BD465DF8047B704724
:101D600080B586B000AFF860B9607A603B60BB6850
:101D70007B610EE0FB68DBB25AB23B6A1046796ABF
:101D800098473B681B685A1C3B681A607B690133A3
:101D90007B617A697B689A42ECDB1837BD4680BD6F
:101DA00080B582B000AF00237B6000BF0B4B1B7877
:101DB000DBB283F00103DBB2002BF7D100F066FD4C
:101DC00078607B68DBB27B6005487968FFF752FB7F
:101DD000024B00221A700837BD4680BDF400FF1F79
:101DE0000474000080B500AF1C4B08225A601B4BE6
:101DF00000225A72194B00221A72184B00229A7252
:101E000000201749174A02F0A1FA03461A46164B5A
:101E10001A70154B1B78002B02D0144804F046FCB6
:101E20000E4B134A1A6000200C49124A02F000FBC4
:101E300003461A460C4B1A700B4B1B78002B06D02E
:101E4000094B1B780C48194604F0B8FB05E0094B18
:101E50001B680A48194604F0B1FB80BD3402FF1F1D
:101E6000F801FF1F0000FF1F4002FF1F1874000051
:101E700040420F003002FF1F4474000070740000E5
:101E800080B485B000AFF860B9607A60064BFA683C
:101E90005100BA680A44796843F822101437BD46E5
:101EA0005DF8047B704700BF4C02FF1F80B483B015
:101EB00000AF78603960074B7A6851003A680A448D
:101EC00033F812309BB218460C37BD465DF8047BE0
:101ED000704700BF4402FF1F80B584B000AF786038
:101EE0000023FB6028E07868F968032202F038FFDD
:101EF0000346002B1DD07868F96802F003FF034603
:101F00001946104B7A685000FA68024423F8121000
:101F10000D4B7A685100FA680A4453F82230002BBE
:101F200007D0094B7A685100FA680A4453F8223006
:101F30009847FB680133FB60FB68012BD3D910374E
:101F4000BD4680BD4402FF1F4C02FF1F80B500AF9D
:101F50000020FFF7C1FF80BD80B582B000AF786080
:101F600039603B68032B06D908484FF49C71084A36
:101F7000084B04F011FA7A683B681B01134403F51F
:101F8000847301225A600837BD4680BDE8740000A2
:101F90009C7900002075000080B500AF204B1B68C5
:101FA00018460021FFF7D8FF1E4B1B68184601F0AA
:101FB000B3FE1D4B1B889BB201339AB21A4B1A8099
:101FC0001A4B1B889BB201339AB2184B1A80184BDC
:101FD0001B685A1C164B1A60164B1B78DBB2013378
:101FE000DAB2144B1A70134B1B78DBB2642B0CD98A
:101FF000114B1B78022B08D1104B1B68184601F0BF
:102000008BFE0C4B00221A7009E00B4B1B78012B46
:1020100005D10A4B1B681846002101F071FE80BDF6
:10202000047D0000107A0000F201FF1FDA01FF1F9B
:10203000FC00FF1FD601FF1FD701FF1FE079000042
:1020400080B500AF044B1B6818460121FFF784FFE1
:10205000024B01225A7080BD047D00000001FF1F69
:1020600080B500AF002001F053FA80BD80B500AF0D
:10207000002002F031F880BD80B500AF002002F0F2
:102080002BF880BD80B500AF002002F025F880BDA0
:1020900080B500AF002002F01FF880BD80B500AF12
:1020A000002001F073F880BD80B500AF012001F081
:1020B0006DF880BD80B500AF022001F067F880BDEB
:1020C00080B500AF032001F061F880BD80B500AF9E
:1020D000042001F05BF880BD80B500AF052001F061
:1020E00055F880BD80B500AF002002F02BFA80BD0E
:1020F00080B500AF012002F025FA80BD80B500AFA9
:10210000022002F01FFA80BD80B483B000AF786077
:102110007B68043303F104735B0134331B68002BC9
:102120000CBF00230123DBB218460C37BD465DF817
:10213000047B704780B5B2B000AF714B00221A60CB
:10214000704B10221A606F4B00221A716D4B0022E7
:102150005A716C4B00229A716B4B08221A606B4BC0
:1021600009221A606A4B4FF492721A60694B4FF45D
:1021700091721A60684B07F164011A46642308469D
:1021800011461A4604F070F9644B39461A46642326
:10219000084611461A4604F067F9614B1B68184659
:1021A0006049584A01F0EAFE03461A465E4B1A603F
:1021B0005D4B1B68002B0AD0514B1B685A1C504BBF
:1021C0001A60594B1B685948194604F0F7F9544BEB
:1021D0001A68574B53F822301846FFF795FF03460D
:1021E000002B07D00020012102F072FA0246514B69
:1021F0001A6006E00020002102F06AFA02464D4B08
:102200001A604C4B1B684C4A934210D04B4A934285
:102210001AD1434B1B68DAB207F164031046194622
:1022200001F038FE03461A463F4B1A6012E03C4B61
:102230001B68DAB23B461046194601F02BFE0346F6
:102240001A46394B1A6005E03A4B1B683C48194660
:1022500004F0B4F9344B1B68002B0AD0284B1B68E0
:102260005A1C274B1A60304B1B683648194604F03D
:10227000A5F92B4B1B68DBB21846002101F022FEAA
:10228000274B1B68DBB2184601214FF4927201F014
:102290002FFE03461A46244B1A60234B1B68002B63
:1022A0000AD0174B1B685A1C154B1A601E4B1B6833
:1022B0002548194604F082F9194B1B68DAB2124B13
:1022C0001B68104601211A4640F2231301F032FE2A
:1022D00003461A46144B1A60134B1B68002B0AD096
:1022E000074B1B685A1C064B1A600F4B1B6817489C
:1022F000194604F063F900F02BF8C837BD4680BDDD
:10230000AC02FF1F5C02FF1FB002FF1F6C02FF1F29
:10231000B402FF1F6402FF1F4C760000B07600007D
:10232000E400FF1F8002FF1F7C02FF1F48750000B2
:102330009C8100007402FF1F006CDC020087930385
:1023400070750000A8750000D475000004760000C8
:1023500080B584B000AF01233B710823BB600D4BF7
:102360001B68D8B20C4B19680C4B1B683A1D01F066
:1023700077FE0346FB60FB68002B08D0084B1B6808
:102380005A1C074B1A600748F96804F017F9103710
:10239000BD4680BDE400FF1FB002FF1FB402FF1F57
:1023A000AC02FF1F1477000080B584B000AFF86066
:1023B000B9601346FB71BB681F2B05D90D48FF217F
:1023C0000D4A0E4B03F0E8FFFB68BA6853F8223061
:1023D00023F0807323F4E063FA79120202F4E062DE
:1023E00043EA0201FB68BA6843F822101037BD4681
:1023F00080BD00BF80780000CC790000B878000074
:1024000080B483B000AF78600B46FB707B68FA78CD
:102410001A700C37BD465DF8047B704780B584B0F8
:1024200000AF3B4600221A60043300221A600433D6
:1024300000221A60043300221A600433054B3B600B
:1024400002237B723B460020194602F08BFA1037BC
:10245000BD4680BD80F0FA0280B584B000AF064A68
:102460003B1D07CA83E807003B1D0020194602F008
:10247000C5FA1037BD4680BDC478000080B500AFF6
:1024800008482A21FFF7BCFF074812210022FFF766
:102490008BFFFFF7C3FFFFF7DFFF044802F08CF864
:1024A00080BD00BF00E0074000900440B479000008
:1024B00080B500AF002000F0E1F800204FF4E131DA
:1024C0001022FEF725FF80BD80B584B000AFF86014
:1024D000B9601346FB71BB681F2B05D90948D92188
:1024E000094A0A4B03F058FFBB689B00FA68134483
:1024F00003F104735B011433FA791A601037BD4697
:1025000080BD00BFD0780000547A00000879000038
:1025100080B584B000AFF860B9601346FB71BB684A
:102520001F2B05D90D48FF210D4A0E4B03F034FF38
:10253000FB68BA6853F8223023F0807323F4E06319
:10254000FA79120202F4E06243EA0201FB68BA6817
:1025500043F822101037BD4680BD00BFD078000080
:10256000407A00000879000080B582B000AF786042
:10257000064813210222FFF7CBFF04481221022252
:10258000FFF7C6FF0837BD4680BD00BF00A004406E
:1025900080B582B000AF78607B68002B02D0012B41
:1025A00015D029E0164818210522FFF7B1FF14487D
:1025B00018210122FFF788FF114819210522FFF792
:1025C000A7FF0F4819210122FFF77EFF14E00D48F5
:1025D0000A210222FFF79CFF0A480A210122FFF785
:1025E00073FF08480B210222FFF792FF05480B21D9
:1025F0000122FFF769FF00BF0837BD4680BD00BF5D
:1026000000D0044000B0044080B582B000AF7860D4
:102610007B68002B02D0012B15D029E01648002141
:102620000222FFF775FF144803210222FFF770FF13
:10263000114801210222FFF76BFF0F4802210222FD
:10264000FFF766FF14E00C4804210722FFF760FF44
:10265000094807210722FFF75BFF074805210722EA
:10266000FFF756FF044806210722FFF751FF00BF7E
:102670000837BD4680BD00BF00C0044080B582B0B1
:1026800000AF78607B68002B02D0042B0BD015E0E4
:102690000C4810210322FFF73BFF0A4811210322B7
:1026A000FFF736FF0AE008480E210322FFF730FF4C
:1026B00005480F210322FFF72BFF00BF0837BD4657
:1026C00080BD00BF00A0044000B0044080B483B0CF
:1026D00000AF786039603B681B781A463B685B78CE
:1026E0001B01DBB203F01003DBB21343DAB27B68E9
:1026F0009A700C37BD465DF8047B704780B500AF1B
:1027000000200021FFF7D2FB03461A46024B1A6055
:10271000024B01221A7080BDE800FF1FF400FF1F6A
:1027200080B58AB000AF01233B7000237B7000238B
:102730007B6200233B6207F10803184602F00CFAA3
:102740000323FB720023BB7403233B7307F10803CD
:102750000020194602F012FA07F11403002019466E
:1027600002F08EF907F114030020194602F0C8F9AF
:102770003B4623481946FFF7A9FF01233B77032374
:102780007B7707F11C030020194602F041FA1B2356
:102790003B710023BB7100237B713B1D0020002196
:1027A0001A4602F051FA0020002102F069FA0020D6
:1027B000002102F0CFFA03467B620020002102F0E4
:1027C00083FA104A7B6AB2FBF3F33B620E4A3B6A20
:1027D000B2FBF3F20D4B1A603A6A13469B001344A6
:1027E0005B000B4AB2FBF3F20A4B1A6000233B700A
:1027F0003B4603481946FFF769FF2837BD4680BDB1
:1028000000D0074018FCE70334FDCB02EC00FF1FAB
:10281000ACF95306F000FF1F80B588B000AF7860B8
:1028200007F118037868194602F02AF907F118032E
:102830007868194602F064F907F10C03184602F0B3
:102840008BF90323FB7301233B750023BB75032323
:102850003B7407F10C037868194602F08FF9786829
:102860000021094AFFF70CFB1A233B720023BB72BD
:1028700001237B7207F10803786800211A4602F0F1
:10288000E3F92037BD4680BDFD26000080B483B04B
:1028900000AF00237B600B4B1B681A460A4B1B687A
:1028A000D31A642202FB03F2084B1B6892FBF3F37A
:1028B000C3F119037B607B6818460C37BD465DF891
:1028C000047B7047E800FF1FEC00FF1FF000FF1FB4
:1028D00084B080B586B000AF07F1200C8CE80F0003
:1028E000052002F043FB3B1D07F12000194600F0D4
:1028F00091F93B791B029AB27B791343FB82BB7936
:102900001B029AB2FB791343BB82B7F91630184603
:10291000FDF73EFF02460B461046194621A3D3E9B8
:102920000023FDF79BFF02460B4610461946FEF7B3
:10293000A7F903469BB21BB2002BB8BF5B427B8258
:10294000B7F914301846FDF723FF02460B46104630
:10295000194614A3D3E90023FDF780FF02460B4676
:1029600010461946FEF78CF903469BB21BB2002BAA
:10297000B8BF5B423B827B8ADBB23B703B8ADBB2F7
:102980007B703B781A467B78054811461A46FEF75D
:1029900071FD1837BD46BDE8804004B0704700BFE8
:1029A00014790000BA490C022B87863FAFF30080F0
:1029B00080B582B000AF786039603C4B1B68002B5B
:1029C0000BD1786800F074F8384B1B685A1C374BF1
:1029D0001A603B68002B26D101E0022362E0786890
:1029E0002B21402200F084F84FF4FA7002F0BEFA76
:1029F00078682A210122FE2300F0D6F878685B214E
:102A00005F2200F075F878685C21202200F070F8F1
:102A100078680E21012200F06BF878682A210D22D7
:102A200000F066F83DE03B681B78072B0BD83B684D
:102A30001B7878682A21382200F0B6F83B685B786A
:102A4000072B0ED801E002232CE03B685B78786806
:102A50005B211C2200F0A8F83B689B78022B0ED863
:102A600001E002231EE03B689B7878685B2103222B
:102A700000F09AF83B68DB78022B10D801E00223C3
:102A800010E03B68DB7878680E21032200F08CF8B8
:102A900078682A210122012300F086F801E0022350
:102AA00000E0002318460837BD4680BDF800FF1F30
:102AB00080B582B000AF78607B681A687B680C33A1
:102AC0001046194600F03EFE7B6864229A607B68DF
:102AD0001D229A807B681A687B6804331046194669
:102AE00000F09CFE002318460837BD4680BD00BF9D
:102AF00080B58AB004AF786013460A46FA70BB709E
:102B00007B6804337B610023FB74FB783B74BB78E8
:102B10003B737B681A6807F1100307F10C01009101
:102B20000121019164210291104679691A4601231D
:102B300000F0A2FF0346FB74FB7C002B01D00123B5
:102B400000E0002318461837BD4680BD80B58CB024
:102B500004AFF8600B467A60FB72FB680433FB61DC
:102B60000023FB76FB7A3B76FB681A6807F11803B3
:102B700007F1140100910121019164210291104695
:102B8000F9691A46012300F084FF0346FB76FB7EB9
:102B9000002B01D0012303E03A7D7B681A700023EB
:102BA00018462037BD4680BD80B584B000AF786040
:102BB000F970BA707B700023FB73FA7807F10E038B
:102BC000786811461A46FFF7C1FF0346FB73FB7B8B
:102BD000002B01D0022318E0BA7BBB781340DBB294
:102BE000BB73BA7B7B781343DBB2BB73BB7BFA78D6
:102BF000786811461A46FFF77BFF0346FB73FB7BA1
:102C0000002B01D0022300E0002318461037BD46F8
:102C100080BD00BF80B588B004AF786039607B6844
:102C20000433FB600023FB7201233B727B681A684C
:102C300007F10803396800910C2101916421029188
:102C40001046F9681A46012300F023FF0346FB7281
:102C5000FB7A002B01D0012300E000231846103737
:102C6000BD4680BD80B500AF002000F06FFF80BD85
:102C700080B500AF002001F03DFD012001F03AFDDC
:102C8000022001F037FD032001F034FD042001F0A3
:102C900031FDFFF7F3FBFFF70BFC0020FFF7B4FC5F
:102CA0000020FFF775FC0020FFF75EFC02F06CF9D6
:102CB000FFF798F8FFF73EFA104B00221A600F4812
:102CC0000021FFF775FE0E4800F0E2FF0D4800F00E
:102CD000DFFF0D4800F06AFF0C4800F0D9FF094BF8
:102CE0009B691846002101F00BF8FFF719FD002041
:102CF000FFF792FD00F00CF880BD00BFB802FF1F87
:102D0000E0790000107A00000800FF1F287A000018
:102D100080B500AF0020012100F038FB0020002129
:102D2000154A00F0A9FB00200121144A00F0A4FB81
:102D30001348FEF79FFB0020002100F051FB1148D3
:102D4000FEF798FB0020012100F04AFB0E4B1B68A8
:102D500018460021012200F097FA0B4B1B68184619
:102D60000021002200F0ACFA074B1B681846002136
:102D7000052200F0C1FA80BD3000FF1F3800FF1FA0
:102D800028790000507900002C00FF1FF0B58BB0AF
:102D900008AF00237B60FFF76BFF104B02221A7015
:102DA0000F4803F083FC0F4B1B687A689A4213D0DC
:102DB0000C4B1B687B60FEF7F3FF0B4E6C4606F175
:102DC00010050FCD0FC495E80F0084E80F0096E8BA
:102DD0000F00FFF77DFDE6E7E5E700BFD701FF1F26
:102DE0007C790000FC00FF1FB802FF1F80B500AF18
:102DF00040F2062000F0ACFF014B01221A7080BDAA
:102E0000D701FF1F80B500AF042000F0A1FF0248EA
:102E100003F04CFC80BD00BF8479000080B489B011
:102E200000AF284BFB60284A284B9A4216D000235B
:102E3000FB610AE0254BFA6953F82210224BFA692C
:102E400043F82210FB690133FB61FB689A08FB69B8
:102E50009A42EFD81E4B1C4A9A6002E01C4B1B4A58
:102E60009A601C4BBB611C4B7B611C4BBB60BA68FE
:102E70007B69D31AFB6107E0BB695A1CBA617A69A6
:102E8000511C796112781A70FB695A1EFA61002B85
:102E9000F2D1134B3B61134B7B607A683B69D31AC9
:102EA000FB6104E03B695A1C3A6100221A70FB691D
:102EB0005A1EFA61002BF5D12437BD465DF8047B1C
:102EC000704700BF0000000000000000000000008C
:102ED00000ED00E00000FF1F348E0000E88E0000CF
:102EE000B800FF1F0003FF1F80B400AF0B4B0B4A5D
:102EF000D2F8882042F47002C3F88820084B4CF2C4
:102F00002052DA81064B4DF62812DA81044B4FF439
:102F1000E9721A80BD465DF8047B704700ED00E061
:102F2000002005401201B1FBF2F370B59CB2661EA1
:102F3000B6B241F6FE75AE4213D8057805F0E0054D
:102F400045EA1424DBB204704370837A4901B1FB73
:102F5000F2F203F0E00302F01F021A438272002033
:102F600070BD022070BD00F10470023040014B08BA
:102F700001F001010371017070470379C17170475D
:102F80000379C3790B70704730B5430103F1844373
:102F90009C330A44914207D01C78002CFCD011F8D5
:102FA000014B0579C471F5E730BD034600F10470AB
:102FB0000430400170B50A4400F1140400F10C051E
:102FC000002091420DD02678002EFCD01E79DE79AB
:102FD00001F8016B2E78002EF3D01879D8790F20E4
:102FE000EFE770BDCBB210B5090A012404FA03F370
:102FF00003292AD8DFE801F0020C16201AB1027862
:103000001343DBB202E0027822EA0303037010BD2F
:103010001AB1C2781343DBB202E0C27822EA03039A
:10302000C37010BD1AB182791343DBB202E082791A
:1030300022EA0303837110BD1AB1427C1343DBB251
:1030400002E0427C22EA0303437410BD0B0A032B07
:103050000FD8DFE803F002040608007904E04079A5
:1030600002E0007B00E0807CC9B2084100F0010072
:1030700070470020704740F20713994220D0B1F505
:10308000847F0DD2072904D8052924D20379C37976
:1030900018E0B1F5807F1ED0B1F5837F14D011E028
:1030A000B1F5407F14D002D8A1F2062105E040F22C
:1030B000013399420AD0A1F2063101290BD901E06E
:1030C00080234371002070474023FAE7022300E089
:1030D00001238374F6E7042070470000052838B503
:1030E00006D90E480E4A0F4B40F2C32103F054F9A3
:1030F0000D4B53F820400D4B53F8203003F104736F
:1031000003335B0100221A77A37D15461BB104F13E
:10311000180001F08DFE257538BD00BF8D7A0000C6
:10312000A77B0000D17A00009401FF1F288A0000CD
:10313000052838B506D91048104A114B40F20A311B
:1031400003F02AF90F4B53F820400F4B53F820009F
:1031500000F1047303335B0100251D7540F2032168
:103160002A46FFF73FFFE37D1BB104F1240001F085
:103170005FFE657538BD00BF8D7A0000707A000073
:10318000D17A00009401FF1F288A0000F8B5324B65
:1031900053F82040314B53F82050237D064613B995
:1031A000637D002B56D005F1047303335F013B7D33
:1031B000EBB105F1047304335B011B7DBBB1AB7D47
:1031C000ABB12846A168FFF7DBFE236B1BB130468D
:1031D00021469847F3E7A3680133A3602369013BC5
:1031E00023612369002BEAD13046FFF7A1FF3B7F23
:1031F0002BB305F1047304335B011B7FFBB1E36860
:10320000EBB12B7D2778FF1AFFB2C7B16368284660
:103210001978FFF7B2FEA36B1BB1304621469847E1
:1032200005E0636801336360E368013BE360E368E2
:10323000013FFFB2002BE8D13046FFF74FFF284691
:103240000321FFF703FF28B128460321BDE8F8401A
:10325000FFF711BFF8BD00BF9401FF1F288A0000CF
:1032600010B59DF808401B05240403F4700304F412
:1032700070242343120643EA017102F0706341F2A5
:1032800044021943815010BD012908B505D90948E8
:10329000094A0A4B802103F07FF800F5805000F1C5
:1032A000180000F104704FEA401014BFC261C263FD
:1032B00008BD00BFDE7B0000BF7C0000297C000051
:1032C000012908B505D90948094A0A4BB82103F074
:1032D00063F800F5805000F1180000F104704FEA27
:1032E000401014BF0261026308BD00BFDE7B000016
:1032F000C17B0000297C0000012908B505D90B48D5
:103300000B4A0C4BF02103F047F841F21803C15867
:1033100004D002F00F0221F00F0104E0120202F4C7
:10332000706221F470610A43C25008BDDE7B000068
:10333000E37C0000297C000008B50348034A044BE5
:103340004FF48D7103F028F8887D00005B7E00004B
:10335000B67D000008B50348034A044B9C2103F0E6
:103360001BF800BF887D0000577D0000B67D00007F
:1033700008B50348034A044BD42103F00DF800BFFD
:10338000887D00006A7D0000B67D000010B504460F
:1033900028B10D480D4A0E4B3F2102F0FDFF0D4BA9
:1033A00001221A600C4B1B6803F104735B0151404E
:1033B0005860196001F06AF9084902460023C1E922
:1033C0000023204610BD00BFDC7D0000237D0000EF
:1033D0001E7E0000DC079042047D00000801FF1FF4
:1033E00008B528B10A480B4A0B4BA22102F0D4FFC2
:1033F000032901D9FFF7AEFF084B1B6803EB01114E
:1034000001F1047101F58471490101230B6008BDCC
:10341000DC7D0000447D00001E7E0000047D000075
:1034200010B50C4628B10E480E4A0F4BC42102F0CD
:10343000B3FF0E4B09CBA0FB020102FB03110C4AA8
:103440000023FDF745FC032C00F1FF3001D9FFF705
:103450008FFF084B103424011B68185110BD00BFAA
:10346000DC7D0000087D00001E7E00000801FF1FBB
:1034700040420F00047D000038B50C46154620B1CF
:1034800019481A4A1A4B60211BE05268FFF7C8FF1F
:10349000032C2A7801D9FFF74FFF164B1B6803EB6B
:1034A000041303F1047303F584735B015A60D2B112
:1034B000114B1A5D53B2002B05DA1048104A114B1C
:1034C0005D2102F069FF552B04DD0C480C4A0E4BC0
:1034D0005E21F6E7012102F01F0201FA02F25B0908
:1034E0000A4941F8232038BDDC7D0000307D000012
:1034F0001E7E0000047D0000FD7C0000247B000097
:10350000497E00005F7B00006E7B000000E100E070
:1035100008B528B11048114A114B4FF4B47107E0B7
:10352000104B1B6833B90C480C4A0F4B40F2691121
:1035300002F032FF0D4B1B6803F104735B010122A3
:10354000DA610B4B1A682AB11A68126812B11B684B
:103550001B68984708BD00BF827E00006D7E00009A
:10356000C87E000000079042E87E0000548A0000F8
:103570001001FF1F022838B50D4606D90A480B4A2C
:103580000B4B40F2B71102F007FF0A4B53F82040F3
:1035900004F11800294601F0A5FC0328F8D008B171
:1035A00004232374207C38BD937F00001E8000001C
:1035B000DC7F00001401FF1F2DE9F04F022885B0C9
:1035C0000546164606D93F483F4A404B4FF4FE7128
:1035D00002F0E2FE3E4AB1F8009052F820703D4AF7
:1035E0009DF838A052F820400022ADF80C200122AE
:1035F000DAF1010A94F812B0E274A2744FEA992247
:1036000038BF4FF0000A1E3AD2F1000858EB02080A
:103610005FFA89F1B8F1000F03D04FEA19298E46FD
:1036200000E089464FEA49095FFA89F9B8F1000FCD
:1036300003D126B95FFA8AF102E0002100E0414699
:1036400041EA09098DF80C90B8F1000F03D08DF80C
:103650000DE0022100E0012103A8A060E1602846FE
:1036600087F804900F990193FFF784FF217C019B59
:1036700041B93EB1A660E36033783B7128460F99AB
:10368000FFF778FF237CABB9BAF1000F12D0B8F185
:10369000000F00D176B10123E36000233846A36018
:1036A00049F0010901F0D0FF87F8049028460F99EE
:1036B000FFF760FF207C84F812B00023E37405B0AC
:1036C000BDE8F08F937F00004A800000DC7F00009F
:1036D000648000001401FF1F022810B5034606D9BC
:1036E0001348144A144B4FF4EA7102F055FE134A82
:1036F00052F82000124A52F82340E37C2BB1237C7D
:10370000052B02D0237C042B09D100F10473023372
:103710005B0100221A7601F0A5FF01236374A37CEC
:103720002BB104F11800BDE8104001F081BB10BDC1
:10373000937F000031800000DC7F00006480000087
:103740001401FF1F2DE9F04104460D4621B9274819
:10375000274A284B592105E0022805D92348244A45
:10376000254B5A2102F018FEDFF8AC80234B58F8A5
:10377000206053F82070002E34D1242208463146B0
:1037800002F07BFE314605F1180001F03BFB2046BC
:1037900000F0F8FF384601F00DFF194B48F82450AF
:1037A0001A5D53B2002B04DA1648174A174B5D21F5
:1037B000D8E7552B04DD1348134A154B5E21D1E79A
:1037C00058091449012302F01F0203FA02F241F8DA
:1037D000202007F10470023040016B7403773046FB
:1037E000BDE8F0810120BDE8F08100BF937F0000BB
:1037F000287F0000FA7F0000DC7F0000648000006A
:103800005E800000247B0000687F00005F7B00007A
:103810006E7B000000E100E01401FF1F70B50C4654
:1038200021B91148114A124BAF2105E0022805D9F0
:103830000D480E4A0F4BB02102F0AEFD0E4A52F871
:1038400020600E4A52F820504A686B699A4209D0AB
:1038500000F01CFF002301466268304601F0B8FE0C
:1038600063686B6170BD00BF937F00004E7F0000F6
:1038700001800000DC7F0000648000001401FF1F55
:103880002DE9F04F87B0022807468946DDF84880C9
:103890009DF84CB005D93348334A344B40F272217D
:1038A00006E0109C34B92F482F4A314B40F2732167
:1038B00002F072FD2F4C54F820502F4C54F8204049
:1038C000667C16B90320207449E005F1047A0026CD
:1038D0000AF1020AE660BBF1000F2674A6602660BA
:1038E000667484F812B04FEA4A1A08BF4FF01E08F7
:1038F00004920393FFF792FF012102208AF810102F
:10390000E8708AF818102846059101F09DFE059987
:10391000039B049A8DE8020138464946FFF74CFEA6
:10392000237C6BB9109A119BA260E36013782B7112
:10393000BBF1000F11D038464146FFF71BFE0CE0EB
:10394000237C042B09D18AF81860EB789B0602D5FA
:10395000284601F087FE01236374207CC0B207B0C3
:10396000BDE8F08F937F00003B7F0000DC7F00000C
:10397000997B0000648000001401FF1F2DE9F04FC7
:1039800085B0022880468A460E9EDDF840909DF85C
:1039900044B005D93248334A334B40F2CE2105E0DA
:1039A00036B92F482F4A314B40F2CF2102F0F4FCB8
:1039B0002F4C54F820502F4C54F82040677C17B9F6
:1039C0000320207448E026600F9E666005F10476AF
:1039D00000270236E760BBF1000F2774A760677409
:1039E00084F812B04FEA461608BF4FF01E09039242
:1039F0000293FFF713FF012102203174E870317642
:103A0000284601F021FE039A029B8DE88002404681
:103A10005146FFF7D1FD227C02F0FF0372B90F9AE5
:103A20003374012A0CBF327333732B79BBF1000F4F
:103A300010D040464946FFF79DFD0BE0237C042B48
:103A400008D13776EB789B0602D5284601F00AFEAE
:103A500001236374207CC0B205B0BDE8F08F00BFC5
:103A6000937F000008800000DC7F0000A07B000046
:103A7000648000001401FF1F1FB5069C0094079C82
:103A80000194089C029401240394FFF7F9FE04B00A
:103A900010BD1FB5069C0094079C0194089C0294DD
:103AA00001240394FFF76AFF04B010BD022838B563
:103AB00006D92148214A224B4FF4B37102F06CFC25
:103AC000204A52F8205005F1047302220233EA70B2
:103AD0005B011D4A52F820401A7CE9788906D2B26F
:103AE00028D5197D31B3012A13D1EB78DB0702D534
:103AF0000523237409E0E368013BE3602BB1A3686D
:103B00005A1CA2605B782B7138BDBDE83840FFF7C6
:103B1000E3BD6268013A62601AB1012A04D0002252
:103B200002E0FFF7D9FD00E01A7323685A1C2260F7
:103B30002A791A7038BD00BF937F00007A7F000099
:103B4000DC7F0000648000001401FF1F022808B51C
:103B500005D90B480B4A0C4B442102F01DFC0B4AC3
:103B600052F8203003F1047302335B011B7D1BB15B
:103B7000BDE80840FFF79ABFBDE8084001F0A0BDCE
:103B800070800000BB800000DC7F000064800000CB
:103B900008B50348034A044BFF2102F0FDFB00BFB8
:103BA00014810000E7800000438100002DE9F84304
:103BB00004682F4BC4F30727064653F827902D4B74
:103BC000E4B2384653F8275000F094FD1F2C01D979
:103BD000FFF7DEFF55F8242022F0807222F4E06225
:103BE00042F4807245F824202146002205EB840827
:103BF000484601F05DFE08F104735B0132795A60BA
:103C000072791A60B2791A61F379D5F8C020A340AD
:103C10001343C5F8C030327A55F82430110423F02C
:103C2000877301F4702123F480330B4345F824306B
:103C3000DAB1114BDB5DC3B15AB2002A04DA0F4886
:103C40000F4A104B5D2105E0552A05DD0B480C4A53
:103C50000D4B5E2102F0A0FB012103F01F0301FACE
:103C600003F35209094941F82230BDE8F88300BF47
:103C7000548C0000688C00007C8C0000247B0000C9
:103C8000858100005F7B00006E7B000000E100E0AA
:103C90002DE9F0410468184A0546C4F30720E4B250
:103CA00052F82070154A52F8206000F023FD1F2CB6
:103CB00001D9FFF76DFF56F8242022F0807222F41C
:103CC000E06242F4807246F8242038462146012200
:103CD00001F0EEFD06EB84086A683846214601F0E3
:103CE00005FE08F104735B012A7A9A606A7A9A6188
:103CF000AA7A5A61BDE8F081548C0000688C0000FB
:103D000003460A46C0F30720024951F82000D9B201
:103D100001F0ECBD548C0000C0F3072208B5C0B21E
:103D2000074B1F2853F8223005D90648064A074B8F
:103D3000CB2102F031FB012202FA00F0D86008BD6D
:103D4000548C00004D810000FB8000007C8100004D
:103D5000C0F3072208B5C0B20A4B1F2853F822301F
:103D600006D90948094A0A4B40F2B31102F014FB84
:103D700003EB800000F10470033040010123036075
:103D800008BD00BF688C000014810000CE800000D8
:103D900043810000002808B504DA0B480B4A0C4B9D
:103DA0005D2105E0552805DD0748084A094B5E21DD
:103DB00002F0F2FA4209012300F01F0003FA00F0BA
:103DC000054B43F8220008BD247B00001683000049
:103DD0005F7B00006E7B000000E100E070B50546EF
:103DE00030B11048104A114B40F2CB3102F0D4FAF6
:103DF0000F4B1E680F4B1C682A46A168304601F025
:103E000075FE30464FF480412A4601F083FE94F857
:103E10002B301BB104F11C0001F00AF8002384F8D8
:103E2000293070BDD2810000808200001C82000019
:103E30009C8100002001FF1F70B5054630B110487D
:103E4000104A114B40F2AE3102F0A6FA0F4B1E6839
:103E50000F4B1C682A46E168304601F047FE3046A9
:103E60004FF480412A4601F055FE94F82A301BB1E8
:103E700004F1100000F0DCFF002384F8283070BD4E
:103E8000D2810000458200001C8200009C8100005D
:103E90002001FF1F10B5044628B10648064A074B0B
:103EA000542102F079FA064B186801F087FE20468B
:103EB00010BD00BFD2810000A18100001C82000063
:103EC0009C81000008B528B10548064A064B7721B9
:103ED00002F062FA054B1868BDE8084001F00FBF18
:103EE000D2810000B88100001C8200009C8100008B
:103EF00038B50C460546114628B10A480A4A0B4B0C
:103F0000AA2102F049FA0A4B18681CB901F03EFFD9
:103F1000204638BD012C03D101F048FF284638BDAA
:103F2000032038BDD2810000628200001C820000A4
:103F30009C81000010B50C46114628B10B480C4A74
:103F40000C4BCD2102F028FA0B4A106824B91A460E
:103F5000BDE8104001F0E6BE012C04D11A46BDE8D0
:103F6000104001F0FBBE032010BD00BFD281000055
:103F7000CE8200001C8200009C810000F8B50D4636
:103F8000174620B12B482C4A2C4BF02104E029B9CC
:103F90002848294A2A4BF12102F0FEF9294B1E68D4
:103FA000294B01211960304601F0C8FC00283FD19F
:103FB000304601F0B3FC304601F0E4FD002837D173
:103FC0003046396801F04CFE7B791BB130463979B7
:103FD00001F01EFE3046B97901F0F5FE044630BB13
:103FE000214605F1100000F00DFF214605F11C00EF
:103FF00000F008FF154B93F90000FFF7CBFE144BC0
:1040000093F90000FFF7C6FE124B93F90000FFF78B
:10401000C1FE114B93F90000FFF7BCFE0F4B85F872
:1040200028402C6085F829401D60AC60EC6020467B
:10403000F8BD00BFD2810000EE8200001C820000AB
:104040003A8200009C81000090079042A08100000D
:104050009881000097810000998100002001FF1FD6
:10406000F0B50D4685B01F4630B11648164A174BBD
:104070004FF4DB7102F090F91548066815480068A6
:1040800004AC8160506812788DF808200F2244F843
:104090000C2D03902246304601F058FC78B901906F
:1040A0002946304622463B4601F050FC38B90423ED
:1040B00001933046294622463B4601F047FC05B0B5
:1040C000F0BD00BFD2810000FF8200001C82000012
:1040D0009C8100002001FF1F2DE9F743DFF80481D8
:1040E0003C4F58F8204057F82050226BA36A1340E9
:1040F0000193019B0646002B66D0019B9B0635D59C
:1041000004F104735B015B6F83B3296800294FD00E
:10411000204601F0CCFD36B12F48304A304B40F2FA
:10412000E73102F039F93F68D8F800904FF0050800
:1041300041464846002208F1010801F0D7FCB8F1D9
:10414000080FF5D148464FF48041002201F0E2FC0F
:10415000002387F829303B6097F82B301BB107F11B
:104160001C0000F065FE019B236321E0AB68012782
:104170009F40019B1F420FD0A968204601F0A7FC79
:10418000A9686A68204601F063FC3046A368FFF71F
:1041900025FE019B1F402763EB6801279F40019B81
:1041A0001F4205D03046FFF747FE019B1F402763A3
:1041B000EB6801259D40019B1D4205D03046FFF76D
:1041C0003BFE019B1D402563204601F06AFD03B0C4
:1041D000BDE8F0832001FF1FD2810000A88200000B
:1041E0001C8200009C8100002DE9F341434B53F8F1
:1041F0002040434B53F82050237A8DF80230237827
:104200008DF801300027637A8DF800300646694644
:1042100028468DF803708DF8047001F047FF62683E
:10422000E369D4F82080082A62D9EA6A910162D54C
:10423000344A52F82620C3EB0803B2EB530F5AD985
:10424000E369022B17D101238DF8033028460023A0
:1042500069468DF8003001F029FF6369BBB194F81D
:1042600034201F780AB1BFB211E05A1C62615B783A
:1042700047EA03270BE063694BB11A46023312F891
:10428000011B626113F8017C636141EA072747EA79
:1042900000036B634FF00073EB62E369023BE36181
:1042A000E36943B3E369C0E7164A52F82620C3EB3B
:1042B000080393421FD2E369012B08D18DF8033024
:1042C0002846002369468DF8003001F0EFFE63694F
:1042D00013B113F8017B636147EA00036B634FF08E
:1042E0000073EB62E369013BE361E3691BB1E369DE
:1042F000EA6A9201D8D402B0BDE8F0812401FF1F20
:10430000B4830000A48300000E4B70B553F8205016
:104310000D4B53F8206000243046214622462C7471
:1043200001F0B3FE30462146224601F0A7FE95F883
:1043300024302BB105F12800BDE8704000F078BDB5
:1043400070BD00BF2401FF1FB4830000304B2DE976
:10435000F74353F8207015460C463822814608462C
:10436000002102F08AF8484600F0F4F900F08EF9D6
:104370002B782370EB782372AB786372E06007F1DF
:104380000478384601F04EFD4FEA4818002104F148
:10439000280000F037FD01266B78C8F87C603846AD
:1043A000C8F87830E9782A7901F0C4FD38463146FA
:1043B000324601F0CFFD0022334629780096384678
:1043C00001F01DFE134B43F82940134B13F809204D
:1043D00053B2002B04DA1148114A124B5D2105E05B
:1043E000552B05DD0D480E4A0F4B5E2101F0D4FF21
:1043F0005B0902F01F020D490020964041F823603E
:10440000C8F83800C8F8000003B0BDE8F08300BF6A
:10441000B48300002401FF1FB0830000247B000050
:10442000448300005F7B00006E7B000000E100E041
:104430002DE9F04190460D4631B91048104A114B14
:1044400040F20F1101F0A8FF0F4B53F820400F4B23
:10445000217853F82070E3682E46384656F8042B2E
:1044600001F0FAFC2178C8F800003246384601F025
:1044700086FD6B686360BDE8F08100BF5683000075
:1044800028830000018000002401FF1FB483000086
:1044900038B52A4B53F82040294B226A53F8203074
:1044A000054632B9E369002B3ED02846FFF79CFE53
:1044B0003AE06268082A0FD8DA6A910323D4F1E758
:1044C0004FF400319A6BD962A16949B9226A023A64
:1044D0002262226A002AE5D0DA6A9203E2D5EFE787
:1044E000206A022804D194F8340008B10A70EDE77C
:1044F0000A70A169C2F30722481CA0614A70A26930
:104500000132A261E2E74FF40032996BDA62A269EC
:104510001AB11170A2690132A261226A013A2262C3
:10452000226A002AC8D1BDE7E36933B9236A23B9F7
:104530002846BDE83840FFF7E7BE38BD2401FF1F1D
:10454000B4830000022808B505D90A480A4A0B4B73
:104550003D2101F021FF0A4A52F820301B68002B50
:1045600003DABDE80840FFF793BFBDE8084001F05B
:10457000DBBD00BFD4830000C083000021840000A5
:10458000B4830000024B03449B0001221A60704771
:104590004001A41008B5064800F010FE054A41F29B
:1045A0004403D3581B0F0133B0FBF3F008BD00BF29
:1045B000004006400070044037B5044628B91D4845
:1045C0001D4A1E4B722101F0E7FE1D4D042300938E
:1045D0002846012202230021FEF742FE2046194907
:1045E00000F01CF9607DA17CE27C237D00902846D0
:1045F000FEF736FE41F20403227CE958120421F44E
:10460000403102F440320A43EA50637C2A689B043A
:1046100022F4402203F4402313432B6004F10E01E3
:10462000002000F091F9FFF7B5FF074B186000205C
:1046300003B030BD988400009F860000E68400002F
:10464000007004404D4600004000FF1F08B5FFF712
:10465000A1FF40F6B833B0FBF3F010F1FF3001D307
:1046600000BFFAE708BD000008B5064800F0A6FD47
:10467000054A41F24403D3581B0F0133B0FBF3F05A
:1046800008BD00BF004006400070044008B5064861
:1046900000F094FD054A41F24403D358C3F3036389
:1046A0000133B0FBF3F008BD004006400070044049
:1046B000054B1B6803F104735B011B7F03F0FF00D4
:1046C0000BB1024B18687047AC870000AC01FF1FAC
:1046D00009B9FFF7EDBFFFF7D9BF052808D8DFE814
:1046E00000F0030305050505FFF7BEBFFFF7CEBFCA
:1046F00000207047042808B506D90648064A074B2B
:1047000040F2B12101F048FE054B185CBDE80840BD
:10471000FFF738BF988400007E840000F584000015
:104720009A860000012808B506D90648064A074BB4
:1047300040F2E22101F030FE054B185CBDE8084074
:10474000FFF720BF98840000BC8600002F85000082
:10475000BA860000022808B506D90648064A074B63
:104760004FF45E7101F018FE054B185CBDE808407F
:10477000FFF708BF9884000081860000D7850000FD
:1047800078840000022808B506D90648064A074B77
:1047900040F2AA3101F000FE054B185CBDE808406C
:1047A000FFF7F0BE988400005F8400000F860000D1
:1047B0007B840000052808B506D90648064A074B41
:1047C00040F2DF3101F0E8FD054B185CBDE8084020
:1047D000FFF7D8BE988400003F84000047860000A1
:1047E000598400000A4B1A7802F03F0242F080021E
:1047F0001A70074B9B79C3F38103022BF9D1054B48
:1048000000221A76044A1378002BFCD1704700BFAF
:1048100000400640A000C842D400C8422DE9F04143
:104820000446457A4348434E86B0884600F0FFFC74
:104830002388042B11D1802801D1FFF7D3FF05A8CD
:10484000227963790190E179CDF80080394800F050
:1048500029FD394B01221A7143E0082B1BD1802816
:1048600001D1FFF7BFFF344B324800221A71E179C2
:10487000237AA2798DE8020105A90291294600F068
:104880006FFD337803F03F0333702A4B9B7913F0AD
:104890000C0FFAD125E0802B47D1802805AF0CD032
:1048A000254B00221A71E179A279237A02978DE8CB
:1048B00002013046294600F053FD1E4E627B237BE9
:1048C0008DE8840030462946002200F0C3FD33788D
:1048D00003F03F033370174B9B79C3F38103032B22
:1048E000F9D1164BA2781A71E2781A70A3784BB9F5
:1048F000A07AB8B10F48217B627BE37A00F022FCFA
:10490000002013E02379012B03D10A48617900F0DC
:10491000CEFB094B22791A70227909490B789A4209
:10492000FCD1E5E7074B187600E0012006B0BDE8B2
:10493000F08100BF004006402000C8420000C8428D
:10494000C000C8428000C842054B0A7853F82030A6
:1049500003F104735B011A774A781A75704700BF38
:10496000AC87000010B50C4630B11D481D4A1E4BE7
:1049700040F24F2101F010FD8B7A012B16D10B79FB
:10498000002B4B790CBF00200820002B8B79C979B4
:104990000CBF0022042201431143002B134A0CBF19
:1049A000002302231068194300F0F5FA002004F1F7
:1049B0000B01FFF7C9FFA37A0D48617A227A00F054
:1049C0000EFCA37A012B05D1E37A1BB1094A1378B7
:1049D000002BFCD0084B22681A60002010BD00BFDD
:1049E000FC860000D58600006F870000AC870000C1
:1049F00000400640C400C842AC01FF1F08B530B1FA
:104A00001248134A134B4FF4307101F0C5FC124B9E
:104A100001221A60114A0B681360114B0A7A1B6855
:104A200003F1047311335B01186840B93AB1087996
:104A30005861487918618879D860C87998601A6097
:104A40004A7A82F001025A60002008BDFC8600000C
:104A5000E78600008D870000F4079042B001FF1F39
:104A6000408A000008B50348034A044B40F2931102
:104A700001F092FC45880000238800007588000042
:104A8000012873B50E4605D919481A4A1A4B352123
:104A900001F082FC194B53F8204004F104752435D1
:104AA0006D010123EB61630103F184431C331A6838
:104AB000012A06D0AA69012AF9D10023EB6102205C
:104AC00014E0A36AB380204601F0BAFB3080204690
:104AD00001F0D0FB236970809BB2ADF80630BDF8C1
:104AE000063000209BB2ADF80630E86102B070BD20
:104AF000AB88000049890000297C00002C8D000053
:104B0000012808B505D91048104A114B632101F05E
:104B100043FC104B53F8203099B19A6A8888120CE4
:104B2000120402439A62DA6A08884988120C120455
:104B30000243DA621A6B120C12040A431A63002051
:104B400008BD012008BD00BFAB880000C58700007C
:104B5000297C00002C8D0000012368B10322037022
:104B60008370C37043710023427002718371C371FB
:104B7000037243728372C37218467047012870B57E
:104B800004460E4604D91848184A194BA62115E0C8
:104B9000184B53F8205029B3FFF7C4FD284601F005
:104BA00047FB2846314601F09FFB134B1A5D53B279
:104BB000002B05DA1148124A124B5D2101F0ECFB83
:104BC000552B04DD0D480E4A0F4B5E21F6E70121FF
:104BD00002F01F0201FA02F25B090C49002041F8C1
:104BE000232070BD012070BDAB880000E38700006A
:104BF000297C00002C8D0000278D0000247B000004
:104C00001F8900005F7B00006E7B000000E100E078
:104C1000012808B505D90848084A094BF52101F0D3
:104C2000BBFB084A52F8200019B101F0A6FB002096
:104C300008BD012008BD00BFAB8800006B890000E3
:104C4000297C00002C8D0000012810B506D90848E9
:104C5000084A094B4FF49D7101F09EFB074C54F834
:104C600020001AB101F020FB002010BD012010BD72
:104C7000AB88000031890000297C00002C8D0000E9
:104C8000012808B506D90C480C4A0D4B4FF4AA71FF
:104C900001F082FB0B4B012953F8203001D9FFF7BB
:104CA000E1FE03EB8101490101F184411C310B68F4
:104CB000012BFCD108BD00BFAB8800000C880000B0
:104CC000297C00002C8D0000012807B506D90A4870
:104CD0000A4A0B4B40F2631101F05EFB1F238DF873
:104CE000043001AA00238DF805308DF80630FFF757
:104CF000ABFF03B05DF804FBAB8800000B8900003C
:104D0000297C0000012808B505D90B480B4A0C4B3B
:104D100040F2771109E00B4B012953F8203006D9F6
:104D200009480A4A0A4B4FF4E47101F035FB04319B
:104D300053F8210080B208BDAB880000F287000064
:104D4000297C00002C8D000045880000F1880000BF
:104D50007588000008B5FFF7D5FF00B208BD000058
:104D6000012808B506D90E480E4A0F4B40F2B31180
:104D700001F012FB0D4B032A53F820300DD101290D
:104D800001D9FFF76FFE03EB810101F104714901C5
:104D9000C869431E5842584108BD002008BD00BFE5
:104DA000AB880000B0870000297C00002C8D00003B
:104DB000F7B50E4B0E4F01244FF085461C600025C1
:104DC0008DF800408DF8014038460099356000F0BC
:104DD000C9FB8DF805408DF804503846019900F064
:104DE000A1FBB561346003B0F0BD00BF0007904285
:104DF000000004408142C0EB010038BF00F5803064
:104E00007047000008B5034628B90648064A074B14
:104E1000762101F0C1FA4170002018705860986046
:104E200008BD00BFBB89000092890000FC8900001A
:104E300010B5044628B90A480A4A0B4BCC2101F0A8
:104E4000ABFA4378FF2B09D000F0ACFB6378013359
:104E5000DBB2637000F09CFB002010BD012010BD90
:104E6000BB89000085890000FC89000038B50D462B
:104E7000044630B90748084A084B40F2D71101F000
:104E80008BFA00F08FFBE3681D43E56000F080FBC8
:104E9000002038BDBB890000AE890000088A0000F0
:104EA0000A4B00229A6403F140029A6303F1300234
:104EB0009A6203F120029A6103F110029A60044A97
:104EC0001360044B9B60DB60704700BF4401FF1F11
:104ED0003001FF1F3401FF1F014800F051BB00BF2C
:104EE0000000044070B50D46044628B91C481D4A10
:104EF0001D4B932101F050FA437803F0FF065BB19C
:104F000000F050FB6378013BDBB200256370257035
:104F100000F03EFB284670BDE9B1037873B1FFF79E
:104F2000DBFF01466068A568FFF764FF854214D285
:104F300000F038FB267000F02BFB0CE04B1C0CD073
:104F400000F030FB0123237000F022FBFFF7C4FFC9
:104F5000A560606001E0022070BD032070BD00BF4D
:104F6000BB890000A1890000FC89000038B5044617
:104F7000FFF7B2FF0546FFF7AFFF01462846FFF7F0
:104F800039FF8442F7D238BD08B5FFF789FFFFF734
:104F90000FFF002008BD037803F0F0031943CBB2E4
:104FA00003707047012907D004D30548022918BFB0
:104FB00000207047034B00E0034B1868704700BFA8
:104FC000006CDC02AC01FF1FB001FF1F017B01F090
:104FD0000301FFF7E7BF21FA02F0A3B19DF800300B
:104FE000012B10D0072A0DD8DFE802F004040404D6
:104FF0000404060840097047142300E00C23B0FBAA
:10500000F3F070470020704713B500F104735B01A3
:1050100004461B7A83B9FFF7D9FF227863780146EB
:10502000207B00F003000090C2F3C2022046C3F3CD
:105030000113FFF7D0FF01E0014B186802B010BD6B
:105040004400FF1F10B51AB1B1F5004F07D90DE0AC
:10505000A1F5F444123C41F68560844208D802EB85
:105060004302044C34F81200484310BD002010BD28
:10507000104610BD448A000010B500F104730633D9
:105080005B0104461B7D83B9FFF7BEFF014660B19B
:1050900004F1047303335B0120461A7FE378BDE813
:1050A0001040C3F34113FFF7CDBF002010BD037ABA
:1050B000C3F342038B4210B524D000F104730133D3
:1050C0005B011A7842B9037A490001F00E0103F03E
:1050D000F0031943017210BD00221A7000F104722E
:1050E000063252011478002CFCD1047A490001F0F8
:1050F0000E0104F0F00421430172012119701378AC
:10510000012BFCD110BD10B500F1047306335B0117
:1051100004461B7D3BB900F1047304335B011B7E25
:1051200003F0FF006BB12046FFF750FF237903F037
:105130001F030133B0FBF3F3607900F01F00183058
:10514000584310BD10B5447902F01F0204F0E0048A
:1051500014434471027902F0800242F0400201F0EF
:105160001F015B010A4303F020031A43027140014F
:1051700000F18440D8300378002BFCD010BD000033
:1051800000F104735B011B7903F0FF0283B100F1AE
:10519000047301335B011B7813B9064B1868704721
:1051A000054B007A1B68C0F3420023FA00F07047F9
:1051B000104670474400FF1F4800FF1F8379C3F368
:1051C0008103022B09D0032B03D0012B03D0FFF75F
:1051D00053BFFFF798BFFFF7D3BFFFF7F7BE10B578
:1051E00044789B0003F0040304F0C304D2001C4382
:1051F00002F008020901144301F030010C4344702D
:1052000010BD037B01F0030203F0FC03134303739F
:1052100061B900F1047301335B011B7A33B14001C2
:1052200000F18440C4300378002BFCD07047034663
:1052300000F1047013F8061F013003F104735B01E1
:1052400040011A7C00791B7DC1F38101003318BF36
:1052500001230229D2B2C0B211D0032916D00129EC
:1052600005D0E3B9002A14BF012008207047012AA5
:1052700015D1A3B9002814BF04200220704772B9C9
:1052800058B9002B0CBF1020402070473AB9002BB2
:1052900014BF80204FF400707047202070474FF4F7
:1052A000007070472DE9F843099E0446884615466C
:1052B0001F46FFF7BCFF10F01D0F49D004F1047228
:1052C00003325201002313772378224603F03B0375
:1052D00043F0440302F8063B02F104724FEA42191C
:1052E00009F110021378012BFCD1012D03D12046C6
:1052F0003946FFF7DCFE627805F0010302F0FC029C
:105300001343637099F80030AB42FBD1E3784FEA66
:10531000481202F0600203F09F031343E370E37846
:10532000C3F341134345FAD1A379C3F38103012B9E
:10533000FAD1089B98471DB9074B1B68336004E0FE
:10534000064B1B6823FA07F737600020BDE8F88397
:105350000120BDE8F88300BF4400FF1F4800FF1F85
:105360002DE9F84F04460D46924699469DF828804F
:10537000FFF75DFF10F07B0F064665D020462946FB
:10538000FFF710FE8346002861D004F10473053353
:1053900004F104715B010631002249011A7601F122
:1053A0001400037803F0FF02002BFAD104F1047714
:1053B00001377F01082E3A7106D0227B05F00303E6
:1053C00002F0FC021343237323784FEACA0A03F066
:1053D00003030AF0380A43EA0A0A4AF0800A84F80A
:1053E00000A00B7C002BFCD1082E06D1227B05F0FF
:1053F000030302F0FC021343237325B93B7A13B174
:105400000B79002BFCD0E3784FEA481202F06002DF
:1054100042EAC91903F01F0349EA03095FFA89F94F
:1054200084F80390E378C3F341134345FAD1A37999
:10543000C3F38103022BFAD10B9B98470C9B0020EE
:10544000C3F800B0BDE8F88F0120BDE8F88F212037
:10545000BDE8F88FF8B504460F461E46FFF7E7FE95
:1054600010F0B00F55D020463946FFF79BFD05469A
:10547000002850D0721CB0FBF2F2A2F5F412284BB7
:10548000A2F590629A4248D804F1047201325201A6
:1054900000231371237803F03F0343F0800323704C
:1054A000A379C3F38103022BFAD120463946FFF7D3
:1054B000A8FE04F10472043252010023137604F1B1
:1054C00004720532500104F104720632037653016E
:1054D00003F114010A78002AFCD1227906F01F0694
:1054E00002F0E0021643267162799DF8186002F01E
:1054F000E00206F01F0632436271012202760A784A
:10550000002AFCD01A7E002AFCD0079B00201D60D8
:10551000F8BD0120F8BD2120F8BD4120F8BD00BF35
:1055200080841E0082B0026801919DF804109DF8ED
:10553000053049009B0001F0020103F004030B4316
:1055400022F0BE0213439DF80620D20002F00802AA
:1055500013439DF80720120102F030021343036049
:1055600002B070478A004B0B02F0040203F078038C
:105570001343C1F301210B4382B0436002B0704773
:10558000C3681B0C1B04C360C06880B27047000076
:10559000034A13681BB1013B136003B962B670473D
:1055A000B401FF1F72B6024B1A6801321A607047CD
:1055B000B401FF1F0023C222037043708370C370C5
:1055C00043718371C371037242728372C3727047F5
:1055D0002DE9F0474FF0000C4FF47A7462434FF01E
:1055E000FF356446E0464FF0010A0AFA04FA002744
:1055F000DFF8509009EB070676880AFB06F6B1FB48
:10560000F6F6B2428CBFC6EB0206C2EB0606AE420D
:1056100004D219F807C0A046354616B10437C82F82
:10562000E6D10134032C01D0002DDCD103B11D6083
:105630000CF03F0C4CEA88185FFA88F880F801807B
:10564000BDE8F087588A000000F1047302335B0163
:105650001A7D12B101221A727047837843F0300329
:105660008370704708B500F1047302335B011B7D42
:10567000012B05D00C480D4A0D4BFF2100F08CFE8C
:10568000837803F0CF0383704FF48063C27802F015
:10569000200202F0FF011AB1013B03D000BFF5E781
:1056A000084608BD092008BD208B0000758B00004E
:1056B0005B8B000000F104700230400101767047FE
:1056C00002282DE9F843064606D97448744A754BFA
:1056D00040F22E2100F060FE734B53F8205005F18C
:1056E000047206325301714AEF7852F8204095F85F
:1056F00003C093F81090197D93F8188005F1047297
:10570000023252010031107C18BF0121FFB25FFA52
:105710008CFC5FFA89F95FFA88F8C0B241B3B9F13D
:10572000000F09D0012119740223EB70236B002BA9
:1057300000F0B280F0B2A7E0B8F1000F18D001225B
:105740001A760223EB7094F82C1011B92846FFF753
:10575000B1FF236B1BB1F0B28021626B9847E37DF0
:1057600023B104F118008021FFF780FB0A2390E0A9
:10577000CCF38013FF064FF0020C85F803C012D55E
:105780001021E97023B1EB78C3F380036BB916E005
:1057900094F82C100823237000297DD12846BDE8F9
:1057A000F843FFF787BFA3B1EDE701231374236B21
:1057B000002B56D0F0B20221626B984751E013746F
:1057C000236B1BB1F0B20421626B98472B79BDE8C3
:1057D000F88301281ED1E878C00742D513742B79CD
:1057E00094F82C301BB911B92846FFF763FF236BDF
:1057F0001BB1F0B20821626B9847A37D23B104F17D
:1058000018000821FFF732FB00236360E360237573
:10581000BDE8F8832A79A368D2B203B323691A706A
:10582000236901332361A368013BA360A368002BB4
:1058300032D161B994F82C3013B92846FFF73AFFFA
:10584000E37D23B104F118002021FFF70FFB0023B3
:1058500063752361236BFBB1F0B2202114E00723B1
:1058600017E06368A3B1E3681B782B71E368013329
:10587000E3606368013B636063686BB9E360237551
:10588000236B4BB1F0B21021626B9847BDE8F883EF
:1058900006232370BDE8F883BDE8F883868B0000FB
:1058A000D48B0000DC7F0000648000001401FF1F27
:1058B0001F2908B505D90A480A4A0B4B2E2100F0CA
:1058C0006BFD012A436903D18A401A43426108BD36
:1058D000012202FA01F123EA0101416108BD00BF82
:1058E000178C0000EC8B00007C8100001F2908B59C
:1058F00005D90748074A084B422100F04DFD012316
:1059000003FA01F10AB1416008BD816008BD00BF22
:10591000178C0000FF8B00007C81000000F10473F5
:105920005B0103F150021B6D33B1036823F00043A8
:1059300003601368002BFCD10020704700F1047055
:1059400004304001416300207047000030B500285A
:1059500079D0046804F07F04A14272D200F104748B
:105960006401646F34B1446BC4F3036464000734AE
:10597000A14268D91479012C2AD100EB011123F03E
:105980006043D1F8800040F40010C1F88000D1F8E5
:10599000800020F48000C1F88000D1F8800020F45D
:1059A0007020C1F880009068D1F88040000400F4B5
:1059B00070202043C1F88000D1F8840000F06040DE
:1059C000C1F88400D1F884000343C1F8843025E095
:1059D000CCBB00EB01119B04D1F8800020F4C00087
:1059E000C1F88000D1F8800020F47020C1F8800058
:1059F000D1F88050906845EA0040C1F88000D1F8A5
:105A0000840020F0FF5020F4E010C1F884000F481B
:105A1000D1F8845018402843C1F8840013680F2B34
:105A20000DD0D1F8802022F07062C1F88020D1F82A
:105A300080201B0603F070631343C1F88030002000
:105A400030BD012030BD032030BD00BF0000FC1F71
:105A500030B5002839D0036803F07F03994232D271
:105A600000F104735B015B6F33B1436BC3F30363FA
:105A70005B000733994228D909014318D3F88040C5
:105A80001460D3F88430A40258BF9B0C53600023E9
:105A9000032B00EB010406D8D4F88850DC0025FA6B
:105AA00004F4D47208E0D4F88C5003F10054043CA0
:105AB000E40025FA04F4D4740133082B02F1FF3218
:105AC000E6D1002030BD012030BD032030BD48B1FB
:105AD000036803F07F03994206D208310901435855
:105AE000002070470320704701207047036803F0CF
:105AF0007F0399424FF001030AD203FA01F1836A4E
:105B00001AB1194381620020704723EA0101F9E7C5
:105B100018467047AAB1B1F5806F02D0B1F5006F99
:105B200004D100F104735B0101225A65B1F1806F69
:105B300004D100F104735B0101229A6643681943A2
:105B400008E0B1F1806F03D100F104735B019A6644
:105B5000436819404160704700F104704001002320
:105B60000367836760300368002BFCD1704700F146
:105B70000470400101238367036760300368002BD2
:105B8000FCD0704738B500F104735B010121044675
:105B900003F1640259661568002DFCD12046FFF719
:105BA000E6FF054B236120466361A361FFF7D4FF45
:105BB000A562284638BD00BFFFFF030038B5044684
:105BC0000D46FFF7D4FF636823F007031B041B0C8B
:105BD00063602B68616803F00702EB6842EA0363C5
:105BE00043EA0102AB681B0403F4E0216B68DB04A9
:105BF0000A4303F4601313432A69920502F4400236
:105C0000134363602046BDE83840FFF7A5BF00009E
:105C100038B504460D46FFF7AAFF04F104735B0193
:105C200001225A67636B0D4A2D0623F0706305F05D
:105C300070651D436563A2642168002301F07F0144
:105C40008B4205D003F50870013344F82020F7E7B4
:105C50002046BDE83840FFF77FBF00BFFFFF0300CD
:105C600038B504460D46FFF782FF236805F07F0232
:105C700023F07F03134323600023AB420CD004EBDB
:105C800003100022C0F880200133C0F88420C0F83F
:105C90008820C0F88C20F0E72046BDE83840FFF7A8
:105CA0005BBF036A5B071CBF07230362704710B525
:105CB00018B3D0F880300B6013F4001FD0F8843094
:105CC00008BF9B0C4B600023032B06D8D0F88840FC
:105CD000DA0024FA02F2CA7208E003F10052D0F8A6
:105CE0008C40043AD20024FA02F2CA740133082B21
:105CF00001F1FF31E8D1002010BD032010BD38B5FF
